:020000040800F2
:10400000305900200941000857720008E17100088A
:104010005572000851570008198900080000000077
:10402000000000000000000000000000E176000831
:104030002559000800000000E3740008E58300082B
:10404000234100082341000823410008657500084A
:104050002341000823410008234100089D5A00081D
:10406000A35A000823410008234100082341000807
:104070002341000823410008234100082341000890
:104080002341000823410008234100082341000880
:10409000234100082341000823410008A95A0008D1
:1040A00000000000234100082341000823410008CC
:1040B0002341000823410008234100082341000850
:1040C0002341000823410008234100082341000840
:1040D0002341000823410008234100082341000830
:1040E000955A000823410008234100082341000895
:1040F00023410008DFF80CD000F076F900480047B3
:10410000999B000830590020064880470648004720
:10411000FEE7FEE7FEE7FEE7FEE7FEE7FEE7FEE777
:10412000FEE7FEE7CD840008F540000840EA010301
:104130009B0703D009E008C9121F08C0042AFAD25D
:1041400003E011F8013B00F8013B521EF9D2704721
:10415000D2B201E000F8012B491EFBD270470022C9
:10416000F6E710B513460A4604461946FFF7F0FF76
:10417000204610BD421C10F8011B0029FBD1801AFB
:1041800070472DE9F04D81EA030404F0004B21F063
:10419000004514464FF0000A23F0004150EA0502A2
:1041A00020D054EA01021DD0C5F30A570246C5F3D8
:1041B0001303C1F31300C1F30A5640F4801543F40E
:1041C0008013A7EB0608101BD64608F2FD3873EBE8
:1041D000050002D308F1010801E092185B41B8F133
:1041E000000F03DA00200146BDE8F08D00204FF4F7
:1041F0008011064684460EE0171B73EB050705D3B6
:10420000121B63EB050306434CEA010C49084FEA15
:10421000300092185B4150EA0107EDD152EA0300E9
:1042200012D082EA040083EA0501084305D0101B7E
:10423000AB4106D20122002306E000224FF00043EA
:1042400002E06FF0010253101AEB06004CEB08512C
:1042500010EB0A0041EB0B01BDE8F04D00F067B830
:104260000EB540F2334102910021CDE900110A461A
:104270000B4600F06BF803B000BDC1F30A5210B555
:10428000C1F3130140F2FF3341F480119A4201DA85
:10429000002010BD40F233439A42A2F2334203DCC5
:1042A000524200F034F810BD904010BD2DE9F05F8F
:1042B0000546002092469B46884606468146402495
:1042C0001BE0284641464746224600F020F8534668
:1042D0005A46C01A914110D311461846224600F0A2
:1042E00095F82D1A67EB01084F4622460120002160
:1042F00000F08CF817EB00094E41201EA4F10104D8
:10430000DFDC484631462A464346BDE8F09F202A76
:1043100004DB203A21FA02F00021704721FA02F36F
:10432000D040C2F12002914008431946704710B5B1
:10433000141E73F1000408DA401C41F100019218C8
:104340005B411A4301D120F0010010BD2DE9F04D71
:1043500092469B4611B1B1FA81F202E0B0FA80F2C6
:104360002032904600F052F804460F4640EA0A0018
:1043700041EA0B0153465A46084313D0114653EA0B
:10438000010019D0C8F140025046FFF7C0FF0546B2
:104390000E4650465946424600F038F8084305D0CC
:1043A000012004E020463946BDE8F08D0020054399
:1043B00046EAE0762C4337430A986305E40AA0EB0B
:1043C00008000022FD0A44EA47540A3002D50020C2
:1043D0000146E9E7010510196941DDE908450019C1
:1043E0006941BDE8F04DA2E7064C074D06E0E068E4
:1043F00040F0010394E8070098471034AC42F6D32C
:10440000FFF77CFE04B7000824B70008202A04DB6D
:10441000203A00FA02F1002070479140C2F12003D7
:1044200020FA03F319439040704770B58C1810F8C8
:10443000015B15F0070301D110F8013B2A1106D1E9
:1044400010F8012B03E010F8016B01F8016B5B1E03
:10445000F9D12B0705D40023521E0DD401F8013BDE
:10446000FAE710F8013BCB1A921C03E013F8015B4A
:1044700001F8015B521EF9D5A142D8D3002070BDCE
:104480000121F92004F0B2BA13460A460146014858
:1044900001F00AB9C828002010B50121F92004F064
:1044A000A5FA06480449C161054901620A21016172
:1044B000BDE8104001F006B9E7890008C8280020CF
:1044C000E1890008014801F005B90000C828002072
:1044D00030B587B014216846FFF741FE0F4802F05F
:1044E000D4FC0F48016841F00101016000680D4DE6
:1044F00000F001004FF400440590002221462846B8
:1045000001F063FD0121CDE90041022103916946DB
:10451000284601F08BFC07B030BD0000EC280020DD
:104520001C380240000002400A4910B50C2201F17B
:104530000C0002F06AFF00280BD00C220549002075
:1045400001F026F803480168C16041680161816893
:10455000416110BD6001002010B50C220849002007
:1045600000F052F8064C07A0A278218804F0FCF96C
:10457000A279A188BDE810400AA004F0F5B90000B6
:10458000600100206461746153617665532E61643B
:10459000647220697320253034780963683A2025D5
:1045A000640D0A006461746153617665532E4E6533
:1045B00074616464722069732025303478096368FB
:1045C0003A2025640D0A000010B50E4C0C482060FE
:1045D0004FF4E13060600020A060E0602061A061E5
:1045E00008206061204602F0DDFC2068C16821F0EF
:1045F0004001C16021686FF04000086010BD0000FC
:1046000000380140582900202DE9F047C0B0884605
:1046100005464FF48079144649466846FFF79FFDEA
:104620001248EEB22F183019484501D8254601E04E
:10463000C6F58075EA4627F0FF004A46694600F055
:1046400016FC0AEB06012A464046FFF76FFD641B85
:1046500008D0A84400264D4607F58077AC42EAD83A
:104660002546E8E740B0BDE8F087000000E001081B
:10467000AFF30080F0B587B014216846FFF76FFDF7
:10468000284C206840F0020020602068012500F0DE
:1046900002000095244F0226059069460396019575
:1046A000384601F0C3FB01221146384601F08DFC6B
:1046B000206840F00100206020681C4C00F00100E0
:1046C00005901020CDE9000569460396204601F0CB
:1046D000ADFB00221021204601F077FC154C144858
:1046E000690220604FF4827060600020A060E0608A
:1046F0002061C4E905010821C4E907106062A062D5
:104700000A20E062204602F042F920B140F29331E3
:1047100009A004F003F92068016841F0400101603C
:1047200007B0F0BD1C380240000402400000024007
:1047300000300140702800202E2E5C4273705C42D5
:104740007370477432314C31365332572E63000048
:1047500070B586B014216846FFF701FD00220121E3
:104760001B4801F032FC1B4E01221021304601F0A3
:104770002CFC194802F0F4F800222021304601F008
:1047800024FC20200124CDE900040225694603957C
:10479000304601F04BFB00224021304601F015FC71
:1047A0004020CDE9000469460395304601F03EFB08
:1047B00000228021304601F008FC8020CDE9000471
:1047C00069460395304601F031FB06B070BD00002C
:1047D000000402400000024070280020F0B50024D0
:1047E000154E14E04FF00005A3B1075D05EB841CE6
:1047F00006EB87172F44A7F580576D1C97F80078B4
:10480000ADB202F80C70402DEFD3641CA4B28C4200
:10481000E8D3F0BD075D05EB841C06EB87172F443A
:10482000A7F580576D1C97F80078ADB2FF4302F8EA
:104830000C70402DEED3E8E76C9D00082DE9FF4F8A
:1048400087B09A4616468B46002402AD3BE0079897
:104850001F4A015DA1F120035E2B03D8C800A0F51B
:10486000807010440722694604F0DEFE0020814675
:10487000E8460122C0F1070325F81090002102FA52
:1048800003F7C1F1060318F803303B4207D035F8AF
:10489000103002FA01FC43EA0C0325F81030491CE1
:1048A000C9B20729EDD315F81010BAF1FF0F00D1E6
:1048B000C94304EB84030344401CC0B2F1540528EF
:1048C000D8D3641CA4B25C45C1D30BB0BDE8F08F53
:1048D000C0BF03002DE9FF4F87B09B46164600245A
:1048E0004FF0010803AD43E00798244A015D2039E9
:1048F0005E2903D801EB410002EB80000C226946DF
:1049000004F092FE00208246E946C0F1070225F835
:1049100010A0002108FA02FCC1F10B0219F80230C4
:1049200013EA0C0F07D035F810308F1C08FA07F285
:10493000134325F81030491CC9B20C29ECD3BBF144
:10494000FF0F04D135F81010C94325F8101004EBFF
:10495000440135F81020890001EB4001130A73541B
:104960003144401CC0B24A700628CED3641CA4B2A5
:1049700008988442B8D30BB0BDE8F08F406D0600B4
:104980002DE9FF4F87B09A4616468B46002402ADAC
:104990003CE0079846F2C062015DA1F120035E2B66
:1049A00003D8C800A0F5807010440822694604F0BE
:1049B0003BFE00208146E8460122C0F1070325F8AE
:1049C0001090002102FA03F7C1F1070318F8033031
:1049D0003B4207D035F8103002FA01FC43EA0C03E1
:1049E00025F81030491CC9B20829EDD315F810106C
:1049F000BAF1FF0F00D1C943C4EBC4030344401C08
:104A0000C0B2F1540728D8D3641CA4B25C45C0D30B
:104A10000BB0BDE8F08F00002DE9FF4F89B09A463A
:104A200016468B46002404AD42E00998234A015DF6
:104A3000A1F120035E2B03D80801A0F500701044FB
:104A40001022694604F0F0FD00208146E84601226C
:104A5000C0F1070325F81090002102FA03F7C1F115
:104A60000F0318F803303B4207D035F8103002FA34
:104A700001FC43EA0C0325F81030491CC9B2102987
:104A8000EDD3BAF1FF0F04D135F81010C94325F862
:104A9000101035F81030210101EB40011F0A775446
:104AA0003144401CC0B24B700828D1D3641CA4B25E
:104AB0005C45BAD30DB0BDE8F08F0000C0B703006D
:104AC0002DE9FF4F93B09B46164600244FF0010896
:104AD0000CAD43E0139800EB440003F0C9FF18222B
:104AE000694604F0A1FD0C2206A9684602F07BFC91
:104AF000002082460DF11809C0F10F0225F810A020
:104B0000002108FA02FCC1F10B0239F8123013EA55
:104B10000C0F07D035F810308F1C08FA07F213433A
:104B200025F81030491CC9B20C29ECD3BBF1FF0F9A
:104B300004D135F81010C94325F81010162135F8A6
:104B40001020614301EB4001130A73543144401CAF
:104B5000C0B24A700B28CFD3641CA4B2149884420C
:104B6000B8D317B0BDE8F08F2DE9FF4F99B09A4642
:104B700016468B46002410AD6EE01998002200EB1B
:104B800044010B78A3F1A407042F04D84F78A12F78
:104B900001D3104621E0A3F1A102082A0CD84F78D6
:104BA000A12F09D3C2EB021000EB421007EB40002B
:104BB0004001A0F5A15010E0B03B472B0DD849783B
:104BC000A1290AD3C3EB031000EB431001EB400013
:104BD000400140F2AD2100EB4110202208A904F071
:104BE00023FD1022694608A802F0FDFB0020814643
:104BF000E8460122C0F10F0325F81090002102FAC7
:104C000003F7C1F10F0338F813303B4207D035F8F2
:104C1000103002FA01FC43EA0C0325F81030491C5D
:104C2000C9B21029EDD3BAF1FF0F04D135F8101035
:104C3000C94325F81010C4EB041135F810304900B1
:104C400001EB40011F0A77543144401CC0B24B7045
:104C50000F28CFD3641CA4B25C458ED31DB0BDE831
:104C6000F08F00002DE9FF4F87B09B4615460024CA
:104C70004FF0010857E007982E4F00EB440106A8BB
:104C800002F0BFFBBDF81800A0F52A41A1395D294B
:104C900002D801EB410008E0A0F52B41A1391F2902
:104CA00005D801F15E0000EB400007EB80063046BE
:104CB0000C22694604F0B8FC00208246E94603AFA6
:104CC000C0F1070227F810A0002108FA02FCC1F188
:104CD0000B0219F8023013EA0C0F07D037F8103026
:104CE0008E1C08FA06F2134327F81030491CC9B28B
:104CF0000C29ECD3BBF1FF0F04D137F81010C943D6
:104D000027F8101004EB440237F81010920002EB61
:104D100040020B0AAB542A44401CC0B25170062812
:104D2000CED3641CA4B208988442A4D30BB0BDE8CF
:104D3000F08F0000406D06002DE9FF4F89B09A46C4
:104D400015468B46002455E009982D4F00EB440191
:104D500008A802F056FBBDF82000A0F52A41A139B1
:104D60005D2902D80001274907E0A0F52B41A139B0
:104D70001F2905D823490001A23900EB0110C619EB
:104D800030461022694604F04FFC00208146E84678
:104D9000012204AEC0F1070326F81090002102FAA8
:104DA00003F7C1F10F0318F803303B4207D036F880
:104DB000103002FA01FC43EA0C0326F81030491CBB
:104DC000C9B21029EDD3BAF1FF0F04D136F8101093
:104DD000C94326F8101036F81010230103EB4003E6
:104DE0000F0AEF542B44401CC0B259700828D1D38D
:104DF000641CA4B25C45A7D30DB0BDE8F08F0000E1
:104E0000C0B703005F55FFFF10B5FFF7DDFBFFF7ED
:104E1000A3FBFFF72FFC00F0BDFA00F061F900F0F2
:104E200013FA00F063F800F02FFB03F0EFFEFFF73A
:104E300033FBBDE81040FFF78BBC7FB5044600256F
:104E400001200E4614F0FF0F03950ED100F022FF53
:104E5000301BCDE90054000A029003A9684600F017
:104E6000B3FE044600F0EEFE204604B070BD10B55F
:104E7000930704D0012010BD10C81B1D10C1934220
:104E8000FAD3002010BD2DE9F041064617460D4625
:104E9000900702D00120BDE8F08100F0FBFE002465
:104EA0000BE0314602202A6800F0D6FE10B100F077
:104EB000C9FEEFE7241D2D1D361DBC42F1D300F0C5
:104EC000C1FE0020E7E7000010B50A21064803F004
:104ED000E5FA012807D003F0D7FE002803D0BDE88B
:104EE000104002F0C7B810BD940000202DE9F04139
:104EF0001D4C86B0206840F002002060206802252A
:104F000000F00200194F05900126CDE90057DFF8A7
:104F10006080CDE902656946404600F087FF0022C7
:104F20001146072001F0C2F8072001F0B1F820680F
:104F300040F0020020602068CDE9026500F0020028
:104F400005900420CDE900076946404600F06EFF59
:104F500000221146082001F0A9F8082001F098F875
:104F600006B0BDE8F08100001C38024000002110AE
:104F700000040240074810B58188002909D005497E
:104F80008078083151F820008047BDE8104000F0DB
:104F9000E1BB10BD440000202DE9F041114E044654
:104FA000114F16F8345000220221384601F00DF856
:104FB00000220121384601F008F8284603F07EFF60
:104FC00001220221384601F000F8002106EBC4005E
:104FD000FF224FF4945443685A54491CA142FAD317
:104FE000BDE8F0812CB5000800000240F0B5540780
:104FF000DDE905751AD10E4ED40806EBC0063A4419
:105000000B4411E020460BE000EB800C0CEB401C45
:10501000C1EBCC0C77680CF2271C401C07F80C5035
:10502000B0EBD20FF0D3491C8B42EBD8F0BD00009F
:105030002CB500082DE9F04FADF5217DADF5805D73
:105040001E460DF580538346D3E9AA50D3F8B0A28B
:105050006B073BD101EB41031F4901EB8304A17AAC
:10506000490733D1237AE946BAFBF3F1134667685F
:105070004A46B847314620E0184AE808A1EB060C3A
:1050800002EBCB0813E00CFB02F2A0EBD50303EB21
:10509000D20300EB800719F8032007EB4017C1EBA0
:1050A000C707D8F8043007F22717401CDA55A27A50
:1050B0005319B0EBD30FE6D3491C607A227A00FB78
:1050C0000AF0B0FBF2F030448842D5D80DF5217DCE
:1050D0000DF5805DBDE8F08F04B600082CB5000822
:1050E0002DE9F04186B014216846FFF738F8414CAD
:1050F000206840F00100206020683F4F00F0010070
:10510000059001220821384600F05FFF08200125A4
:10511000CDE90005022669460396384600F086FE72
:10512000206840F0010020602068694600F001001E
:1051300005900420CDE900050396384600F076FE80
:10514000206840F0010020602068012200F001008A
:1051500005900221384600F038FFCDE90065694628
:105160003846039600F062FE206840F0010020609F
:105170002068012200F0010005901146384600F039
:1051800024FF0095694638460396019500F04EFECF
:10519000206840F0020020602068012200F0020038
:1051A000DFF85880170205903946404600F00DFFA1
:1051B000CDE9007569464046039600F037FE206849
:1051C00040F002002060206801AA00F00200059073
:1051D00060150090002082E861006946404600F0BA
:1051E00025FEFF224FF494510548FEF7B1FF06B0AB
:1051F000BDE8F0811C38024000000240000402407B
:105200006E0300202DE9F0410E4E044616F83400DE
:1052100000F08AFB002506EBC4064FF494770024C7
:1052200004EB840101EB4411706805EBC101405CA3
:1052300000F09CFB641C102CF2D36D1CBD42EED31D
:10524000BDE8F0812CB500083EB51D48FEF792FF81
:10525000702480B21A490094CDE901101C23FF226A
:1052600007210020FFF7E6FE164817A1027818482C
:1052700003F08AFB1648FEF77DFF80B2144D0094C0
:10528000CDE901506C23FF2207210020FFF7D2FE59
:10529000104811A10288284603F076FB2846FEF745
:1052A00069FF80B20094CDE901509723FF220721C6
:1052B0000020FFF7BFFE0C498888401C88803EBD57
:1052C000589C000800000020523A25303278000037
:1052D0004E03002060010020416464722848657814
:1052E000293A2530347800004400002000B587B00A
:1052F000002003900490059006900B480BA10288B3
:1053000003A803F041FB03A8FEF734FF03A97022B2
:10531000CDE9002180B202909723FF2207210020CF
:10532000FFF788FE07B000BD600100204164647291
:1053300028486578293A25303478000070B5064D44
:10534000002404EBC40005EB800000F0C3F9641CEA
:10535000E4B2032CF5D370BD88010020F0B4044EF4
:1053600000EBC005002406F82540F0BC00F002B8B0
:105370008801002030B4032807D2054C00EBC000A0
:1053800004EB800030BC00F08FB930BC70470000E7
:10539000880100202DE9F04103F010FE0D4F00249C
:1053A0000B4D0A26A7F10C0804EBC40005EB8000A6
:1053B000066157F82410C16158F82410016200F00A
:1053C00081F9641CE4B2032CEED3BDE8F081000047
:1053D000880100202C00002070B5224D40F6B83620
:1053E0006868B04223D80121284603F057F8012805
:1053F0001DD068684FF4FA74D0B1B0F57A7F21D02F
:10540000B04211D1234600211A460846FFF7A6FFF5
:1054100023461A4600210120FFF7A0FFC823224699
:1054200001210220FFF79AFF6868401C686070BD88
:10543000C823224601210020FFF790FF23461A4689
:10544000002108E0234600211A460846FFF786FFA0
:10545000C823224601210120FFF780FF23461A4678
:105460000021DEE718000020024900F5C77048431C
:1054700002F078BB40420F00024900F5C770484374
:105480007047000040420F0010B503F03FFE154C7E
:1054900013484FF4007120604FF482706060002068
:1054A000A060E0602061C4E905011021C4E9071093
:1054B0006062A0620720E062204601F068FA18B13D
:1054C000412109A003F02AFA2068016841F0400157
:1054D00001600A491F200870BDE8104002F002B9BF
:1054E00000380040F40100202E2E5C4273705C42B4
:1054F00073704C6F72612E630000000098290020C9
:1055000070B506460D460EA003F02EFA002405E005
:10551000315D11A003F028FA641CE4B2AC42F7D369
:105520000FA003F021FA2A4631460E48FEF7FEFD91
:105530000C48A0F80051BDE87040032003F0AAB861
:105540005F5F4C6F726153656E6450726F4461743B
:10555000613A0D0A0000000020253032780000007A
:105560000D0A00004C0200200EB501238DF8080042
:1055700000208DF804006420009001AA02A90348CD
:1055800001F01AFB9DF804000EBD0000F40100209C
:105590002DE9F04FC1B0884605464FF48079144696
:1055A00049466846FEF7DBFD1948EFB22E18381958
:1055B000484501D8254601E0C7F58075EB46CA4647
:1055C00026F0FF00814652466946FFF750FC0BEB80
:1055D00007002A464146FEF7A9FD300A0102484667
:1055E00001F58071FFF729FC524669464846FFF7EE
:1055F0004AFC641B08D0A8440027554606F580766F
:10560000AC42DDD82546DBE741B0BDE8F08F0000B5
:1056100000E001082DE9F04FC1B00D4606464FF4F9
:1056200080791C46904649466846FEF798FDEFB2E1
:1056300038192E44484501D8254601E0C7F5807544
:10564000EB46CA4626F0FF00814652466946FFF700
:105650000EFC0BEB07002A464146FEF767FD300AB9
:105660000102484601F58071FFF7E7FB52466946A3
:105670004846FFF708FC641B08D0A844002755469D
:1056800006F58076AC42DDD82546DBE741B0BDE8C3
:10569000F08F00000123024A00210248FFF7BABF41
:1056A00014000020F4FF010810B50478002C08D184
:1056B000012400F8044B0EC01A444A430021426002
:1056C000018110BD002141608160C16041610170B4
:1056D000006A004770B50446008A81B204F11800E0
:1056E00002F0DCFE012821D062680025FF2A06D0E6
:1056F000618B6069884204D3401A606102E0E0690E
:1057000012E065617AB1606968B100F023F8D4E90C
:1057100002100D186169B1FBF5F205FB121181420F
:1057200005D9E06904E0206A8047257070BD206AD1
:1057300080476068FE28F9D105EB45016069C1EB3F
:1057400005218842F2D1C5EBC5104000606170BDF3
:10575000FEE700000149002008807047B8000020E3
:105760002DE9F04300240546C1B088462646204670
:105770002746DFF8B09050E070B1012811D0022820
:1057800014D0032816D004281AD0611D884219D2DB
:1057900000F1010080B23EE029786A293BD1012066
:1057A00039E06878012835D1022034E0A878040275
:1057B000032030E0E8780443FF2C2BD804202AE0B3
:1057C000052028E002D1295C0E02E1E7A21D9042EB
:1057D00021D1285C89B20643284603F0A7FEB042D7
:1057E00018D1291D621C6846FEF7A0FC9DF8002018
:1057F0000020494611F830309A4207D109EBC00029
:10580000214642680DF10100904703E0401CC0B200
:105810000728EFD300207F1CBFB24745ACD341B06F
:10582000BDE8F08378B6000810B50121164802F0F3
:1058300035FE012826D0154CD4F81401002821D0BB
:10584000D4F81011B0FBF1F201FB1201002919D1BB
:10585000D4F81811884215D894F8081114F8EC0BF4
:105860000B4A02EBC0004268084808309047A06A23
:10587000401EA06206D1BDE8104040F61831034832
:10588000FEF76DBC10BD00009C0000209C2A00208B
:1058900070B6000870B516480178002926D000219E
:1058A0000170144800781F2820D1134E13A096F8D9
:1058B000741003F059F80024174D05E0295D17A076
:1058C00003F052F8641CA4B296F87400A042F5D814
:1058D00010A003F049F896F87400C01E81B2E81CCD
:1058E000FFF73EFFBDE87040FFF734BF70BD00001A
:1058F0009A00002098290020B837002072656320A4
:10590000646174612066726F6D206C6F72612069D2
:10591000732025640D0A0000B8360020202530329F
:10592000780000007047000070B504460121491E50
:10593000C9B2FCD20C4D00220221284600F045FBE2
:1059400000220121284600F040FB204603F0B6FA71
:1059500001220221284600F038FB2846BDE87040AD
:105960000122114600F031BB0000024070B5044630
:105970000121491EC9B2FCD2114D0022082128463E
:1059800000F023FB00220221284600F01EFB01222A
:105990001146284600F019FB204603F08FFA012239
:1059A0000221284600F011FB01221146284600F092
:1059B0000CFB2846BDE870400022082100F005BB22
:1059C0000000024010B57420FFF7AEFF5420FFF72F
:1059D000CDFF7E20FFF7A8FF3B20FFF7C7FF012088
:1059E000FFF7A2FF2720FFF7C1FF0120FFF7BEFF4F
:1059F0000020FFF7BBFF1120FFF796FF0320FFF702
:105A0000B5FF4420FFF790FF0020FFF7AFFF0F2006
:105A1000FFF7ACFF4520FFF787FF0020FFF7A6FF49
:105A20000020FFF7A3FF2720FFF7A0FF0120FFF7CB
:105A30009DFF3C20FFF778FF6220FFF797FF1820BB
:105A4000FFF772FF8020FFF791FF2220FFF76CFF26
:105A5000C720FFF78BFF2120FFF766FF4020FFF7ED
:105A600085FF4E20FFF760FF0020FFF77FFF4F20EC
:105A7000FFF75AFF0120FFF779FFBDE8104028200B
:105A8000FFF774BF10B52020FFF74EFFBDE81040B0
:105A900004F060B84FF4006000F0BCB9022000F0E0
:105AA000B9B9042000F0B6B94FF4007000F0B2B9F3
:105AB0007047000001A002F057BF0000310D0A003E
:105AC000074900224A6107490B6843F400730B60E1
:105AD0000B6843F008030B6020F0FF000260704782
:105AE00048010020043C0240134A00201168CB0505
:105AF000124904D5486940F00200486190151368C6
:105B00009B0505D54B6943F001034B6140F40070E0
:105B100013681B0505D54B6943F004034B6140F442
:105B2000006013689B0405D54B6943F010034B617B
:105B300040F4005010607047183C024048010020BB
:105B400070B5044600F046FA0546134E09E0601CA5
:105B500007D024B100F03EFA401BA04201D9032037
:105B600070BD3068C007F2D13068800701D50220CF
:105B700030603068C00508D43068000505D430684E
:105B8000800402D43068800503D5FFF7ADFF012003
:105B900070BD002070BD0000183C024000F07F0086
:105BA0007047000070B5044600F014FA0546601C0A
:105BB00002D004484068044400F00CFA401BA042A4
:105BC000FAD370BD040000202DE9F04705461B48BC
:105BD0000E46017C012909D00121804601744CF256
:105BE00050373846FFF7ACFF18B122E00220BDE87D
:105BF000F0874FF0FF313160B946114F6C6812E009
:105C00002046FFF75DFF4846FFF79AFF396821F00D
:105C100008013960396821F40071396008B13460D5
:105C200007E004F58074D5E9011201EB0221A142DD
:105C3000E6D8002288F81020D9E7000048010020AB
:105C4000043C02400348016841F002010160002069
:105C500070470000043C02402DE9F0410C4C164610
:105C60000F46207C012809D0012020744CF25038C6
:105C70004046FFF765FF002518B107E00220BDE8A8
:105C8000F08165613E604046FFF75AFF2574F6E7F4
:105C9000480100200E480168890716D50168C90728
:105CA00008D00B490B4A08310A600B4A0A600168A8
:105CB000C90708D10649094A0C310A60084A0A6036
:105CC0000068800701D50120704700207047000060
:105CD000043C0240EFCDAB8905040302BFAE9D8CAE
:105CE000161514132DE9F04F0022DFF8D0A04FF065
:105CF000010B4FF00F095BE00BFA02F717EA010402
:105D000055D022F003055544AB6896074FEA167C40
:105D100009FA0CF606EA0308294B984201D1002340
:105D200014E0284B984201D101230FE0264B984202
:105D300001D102230AE0254B984201D1032305E05B
:105D4000234B984201D1042300E0052303FA0CF30E
:105D5000434512D1AB68B343AB601E4B1D68A543EE
:105D60001D601B1D1D68A5431D601B1D1D68A543EF
:105D70001D601B1D1D68A5431D600468550003239D
:105D8000AB409C430460D40800EB8404266A5507AA
:105D90004FEAD56C09FA0CF5AE43266284689C4341
:105DA00084604468BC434460C4689C43C460521C23
:105DB00031FA02F3A0D1BDE8F08F000000000140ED
:105DC000000002400004024000080240000C0240B3
:105DD000001002400004014070B502280DD00428D4
:105DE0000BD00125064CB0F5007F07D0B0F5006F51
:105DF00003D104A002F0B8FD257070BDE57070BD40
:105E0000280100206C6F72612064696F3020697214
:105E1000710D0A00044910B50A68024202D00860F8
:105E2000FFF7DAFF10BD0000140401402DE9F84F20
:105E3000DFF86C91002209F1040A0AF1040B4FF01B
:105E40000F080BF1040EA3E001269640334070D0FA
:105E50004C68022C01D0122C11D1D40800EB84071D
:105E60003D6A5407E40E08FA04FC25EA0C05D1F853
:105E700010C00CFA04FC4CEA050CC7F820C00768F7
:105E80005400032591F804C0A5400CF0030CAF4367
:105E90000CFA04FC4CEA070CC0F800C04F68012F54
:105EA00005D0022F03D0112F01D0122F11D18768F6
:105EB000D1F80CC0AF430CFA04FC4CEA070CC0F854
:105EC00008C04768B7430E79C6F3001696403E43B4
:105ED0004660C668AE438D68A5403543C5604C68D2
:105EE000E40054D52F4C256845F001052560246851
:105EF00022F0030504F0010400942B4C2E19B7681E
:105F00009407250F08FA05F4A743284CA04201D1B5
:105F1000002415E0264CA04201D1012410E0254CBC
:105F2000A04201D102240BE0234CA04202D1032461
:105F300006E02CE0214CA04201D1042400E005241D
:105F4000AC403C43B460D9F800404D464E689C4399
:105F5000F60300D51C432C60DAF8004055464E6825
:105F60009C43B60300D51C432C60DBF800405D4623
:105F70004E689C43F60200D51C432C60DEF80040BE
:105F800075464E689C43B60200D51C432C60521CDB
:105F90000B6833FA02F47FF457AFBDE8F88F0000C6
:105FA000000401402038024000000140000002408F
:105FB0000004024000080240000C024000100240B1
:105FC0000069084000D0012070470AB18161704724
:105FD0000904FBE7014880687047000004000020C6
:105FE00002488168426811448160704704000020C3
:105FF00010B50024032000F079F8002000F008F824
:1060000008B1012401E000F025F8204610BD000091
:1060100070B50E4E05460024706898B14FF47A7141
:10602000B1FBF0F00A490968B1FBF0F000F0B1FEF5
:1060300040B9102D06D200222946501E00F036F835
:10604000356000E00124204670BD000004000020FF
:10605000100000200D4808B5016841F000410160C2
:10606000016801F000410091011F0A6842F001023D
:106070000A60096801F001010091016841F0805156
:106080000160006800F08050009008BD2438024094
:10609000002809DB00F01F02012191404009800027
:1060A00000F1E020C0F8001170470000F0B40E4B82
:1060B0001B68C3F30223C3F10704042C00D9042492
:1060C0001D1D072D01D2002300E0DB1E012606FA6C
:1060D00004F56D1E0D409D409E40761E164045EA1B
:1060E0000601F0BC03F041BA0CED00E0064A00F0F6
:1060F000070110684FF6FF03184040EA01200349EA
:1061000008431060704700000CED00E00000FA0545
:106110002DE9F84F04460078C0077DD0444F002594
:106120003868C00008D4386840F08050386038685B
:10613000012500F0805000903E480168C90511D447
:106140000168804641F480710160FFF743FF064615
:1061500004E0FFF73FFF801B642843D8D8F8000015
:10616000C005F6D5DFF8C890A9F12409D9F80000D8
:1061700000F0C041606800F0C0428A420AD0C0F31B
:106180000141032906D1D9F80010890302D5012065
:10619000BDE8F88FDFF8988008F11008D8F80010F3
:1061A00011F4403124D000F44030884220D02078CF
:1061B000C0071DD0D8F800001F4A012320F440304A
:1061C000136000231360C8F80000C00510D5FFF766
:1061D00001FF064641F2883A06E0FFF7FBFE811B0D
:1061E000514501D90320D3E7D8F800008005F4D544
:1061F0006068C0F30141032908D1D9F8002000F0FC
:10620000C04022F0C0420243C9F80020D8F8001074
:10621000626802F4403200E007E01143C8F8001061
:106220001DB1386820F0805038600020B0E70000D1
:106230002438024000700040DC0647422DE9F04758
:106240000E46040076D0DFF88081D8F8000000F018
:106250000100B04214D2012E05D1D8F8001041F04F
:106260000401C8F80010D8F8001021F001013143F2
:10627000C8F80010D8F8000000F00100B0427DD14D
:106280002078524F800705D53868A16820F0F000CB
:10629000084338602078C00759D04C4960680839F5
:1062A00002281AD003281BD0096801281BD08905B1
:1062B000002963DA396821F0030101433960FFF7EF
:1062C00089FE0546606841F28831022813D0032810
:1062D0001ED00128894627D035E009688903E7E701
:1062E00009688901E4E78907E2E7FFF773FE411BCC
:1062F000494501D924E089463868C0F38100022865
:10630000F3D124E0FFF766FE411B494501D917E0B0
:1063100089463868C0F381000328F3D117E0FFF7FE
:1063200059FE411B49450BD83868C0F3810001284C
:10633000F5D10CE022E0FFF74DFE411B494502D9A3
:106340000320BDE8F087386810F00C0FF3D1D8F8BF
:106350000010404601F00101B14211D9012E03D1D4
:10636000016841F004010160016821F0010131433D
:106370000160006800F00100B04201D00120E0E7B8
:106380002078400705D53868E16820F4E0600843CC
:1063900038602078000706D53868216920F46050FD
:1063A00040EAC100386000F039F83968084AC1F3A2
:1063B0000311515CC8400749086007480068BDE800
:1063C000F047FFF725BE0000003C024008380240BD
:1063D000B39C000810000020040000200448054978
:1063E00000680968044AC1F30221515CC840704743
:1063F0001000002008380240C39C000804480549EA
:1064000000680968044AC1F3C221515CC840704762
:106410001000002008380240C39C0008134A10688E
:1064200000F00C0104290CD008290CD00C290CD048
:10643000101F0068C0F342314FF40040491C8840EF
:1064400070470B4870470B4870470B49C0F38343B4
:106450001268C95CC0F38150401CD20301D5054AC3
:1064600000E0034A5143B1FBF0F0704708380240A6
:106470000024F40000127A00AA9C00082DE9F84FCD
:1064800004007BD0F6480168006801F00C0600F4B7
:10649000803B2078F34DC0073FD0082E12D00C2E41
:1064A00002D1BBF5803F0DD06068012811D008B142
:1064B000052818D0286820F480302860286820F447
:1064C000802009E02868800327D560680028D8D09C
:1064D00023E0286840F480302860606888B1FFF7C6
:1064E00079FD074609E0286840F480202860F0E73D
:1064F000FFF770FDC01B642879D828688003F7D5A2
:106500000BE0FFF767FD074604E0FFF763FDC01BE4
:106510006428F1D828688003F7D42078DFF848830E
:1065200080074FF001094FF0000A36D5042E0CD039
:106530000C2E02D1BBF1000F07D0E068F8B1C8F80B
:106540000090FFF747FD07460BE0286880070BD552
:10655000E068012812D107E0FFF73CFDC01B0228CC
:10656000CAD828688007F7D5BD48001F016822698E
:1065700021F4F85141EA022101600EE06CE1C8F813
:1065800000A0FFF727FD074604E0FFF723FDC01B2F
:106590000228B1D828688007F7D42078C00672D5C1
:1065A0003EB1A069F0B3C8F82090FFF713FD07468D
:1065B0004AE02868800502D5A069002887D0A84F46
:1065C000206A3F1F396801F46041884210D900F009
:1065D00089FF0028BED13868216A20F46040084352
:1065E0003860217F386861F31F6038600FE0A4E0F5
:1065F000396821F4604101433960217F386861F3D3
:106600001F603860206A00F06DFF0028A2D1216A67
:106610004FF4004009EB5131884091490968C1F3BA
:10662000031100E021E0914A515CC84090490860A4
:1066300090480068FFF7ECFC00287DD123E0FFF7CD
:10664000C9FCC01B022878D828688005F7D5844883
:10665000001F0168226A21F4604111430160227F1A
:10666000016862F31F6101600DE0C8F820A0FFF728
:10667000B1FC074604E0FFF7ADFCC01B02285CD864
:1066800028688005F7D420787B4F000721D57B4808
:10669000616979B1C0F80090FFF79CFC834605E082
:1066A000FFF798FCA0EB0B00022846D8386880075B
:1066B000F6D50EE0C0F800A0FFF78CFC834605E09D
:1066C000FFF788FCA0EB0B00022836D8386880075B
:1066D000F6D4207840076AD500200090664810382C
:1066E0000068C0000AD464481038016841F0805145
:1066F0000160006800F0805001200090604801684F
:10670000C90511D4016841F480710160FFF762FC92
:10671000834605E0FFF75EFCA0EB0B0064280CD875
:1067200057480068C005F5D5A06801280DD008B10C
:10673000052814D0386801E075E073E020F480701B
:106740003860386820F4806002E0386840F4807077
:106750003860A068A0B1FFF73DFC83460CE03868C4
:1067600040F480603860F0E7FFF734FCA0EB0B01E9
:1067700041F28830814255D838688005F4D50EE062
:10678000FFF728FC834607E0FFF724FCA0EB0B0192
:1067900041F28830814245D838688005F4D40098A9
:1067A00028B135481038016821F080510160606AD5
:1067B00090B30C2E3DD00228504605D0C8F860009A
:1067C000FFF708FC044630E04746C8F86000FFF7D2
:1067D00001FC064604E0FFF7FDFB801B022821D8E0
:1067E00028688001F7D4D4E90A1001431C48226BC1
:1067F000036823F47D031A4311430160C7F86090D6
:10680000FFF7E8FB044604E0FFF7E4FB001B022867
:1068100008D828688001F7D520E0FFF7DBFB001BD4
:10682000022802D90320BDE8F88F28688001F4D43B
:1068300014E00128F7D00A480068A26A00F4803109
:10684000914209D1E26A00F47011914204D1216BA6
:1068500000F44000884201D00120E4E70020E2E794
:10686000083802400038024000004742B39C00084C
:106870001000002004000020343802408006474207
:10688000007000402DE9F0470446007F01281CD02D
:1068900001262677022060772168CA204862216895
:1068A000532048622068816821F4806181602068FB
:1068B000816821F480418160FFF78CFB0546002749
:1068C0004FF0FF084FF47A790EE00220BDE8F08720
:1068D000FFF780FB401B484506D92168C1F824809A
:1068E000032060772777F1E72068C0684007EFD57D
:1068F0002168C1F82480667727770020E6E700004A
:1069000010B5CF22054906A002F02EF800F07AFC5F
:10691000BDE81040022001F0BDBE0000879C0008C9
:106920005B25735D5B25645D0000000010B50446C7
:106930000068C068400509D52046FFF7E1FF2068E0
:10694000C16801F0800161F49061C16003494FF4B6
:10695000801008600120607710BD00001404014021
:1069600010B5040011D0022084F85100206801689D
:1069700021F040010160204600F042F800206065EF
:1069800084F8510084F8500010BD012010BD70B58E
:10699000040005D00025A56294F8510010B106E06E
:1069A000012070BD84F85050204600F065F80220A8
:1069B00084F851002068016821F040010160D4E9A9
:1069C00001010843D4E903121143084361690843F4
:1069D000218B01F400710843E1690843216A0843EF
:1069E000A16A084321680860A069042101EA1040F7
:1069F000216848606565012084F85100002070BD61
:106A000010B50068174988420FD11748016821F472
:106A100080510160154C20212046FFF763F9802149
:106A20002046FFF75FF9402115E01149884217D150
:106A30000D48001D016821F4804101600D4C4FF4A8
:106A400000512046FFF74EF94FF400412046FFF772
:106A500049F94FF480412046BDE81040FFF742B9A4
:106A600010BD00000030014020380240000002400C
:106A700000380040000402402DE9F04387B004468E
:106A800014216846FDF76BFB464920680025464CFB
:106A9000032605274FF00208884238D1201D0168DF
:106AA00041F480510160006800F480500590206836
:106AB00040F001002060206802AA00F0010005906B
:106AC0002020CDE90008DFF8E49082E8E000694684
:106AD0004846FFF7ABF9206840F0010020602068CD
:106AE00002AA00F0010005908020CDE9000882E8AC
:106AF000E00069464846FFF799F9206840F0010038
:106B00002060206800F00100059040203EE0284908
:106B1000884244D124480830016841F48041016032
:106B2000006800F480400590206840F0020020607A
:106B3000206802AA00F0020005904FF40050CDE951
:106B40000008DFF8709082E8E00069464846FFF7E9
:106B50006DF9206840F002002060206802AA00F071
:106B6000020005904FF40040CDE9000882E8E00003
:106B700069464846FFF75AF9206840F00200206055
:106B8000206800F0020005904FF48040CDE9000835
:106B900002AA694682E8E0004846FFF747F907B0D5
:106BA000BDE8F083003001401C3802400000024084
:106BB00000380040000402402DE9F84F044690F8E8
:106BC000500001250A9E1F4692468B464FF0000852
:106BD00001280ED0012084F85000FFF7FBF9814610
:106BE00094F85100616801280CD0B1F5827F07D17B
:106BF00002E00220BDE8F88FA16809B9042801D09D
:106C00000220B6E0BBF1000F27D0BAF1000F24D06C
:106C10001FB394F85100042802D0052084F85100D5
:106C200000206065C4F838A0E787A787C4F830B0B3
:106C3000E786A7862064606420680168490603D45B
:106C4000016841F040010160E068B0F5006F6068E4
:106C500005D0E8B3012F43D079E0012089E008B1E5
:106C6000012F34D1206B21680088C860206B801C04
:106C70002063E08E401EE08629E020688168890755
:106C80000DD5E18E59B1012D09D1216B0988C16063
:106C9000206B801C2063E08E401EE086002520686B
:106CA0008168C9070BD0E18F49B1C068A16B08802A
:106CB000A06B801CA063E08F401EE0870125FFF7DA
:106CC00089F9A0EB0900B04201D3701C50D100E05B
:106CD00006E0E08E0028D0D1E08F0028CDD13CE046
:106CE000206B216800780873206B401C2063E08EC5
:106CF000401EE0862BE02068816889070DD5E18E73
:106D000059B1012D09D1216B09780173206B401C09
:106D10002063E08E401EE086002520688168C90758
:106D20000BD0E18F49B1C068A16B0870A06B401C0B
:106D3000A063E08F401EE0870125FFF74BF9A0EB31
:106D40000900B04202D3701C01D011E086B1E08E80
:106D50000028D0D1E08F0028CDD14A4631462046C8
:106D600000F054FC38B120204FF00108606508E0C5
:106D70000320804605E0A06818B92068C1688068D3
:106D80000090012084F85100002084F85000404613
:106D900030E710B5401EB0F1807F01D3012010BD57
:106DA0004FF0E02460610F21601702F0DEFB00204D
:106DB000A06107202061002010BD70B5044690F846
:106DC00038000D4601280DD0012684F838600220D5
:106DD00084F8390042B1042A18D0082A2AD00C2A93
:106DE0004DD139E0022070BD206801F0DEFB206843
:106DF000816941F0080181612068816921F0040105
:106E0000816120688169EA68114311E0206801F01E
:106E1000E2FB2068816941F4006181612068816939
:106E200021F48061816120688169EA6841EA022178
:106E3000816124E0206801F0E6FB2068C16941F02F
:106E40000801C1612068C16921F00401C1612068A5
:106E5000C169EA68114311E0206801F0EBFB20688A
:106E6000C16941F40061C1612068C16921F4806198
:106E7000C1612068C169EA6841EA0221C16184F800
:106E80003960002084F8380070BD10B50446022037
:106E900084F839002068016A41F21112114203D1CD
:106EA000016821F001010160204600F021F8002076
:106EB00084F8390084F8380010BD10B5040003D000
:106EC00094F8390010B107E0012010BD002084F8CB
:106ED0003800204600F020F8022084F83900211DF7
:106EE000206801F01BFB012084F83900002010BD50
:106EF0000068B0F1804F09D10548016821F0010117
:106F000001604FF400410348FEF7ECBE70470000FB
:106F1000243802400000024010B586B00446142117
:106F20006846FDF71CF92068B0F1804F21D1124866
:106F3000016841F001010160006800F00100059066
:106F40000D480838016841F0010101600068694698
:106F500000F0010005904FF40040009002200190E5
:106F60000020029003200390012004900348FEF7C4
:106F70005DFF06B010BD0000243802400000024052
:106F800010B504460068012201F002FB2068816808
:106F900001F00701062903D0016841F001010160F9
:106FA000002010BD70B5040004D094F8390000250D
:106FB00010B106E0012070BD84F83850204600F082
:106FC00023F8242084F839002068C16821F4005196
:106FD000C160204601F008FC2068016921F490415D
:106FE00001612068416921F02A0141612068C1687E
:106FF00041F40051C160E563202084F8390084F831
:107000003A00002070BD000010B586B0044614217F
:107010006846FDF7A4F81349206888421FD112483A
:10702000016841F480410160006800F480400590EF
:107030000D48001F016841F0020101600068002155
:1070400000F002000590402000900220CDE90101EF
:1070500003900720049069460448FEF7E7FE06B057
:1070600010BD0000003801402038024000040240FA
:10707000704700002DE9F05F032858D059DC5249D1
:10708000524C534E4FF000054FF001074FF06A0885
:107090004FF008094FF0F00A4FF0FF0B01285CD0C9
:1070A000022844D164224F6011460120FDF7ECF91B
:1070B000012001F01BF9022000F0B8FD6570308856
:1070C000A11C00F0BBF9B079FEF768FDE07084F810
:1070D00004806771A57184F8079084F808A03420B3
:1070E0006072A5723088010AE172207384F80DB0D5
:1070F000CA20A073E57325740D21201D02F016FA35
:10710000000A60740D21201D02F010FAA0741221F3
:10711000601CFEF7F5F9002000F088FD012001F069
:1071200027FB0821122001F057F92A480575BDE810
:10713000F09FA0F58070033831D0B0F5606FF6D1C4
:10714000BFF34F8F24480168244A01F4E0611143E2
:107150000160BFF34F8F00BFFDE764220F6011464F
:107160000120FDF791F9012001F0C0F8022000F0A4
:107170005DFD65703088A11C00F060F9B079FEF704
:107180000DFDE07084F804806771A57184F80790A4
:1071900084F808A0332060728020A072A2E7002348
:1071A0001A46FF211846FEF7D9F800231A46FF2198
:1071B0000120FEF7D3F8BDE8F05F0023FF211A4657
:1071C0000220FEF7CBB80000AC000020B435002050
:1071D00060010020B83700200CED00E00400FA0543
:1071E000182102A001F09AFBFAE700002E2E5C5550
:1071F0007365725C73746D33326C3178785F697467
:107200002E63000010B51048FFF73CFB0F484168A3
:10721000C943C90703D1016841F004010160416815
:10722000C943890703D4016841F008010160084C93
:10723000A078012807D101F0DDF80020A070BDE89A
:107240001040FEF737BC10BD382900200070004008
:10725000B8000020FEE7704710B548B1FF210120BB
:1072600000F0A0FCBDE810404FF4FA6000F022BD31
:107270000122BDE810401146104600F0FDBF00009D
:107280002DE9F0411F4C2148012323701E4D028837
:10729000284629781E4F40780026B1EB122F07D1DF
:1072A000D2B2824204D13E70012240F6B83110E0E1
:1072B000FF2901D1FF2809D001222670114610466E
:1072C00000F0DAFFBDE8F04100F04CB801223B705D
:1072D0001146012000F0D0FF0E48007820280CD085
:1072E0001F280DD1A878FF280AD12670BDE8F041EB
:1072F00001221146104600F0BFBFA878FF28F4D144
:10730000BDE8F0819A000020B8360020600100201E
:10731000A00000209829002010B505A001F024FB52
:107320000122BDE810401146104600F0A5BF000044
:107330007278206572726F720D0A000010B505A098
:1073400001F012FB0122BDE810401146104600F08A
:1073500093BF000072782074696D656F75740D0AB3
:107360000000000070B5174800258179012903D17C
:1073700085718188491C8180134C2078552802D161
:10738000FEF788F925701148007810B91048006898
:1073900078B1012080F31088BFF34F8F0D4801684A
:1073A0000D4A01F4E06111430160BFF34F8F00BF4C
:1073B000FDE7FF21012000F0F5FBBDE87040002053
:1073C00000F078BC4400002014000020A40000203D
:1073D000780100200CED00E00400FA0501221146BE
:1073E000104600F049BF10B5002307E000EB43044E
:1073F000248864BA21F813405B1CDBB29342F5D3B6
:1074000010BD098849BA0180704730B5002308E0F3
:10741000C45CCD5C03F10103AC4201D0D8B230BDF5
:10742000DBB29342F4D3002030BD00000248018853
:10743000491C01807047000002000020020A0A7007
:107440004870704770B506462420FEF76DFA002498
:107450000025112E30D2DFE806F02F090B0D0F1298
:10746000171A1D2A2F2F2F2F2F2F3C00FF2021E02E
:1074700000201FE0AA201DE0E007F9D0F6E7082D64
:1074800005D2942CF4D2F1E7082DF1D2EEE7942C3A
:10749000EED3EBE7002CEBD0A4F580702738E7D0D3
:1074A0001DB10F2DE2D1FE2004E07F2002E0E007B5
:1074B000E0D15520FEF75AFA6D1C102DC9D3641C7B
:1074C000B4F5947FC4D302F057FBBDE87040FEF7DB
:1074D000D9BA681F0528C9D8622CC9D9C42CC7D20B
:1074E000C4E7704738B51C4A002112681B4C12F0E3
:1074F000F00F23D1184A1C321368DD00184B03D556
:107500001A6802F4C0530EE0156845F08055156006
:10751000156805F0805500951B68156803F4C05385
:1075200025F080551560B3F5C05F07D1B0F5404F29
:1075300004D12068012140F004002060206820F080
:10754000010008432060206800F00100884201D05B
:10755000012038BD002038BD08380240003C024000
:107560000070004010B5C922044905A001F0FCF9E3
:10757000BDE810400548FFF7D9B90000739C00082A
:107580005B25735D5B25645D0000000038290020E9
:1075900010B5092000F0BEFE0446062000F0BAFE39
:1075A000072000F0B7FE082000F0B4FE00210920FB
:1075B00000F012FF3B2000F0ADFE40F040013B2008
:1075C00000F00AFF3B2000F0A5FE8006FAD40D482B
:1075D00000F0C8FA3B2000F09DFE40F040013B2047
:1075E00000F0FAFE3B2000F095FE8006FAD421461A
:1075F000092000F0F1FE04488078BDE81040FDF756
:1076000033BF000000A1BC336001002038B5044640
:107610004068B0F5827F04D094F85100052805D069
:1076200012E000920B460022802103E000920B46FC
:1076300000220121204600F009F828B1606D40F0D9
:1076400020006065032038BD002038BD2DE9F041E1
:107650001D4617460E460446DDF8188008E0681CF3
:1076600006D0FEF7B7FCA0EB0800A8420BD255B13C
:107670002068806836EA000030D00020B842EED1A1
:107680000020BDE8F0812068416821F0E001416000
:107690006068B0F5827F0BD1A068B0F5004F02D0D2
:1076A000B0F5806F04D12068016821F040010160CD
:1076B000A06AB0F5005F09D12068016821F400518B
:1076C00001602068016841F400510160012084F8E4
:1076D0005100002084F850000320D2E70120CDE7BC
:1076E00070470000F0B58BB000F042F81B4E1CA0B4
:1076F000B17801F039F9B078FDF7B6FE012000F05D
:107700005BFA562000F080FC00244FF4FA700594D8
:107710000694CDE907400125FA27CDE90157072056
:107720000090CDE9034596F90A1002232246284627
:1077300000F0AEFCCDE90845680307940694CDE956
:107740000204CDE90445CDE90047012307220221C7
:10775000184600F071FB0BB0F0BD00006001002086
:107760004C6F7261206E657463683A256400000096
:1077700070B5012241F28834174B2146104600F0C3
:10778000BFFF154B01222146022000F0B9FF124B2A
:1077900001224FF47A71032000F0B2FF00F072FA78
:1077A000FFF7F6FE002000F041FA0C4E002404EB37
:1077B0004405705D00F000FAA8198178407800F067
:1077C0000BFE641CE4B2102CF1D3012000F0F4F99C
:1077D00003490020087570BDF9790008B0B60008AB
:1077E000B8370020F8B500268DF800604C4F387D82
:1077F000012811D002287AD003287DD13E7500F0EF
:10780000B7FF122000F086FDC0077FD005211220AF
:1078100000F0E2FD01207EE04021122000F0DCFDBE
:10782000122000F077FD8DF800009DF80000800622
:107830000ED52021122000F0CFFD97F8660000B988
:107840003E75022000F094FFBDE8F840FFF764BDEC
:10785000192000F05FFD334DE860192000F05AFD5B
:1078600040B287F87000010605D5C043401CC0F344
:107870008500444201E0C0F385041A20EC6000F06A
:1078800049FD2949BA69002C06DA00EB20108A422A
:10789000204405D99D3804E08A4200EB2010F9D835
:1078A000A438A7F87200E860132000F033FD87F8D1
:1078B00074001020663700F02DFD01460D2000F009
:1078C0008BFDB97B194800F0C3F817F8660900B9B9
:1078D0003E75022000F04CFF17F9703F1348B7F9CE
:1078E0000220397901B0BDE8F040FFF7C9BC0120A2
:1078F00000F03EFF082101E011E007E0122000F057
:107900006BFD3E75BDE8F840FFF72CBD0421122049
:1079100000F062FD0020BDE8F840FFF79DBCF8BD17
:10792000B83700201801002040DD4A1FB83600207B
:107930002DE9F0412D4D287D01282DD02C4E4FF002
:10794000000802282CD003284DD12AA001F00CF801
:1079500000F098F9FFF71CFE002000F067F9002402
:1079600004EB4407F05D00F027F9B81981784078FE
:1079700000F032FD641CE4B2102CF1D3012000F0C1
:107980001BF995F86C0000F069F985F81480BDE8E2
:10799000F0410020FFF760BCBDE8F041FFF7CEBC2E
:1079A00000F070F9FFF7F4FD002000F03FF900242B
:1079B00004EB4407F05D00F0FFF8B81981784078D7
:1079C00000F00AFD641CE4B2102CF1D3012000F099
:1079D000F3F895F86C0000F041F985F81480BDE8E3
:1079E000F041FFF7FBBCBDE8F0810000B837002094
:1079F000B0B60008330D0A000149012088717047B4
:107A0000280100202DE9F041DFF8408015460E46A0
:107A100004464FF48077002239464046FEF7D5FAF7
:107A200004F07F0000F042FC002405E0002000F09C
:107A30003DFC3055641CE4B2AC42F7D339464046B5
:107A4000BDE8F0410122FEF7C0BA0000000002408C
:107A50000A4601460020FFF7D5BF00002DE9F0419E
:107A60002B4C80460E46A078FDF706FD294F386066
:107A7000A078FDF701FD00F075F8274DA17827A04B
:107A8000AA6900F071FF95F86500012821D0332024
:107A900000F040FC00F0BE013320491C00F09CFCCB
:107AA0001D213B2000F098FC85F8746031462220AF
:107AB00000F092FC00210E2000F08EFC00210D2031
:107AC00000F08AFC012000F025FC30F0F8000CD01A
:107AD00015E001207860332000F01CFC00F0BE01AE
:107AE000332000F079FC1921DBE700F07DFA01205A
:107AF00002F024F840F213210DA000F035FF3146CA
:107B0000404600F0A3FBA86EBDE8F04100F080BA4B
:107B10006001002018010020B837002063683A2077
:107B2000256409C6B5C2CA2069732025640D0A0000
:107B300025640D0A00000000032802D00120FFF791
:107B400097BA0020FBE7000005490A78824206D078
:107B5000087010B10020FFF78BBA0120FBE77047D7
:107B6000380100200D4910B58861FCF779FB00222F
:107B70000B4BFCF706FBFCF780FB0446C0F3074108
:107B8000062000F029FCC4F30721072000F024FCA4
:107B9000E1B2BDE81040082000F01EBCB83700205C
:107BA00080844E4010B50C4600F006F82146BDE832
:107BB0001040232000F010BC10B50446012000F056
:107BC000A9FB1949000601D5012000E000204875F5
:107BD000C0B2A04226D04C75012C0FD000F0F4F9B1
:107BE000012000F097FB00F07F01012000F0F4FB82
:107BF0000021402000F0F0FB30210EE000F0E4F91D
:107C0000012000F087FB40F08001012000F0E4FB40
:107C10000021402000F0E0FB0021BDE810404120A1
:107C200000F0DABB10BD0000B837002010B504002A
:107C300010D00020FFF788FF2046FFF77DFF0120CE
:107C400000F068FB00F0F8012143BDE8104001207E
:107C500000F0C2BB0120FFF777FFF0E710B5044644
:107C60000120FFF7A9FF064880F86C400CB13421D1
:107C700000E01221BDE81040392000F0ADBB00004B
:107C8000B837002070B50A4D4FF400640022214639
:107C90002846FEF79AF9012001F050FF0122214603
:107CA0002846FEF792F9BDE87040062001F046BF75
:107CB0000004024070B55E4C054634F85E0F010AC0
:107CC000202000F089FB2178212000F085FBE0795D
:107CD0005E3C01284FF0330025D000F01BFB00F084
:107CE000BE013320491C00F077FB1D213B2000F032
:107CF00073FB606D09284FF031007DD200F00AFB64
:107D000000F07F01312000F067FB0021302000F0FF
:107D100063FB606D092846D2DFE800F00E161E26D0
:107D20002E364141410000F0F5FA40F04101332088
:107D300000F052FB1921D9E748212F2000F04CFB1D
:107D400041F68261A06926E044212F2000F044FB27
:107D500042F6B401A0691EE044212F2000F03CFB54
:107D600043F60451A06916E044212F2000F034FBB3
:107D700045F25E11A0690EE044212F2000F02CFB9B
:107D800047F61221A06906E044212F2000F024FBD1
:107D9000A0694AF2C6210844FFF7E4FE03E040214F
:107DA0002F2000F019FB94F8630094F86660012816
:107DB0002ED00F21112000F00FFB402000F0AAFA76
:107DC00000F03C014020491C00F006FB00210F2080
:107DD00000F002FB00210D2000F0FEFA4FF480714C
:107DE0001448FCF7BCF90120207545B12946022052
:107DF00000F068FC022000E004E000F077FA96B1A1
:107E0000052011E000F086FA40F080013120C8E73B
:107E10000D21112000F0E0FA402000F07BFA00F084
:107E200033014020D0E70620BDE87040FFF7FEBEDA
:107E3000B8370020B83600202DE9F05F9946DDE91B
:107E40000CB614460D46DDF83CA00B9FFFF7B4FEC0
:107E5000032D00D9FEE702D14FF0060501E005F140
:107E60000705DFF85C810C2C4046E0E9155480F8EA
:107E70000990478106730E99417380F80EA01099FE
:107E8000C1731199017412994174139988F866109D
:107E900001D90C2402E0062C00D20624072D01D0C3
:107EA000062D03D10B2C49D00C2C47D0082D01D125
:107EB0000C2C43D0002188F85C101D2000F02AFA19
:107EC000290141EA49003043C1B21D2000F084FA83
:107ED0001E2000F01FFA00F0080040EA041141EAF9
:107EE0008A00032202EA1B210843C1B21E2000F0CF
:107EF00073FA262000F00EFA00F0F70198F85C0003
:107F000041EAC000C1B2262000F066FA0BF0FF0182
:107F10001F2000F061FA390A202000F05DFAF9B262
:107F2000212000F059FA1EB122200E9900F054FAD7
:107F300098F863004646012802D00EE00121BAE716
:107F4000442000F0E7F940F08001442000F044FABA
:107F500096F86410242000F03FFA092D15D0032173
:107F6000362000F039FA062C4FF031001ED000F018
:107F7000D1F900F0F8013120C91C00F02DFA0A21D6
:107F8000BDE8F05F372000F027BA0E49B06988429B
:107F90004FF002014FF0360003D900F01DFA6421C2
:107FA00002E000F019FA7F213A20DAE700F0B2F996
:107FB00000F0F8013120491D00F00EFA0C21DFE736
:107FC000B837002040DD4A1F10B5022000F0D0FB7A
:107FD000012000F0CDFB0020FFF728FE0149002022
:107FE000087510BDB837002010B5022000F0C0FBA6
:107FF000012000F0BDFB0120FFF718FE0149002021
:10800000087510BDB83700200146392000F0E4B9EA
:1080100010B50146012000F055FB0021202000F0A2
:10802000DBF90621212000F0D7F9174C94F8630002
:1080300001281ED0F721112000F0CEF9402000F0D9
:1080400069F900F03F0040F04001402000F0C4F921
:108050000220207500F08CFB032000F089FB01203A
:1080600000F044F90320FFF7E1FD08490120886092
:1080700010BDF521112000F0AFF9402000F04AF9C1
:1080800000F03300DFE70000B837002018010020BF
:108090002DE9FF5F1D4612ABDDE90E49DDE91068F1
:1080A00093E8800CFFF788FD019800F03BF9032D61
:1080B00000D9FEE702D14FF0060501E005F1070502
:1080C000444851460C2CC0E9155480F85D90A0F846
:1080D0005E6080F8608080F863A080F864B080F80B
:1080E0006270159A80F86520169A826601D90C2470
:1080F00002E0062C00D20624072D01D0062D03D164
:108100000B2C0CD00C2C0AD0082D01D10C2C06D035
:10811000002280F85C208246012902D00EE0012274
:10812000F7E7442000F0F6F840F08001442000F02A
:1081300053F99AF86410242000F04EF91D2000F045
:10814000E9F8290141EA490040EA0800C1B21D20CE
:1081500000F042F91E2000F0DDF800F00B0040EACC
:10816000041040EA8700C1B21E2000F035F9262035
:1081700000F0D0F800F0F7019AF85C0041EAC00086
:10818000C1B2262000F028F9310A202000F024F99D
:10819000F1B2212000F020F9062C4FF031000ED072
:1081A00000F0B8F800F0F8013120C91C00F014F913
:1081B0000A2104B03720BDE8F05F00F00DB900F0EF
:1081C000A9F800F0F8013120491D00F005F90C2153
:1081D000EFE70000B837002070B5094CE0780025C3
:1081E00000B1E570207810B12570FFF7FBFAA07997
:1081F000002804D0A571BDE87040FFF799BB70BDA1
:10820000280100202DE9F041DFF83C8015460E469C
:1082100004464FF48077002239464046FDF7D5FEEC
:1082200044F0800000F042F8002404E0305D00F0EB
:108230003DF8641CE4B2AC42F8D339464046BDE890
:10824000F0410122FDF7C1BE000002400A4601468E
:108250000020FFF7D7BF000010B50121054800F04E
:108260001DF9012805D001F0C5F9BDE8104000F066
:108270001FB810BDFC00002030B50B4C002303EBF1
:10828000430514F83550854204D05B1C13F0FF03FE
:10829000F5D0FF23FF2B06D003EB430004EBC00017
:1082A00041608160828130BD00010020FDF75CB932
:1082B00070B50D48002645686C690FE0607A60B1C2
:1082C000E068401CE0606168884206D3E66020698F
:1082D00000B18047207A00B166726469002C01D039
:1082E000002DEBD170BD00003001002010B5044618
:1082F00000F0F6F9064801224068416904E0087878
:10830000A04200D14A7249690029F8D110BD00008D
:108310003001002008B501226946FFF773FB9DF884
:10832000000008BD2DE9F04104460920FFF7F2FFE7
:1083300007464D20FFF7EEFF254E05462549B0695B
:10834000884201D2802000E0002007F07F0108432E
:1083500040F0700001062DD5112C02DD45F0070517
:1083600002E005F0F8052D1DE943490703D0022C72
:108370000CDA02240DE0052C01DA052402E0142CAD
:1083800000DD142400F0F001601F05E0112C00DD79
:10839000112400F0F001A01E00F00F00014309209D
:1083A00000F01AF829464D2000F016F886F85040E3
:1083B000BDE8F0814FF0FF318C4201DA0C4602E05B
:1083C0000E2C00DD0E2400F0F001601CE4E700003C
:1083D000B837002040DD4A1F13B5012201A9FFF77D
:1083E00011FF1CBD10B5FFF721F8BDE81040FDF7E7
:1083F000F7BD000030B595B034216846FBF7AFFEFD
:1084000014210DA8FBF7ABFE00241F48129413940F
:10841000016821F4C05141F400610160062001258A
:10842000009002951020CDE903500220CDE9090407
:108430008005CDE90B406846FEF720F818B1812190
:1084400012A000F06BFA0F200D9003200E90A020D8
:10845000CDE90F0400210DA81194FDF7EFFE18B12E
:108460008E210AA000F05AFA4FF48030CDE9125064
:1084700012A8FDF74DFE002803D0942103A000F0C0
:108480004DFA15B030BD0000007000402E2E5C5536
:108490007365725C6D61696E2E6300000A4A038821
:1084A000128823B1934204D99B1A5B4202E00280F6
:1084B00007E0D31A43809BB28B4202D30280002094
:1084C0007047012070470000020000200E4801683C
:1084D00041F4807101600C4908310A680B4B1A4065
:1084E0000A6002680A4B1A400260026822F4802285
:1084F0000260086820F47D0008600020091D086003
:108500000549044808607047003802400CC0FF88E5
:10851000FEFFFEEE0040000808ED00E070B50268C6
:108520004FF08046154C164DB04203D0A04201D00A
:10853000A84205D122F070034A681A43B0420CD019
:10854000A0420AD0A84208D00E4B984205D00E4B4C
:10855000984202D00D4B984203D122F44073CA686E
:108560001A430B6922F080021A4302608A68C262D1
:10857000096881620121416170BD00000004004072
:108580000008004000080140000C014000100140BC
:1085900010B501F01F010123046A8B409C43046263
:1085A000036A8A401343036210BD30B5026A22F0A9
:1085B00001020262036A4468826922F073050A6854
:1085C0002A4323F002058B6844602B43826149688B
:1085D0004163036230BD30B5026A22F010020262CC
:1085E000036A426884690D6824F4E64444EA052479
:1085F0008D6823F0200343EA0513426084614968D3
:108600008163036230BD30B5026A22F48072026277
:10861000046A4368C26924F4007422F073050A688E
:108620002A438D68436044EA0524C2614968C163F6
:10863000046230BD30B5026A22F480520262036ADD
:108640004268C4690D6824F4E64444EA05248D6850
:1086500023F4005343EA05334260C461496801646E
:10866000036230BD70B50A4D002404EB440005EBF5
:108670008001487830B1FF2801D000204870D1E94E
:1086800001018847641CE4B2052CEED370BD0000E4
:10869000C00000200A4A002101EB410312F82330F8
:1086A000834204D0491CC9B20529F5D3FF21FF2913
:1086B00005D001EB410102EB8101012048707047B8
:1086C000C0000020054A526803E01378834200D1BD
:1086D00051605269002AF8D1704700003001002033
:1086E000064900224968496904E00B78834200D1B9
:1086F000CA6049690029F8D17047000030010020A4
:108700002DE9F047194C8846074621780120994603
:108710001646002531B92070182001F067FA606014
:1087200000B14561182001F061FA00281BD00770E4
:10873000C0F8048006724572C0E903594561636858
:108740005A69114604E00C78FEB2B4420BD0496974
:108750000029F8D112B9586104E00A46516900298C
:10876000FBD150614561BDE8F08700003001002079
:10877000064900224968496904E00B78834200D128
:108780004A7249690029F8D1704700003001002081
:108790002DE9F0410025134F2E4605EB450007EB70
:1087A000C004607801280DD1A089C0B1A0F57F4137
:1087B000FF390DD0401EA0816670D4E904018847BE
:1087C000A06860606D1C15F0FF05E6D0BDE8F08183
:1087D000A06860606670D4E904018847F2E76670BB
:1087E0006660EFE7000100202DE9F04104460068D3
:1087F0000169E26821F4405111430161A1682069D7
:10880000E26901436069104301432068C26849F28C
:108810000C639A430A43C26020684169A26921F44B
:10882000407111434161E16964253226B1F5004F81
:108830003848216804D081423DD1FDF7DFFD3CE09E
:10884000814202D1FDF7DAFD01E0FDF7C7FD00EB43
:10885000C00101EB001160686FF0180C4000B1FB23
:10886000F0F3B3FBF5F3B1FBF0F7B1FBF0F203FB70
:108870000CF307EB830306EBC303B2FBF5F2B3FB88
:10888000F5F3120103F0F80302EB4302B1FBF0F33E
:10889000B1FBF0F0B0FBF5F000FB0CF003EB800057
:1088A00006EBC000B0FBF5F000F0070021681044B3
:1088B0008860BDE8F081FDF791FD00EBC00101EBA0
:1088C000001160686FF018078000B1FBF0F2B2FB96
:1088D000F5F2B1FBF0F37A4303EB8202B1FBF0F364
:1088E00006EB0212B2FBF5F2B3FBF5F302F0F00275
:1088F00002EB0312B1FBF0F3B1FBF0F0B0FBF5F0CB
:10890000784303EB800006EB0010B0FBF5F000F0BD
:108910000F00CBE700380140FEE7000010B50A4623
:10892000014605A000F020F80BA000F01DF8BDE8FE
:1089300010400BA000F018B80D0A204572726F723B
:108940002048616E646C6572202573206C696E65C9
:108950002025640D0A0000000D0A200D0A00000009
:108960000D0A20200D0A00000FB4054B10B503A915
:10897000044A029800F0ACFE10BC5DF814FB000045
:10898000419B00083C0100200FB4084B10B504A91E
:1089900002AA039800F09CFE044602A9002001F000
:1089A000C8F8204610BC5DF814FB0000339B00089B
:1089B000094910B50A7882420DD0087018B1BDE897
:1089C0001040FBF785BDFBF75BFDBDE810400021C3
:1089D0000248FEF7D5BA10BD98000020EC28002010
:1089E0000120FFF7E5BF0020FFF7E2BF10B50F4AF7
:1089F00004464FF08040C2E900010020C2E90204B1
:108A000010611046FEF759FA084960203C310022F7
:108A1000086060084860022088600448FEF7CDF9CD
:108A2000BDE8104000210148FEF7AABAEC2800205A
:108A30002DE9F04100240D4E4FF48E78092511E008
:108A4000C4EBC40000EB841006EB800707F58E71C1
:108A500038464246FBF76AFBD7F83002002803D0BD
:108A6000641CE4B2AC42EBDBBDE8F0819C2A002040
:108A700030B5037817491C46A13B022B0CD845782A
:108A8000A12D09D3C3EB031000EB43106FF0A0023C
:108A900002EB4000284416E0A92C06D14378A12B14
:108AA00003D3793303EB43000FE0B03C472C0ED8DF
:108AB0004078A1280BD3C4EB041202EB4412D72355
:108AC00003EB4202104400EB400001EBC0021046F1
:108AD00030BD000080CF0300054808B5016841F0B3
:108AE00020010160006800F02000009008BD000037
:108AF0001C380240002202210148FDF766BA00003E
:108B000000140240054808B5016841F00201016007
:108B1000006800F00200009008BD00001C38024010
:108B2000002208210148FDF750BA0000000402406D
:108B3000054808B5016841F002010160006800F0D5
:108B40000200009008BD00001C3802400022802175
:108B50000148FDF73ABA000000040240054808B594
:108B6000016841F001010160006800F0010000901F
:108B700008BD00001C38024000224FF4805101481B
:108B8000FDF723BA00000240054808B5016841F02E
:108B900001010160006800F00100009008BD0000C4
:108BA0001C38024000224FF480610148FDF70DBAE5
:108BB00000000240054808B5016841F0020101606B
:108BC000006800F00200009008BD00001C38024060
:108BD00000224FF480510148FDF7F7B9000402402C
:108BE000054808B5016841F020010160006800F007
:108BF0002000009008BD00001C3802400022012126
:108C00000148FDF7E2B90000001402402DE9F043ED
:108C10000024DFF8689087B0264601274FF002084D
:108C200009EB041528688047288903968DE881019F
:108C300069466868FDF7FAF8E8688047641CE4B2A2
:108C4000072CEDD30E48016841F004010160006873
:108C50004FF4005400F0040005900396094D8DE890
:108C6000900169462846FDF7E1F800222146284692
:108C7000FDF7ABF907B0BDE8F0830000CC9C00081D
:108C80001C3802400008024070B51B4D02212846E6
:108C9000FDF796F990B1002404212846FDF790F9DC
:108CA00070B10020154A54EA40004FF000011FD077
:108CB0001388834206D01080518013E00124EBE733
:108CC0000120EFE751884FF6FF73994201D2491C0A
:108CD000518089B205290AD0B1F5FA7F05D0B1F5E6
:108CE0007A7F02D0FCF736FD03E040F4706070BD7F
:108CF0005180002070BD0000000402409000002060
:108D000010B52020FCF710FE0A2000F017FF0248E3
:108D10008178491C817010BD440000200448002166
:108D200081708288012A00D0012181807047000073
:108D30004400002070B50A4D4FF4007421462846C7
:108D4000FDF73EF9074A214690602846FDF738F9BD
:108D5000002804D103490C318878401C887070BD0C
:108D6000000402403800002010B501210948FFF737
:108D700095FB01280CD0074908310888401C80B2B7
:108D80000880022804D38878401C8870002008805E
:108D900010BD00003C00002010B51020FCF7C4FD01
:108DA0000120FCF7E3FD0A2000F0C8FE02488178AC
:108DB000491C817010BD00004400002010B5FCF774
:108DC00001FE0220FEF73EFB0A2000F0B7FE02483B
:108DD0008178491C817010BD4400002010B501212C
:108DE0000948FFF75BFB01280CD007490C310888C4
:108DF000401C80B20880072804D38878401C887003
:108E00000020088010BD00003800002010B50122AD
:108E100011020548FDF7D9F80A2000F08FFE03483B
:108E20008178491C817010BD00040240440000207C
:108E300010B500224FF480710548FDF7C6F80A20EE
:108E400000F07CFE03488178491C817010BD000051
:108E5000000402404400002010B54E20FCF764FDE1
:108E60000020FCF783FD4F20FCF75EFD0120FCF79E
:108E70007DFD2820FCF77AFD02488178491C81702D
:108E800010BD00004400002010B50020FCF7BAF926
:108E900002488178491C817010BD00004400002008
:108EA00010B500F069FE0A2000F048FE0248817803
:108EB000491C817010BD00004400002070B5114EA7
:108EC00005460024002204213046FDF77EF82806DE
:108ED00001D5012200E0002208213046FDF775F897
:108EE0006806050E012204213046FDF76EF8641C69
:108EF000E4B2082CE6D33046BDE8704000220421DD
:108F0000FDF763B800000240054808B5016841F06C
:108F100002010160006800F00200009008BD00003E
:108F20001C380240012210210148FDF74EB8000014
:108F300000040240002210210148FDF746B800005D
:108F400000040240054808B5016841F002010160D3
:108F5000006800F00200009008BD00001C380240CC
:108F6000012220210148FDF730B800000004024032
:108F7000002220210148FDF728B80000000402402B
:108F8000054808B5016841F002010160006800F081
:108F90000200009008BD00001C380240012291022E
:108FA0000148FDF712B800000004024000224FF40F
:108FB00080610148FDF709B8000402402DE9F04343
:108FC0000024154E85B027464FF001084FF00209E6
:108FD00006EB0415286880472889CDE90008CDE90B
:108FE000027969466868FCF721FF641CE4B2032C2F
:108FF000EED30A4C002210212046FCF7E6FF0022A7
:1090000020212046FCF7E1FF002221152046FCF735
:10901000DCFF05B0BDE8F0833C9D00080004024081
:109020002DE9F041C0B00F4680464FF4807168468C
:10903000FBF795F82E480025007850B12D4881792E
:10904000012903D185718188491C818040B0BDE828
:10905000F081294C294EA11C65703088FEF7EEF98D
:109060002748284A30F9721F51600088211DFEF7F9
:10907000E5F9A571E57104F108003A464146C434AA
:10908000FBF754F82049FF1DE7871F200870B088C0
:109090006946FEF7D3F9B079FCF780FD8DF8020040
:1090A0006A208DF8030001208DF80400E28F124938
:1090B000521C100A8DF805008DF80620F0208DF85E
:1090C000070002A8FBF732F8E08F801D81B20DF196
:1090D000030000F02BFAE28F0DF109011144FEF7B5
:1090E000ADF9E08F0B3081B2684600F03CFAADE795
:1090F000A000002044000020B435002060010020C2
:10910000B8370020A4000020982900202DE9F0475E
:1091100086B014216846FBF722F83A48016841F00E
:10912000010101600068374C00F00100241F059028
:10913000206840F0020020602068012200F0020058
:10914000DFF8C490D602059031464846FCF73DFF53
:109150004FF000080225CDE90285012769464846FF
:10916000CDE90067FCF762FE206840F00100206056
:109170002068DFF898A000F001004FF48079059096
:10918000012249465046FCF720FFCDE90285CDE992
:10919000009769465046FCF749FE206840F0010000
:1091A00020602068009600F001000590184ECDE97F
:1091B0000165694650460395FCF738FE00221146CA
:1091C0002820FCF773FF2820FCF762FF206840F09E
:1091D000010020602068694600F0010005906015DC
:1091E0000090CDE9016550460395FCF71FFE002273
:1091F00011461720FCF75AFF1720FCF749FF06B06D
:10920000BDE8F08720380240000402400000024020
:109210000000111070B5154C064685780146201DDA
:10922000FEF7EFF82079FCF7B9FCA071002D1BD1F7
:109230002C4623462A4629462846FCF78FF8234623
:109240002A4600210120FCF789F823462A460021FE
:109250000220FCF783F80649322008703046BDE84A
:1092600070400021FFF7DCBE70BD000060010020EF
:10927000B4350020FFF7DCBB2DE9FC411D4D044651
:1092800090F802800146281DFEF7BBF82879FCF70C
:1092900085FCA8713125184EB8F1060F0FD00127B3
:1092A000B8F1080F1FD0B8F1090F06D11348357077
:1092B000077000212046FFF7B3FEBDE8FC81E77888
:1092C00094F80480611D01A8FEF79BF8E11D684633
:1092D000FEF797F8BDF80030BDF804204146384647
:1092E000FCF73CF804E00020FBF756FE04488771C9
:1092F0003570DEE760010020B4350020A4000020B6
:10930000440000202DE9F0418846304C07460146D4
:1093100088B0201DFEF775F82079FCF73FFCA0719E
:10932000FBF7A6F9022440E03D193E5D691C05A843
:10933000FEF767F8E91C04A8FEF763F805F10901D8
:1093400006A8FEF75EF806F00F00012802D00528F7
:109350002BD10FE06979BDF81020BDF818000092FC
:109360000B35CDE90150BDF81430FF220020FBF78A
:1093700061FE15E0691D03A8FEF743F8E91D07A883
:10938000FEF73FF8E97ABDF81C00CDE90001BDF811
:109390000C30BDF81020BDF814100020FBF726FE9D
:1093A000BDF8180020440B3084B24445BCD3FBF711
:1093B000CFF907490120887106493520087000213E
:1093C0003846FFF72DFE08B0BDE8F08160010020AF
:1093D00044000020B435002070B50F4D847801465C
:1093E000281DFEF70EF82879FCF7D8FBA87101219B
:1093F0000A48032C07D0092C0CD101700848BDE89D
:109400007040FFF70DBE01700648FAF7B3FE81B257
:109410000448F4E770BD000060010020B43500206E
:1094200008380020629C00082DE9F0411C4D0446DC
:1094300086780146281DFDF7E4FF2879FCF7AEFB8E
:10944000A87130461126174F042815D008280DD0D2
:10945000092823D194F90300A872FEF763FF3E7038
:109460002046BDE8F0410021FFF7DABD0C48E11CC1
:109470000830FDF7C6FFF2E7E11C0948FDF7C1FF20
:109480002888000AFCF78AFBA870FBF72FFF064923
:1094900001208871054955200870E0E7BDE8F0819A
:1094A00060010020B435002044000020140000209A
:1094B00070B5174C05460146201DFDF7A2FF207927
:1094C000FCF76CFB1349A071702008701248012151
:1094D000016000212846FFF7A3FD04230E4A002166
:1094E0000E48FCF797F80E48007800280FD00120AE
:1094F00080F31088BFF34F8F0A4801680A4A01F4CD
:10950000E06111430160BFF34F8F00BFFDE770BD05
:1095100060010020B435002078010020003C0008E4
:10952000A00000200CED00E00400FA0570B5034631
:10953000002041F221044FF6FF7510E013F8012BD3
:1095400080EA02200022060403D584EA400080B2AB
:1095500001E005EA4000521CD2B2082AF3D3491EAA
:1095600089B2EBD270BDFBF7CBBF0907090E00280B
:1095700004DB00F1E02080F80014704700F00F00D9
:1095800000F1E02080F8141D7047FEF725BE0000B2
:10959000024890F80011FEF761BA00004C0200206A
:1095A00010B5FCF717FD084A1168884204D3411A28
:1095B00040F6B833994206D910600146BDE8104024
:1095C00002A0FFF7D1B910BDBC0000204D435520CB
:1095D00052756E6E696E672C207469636B3A2564F0
:1095E000000000000020FFF7D3B870474FF4FA7076
:1095F000FCF75EBA10B500210A4B012401EB4100D3
:1096000003EBC000828942B14268012A02D9521E8E
:10961000426002E0427802B94470491C11F0FF0137
:10962000ECD010BD000100202DE9F047DFF85C9080
:1096300015468846C0F30746C0F30724C7B2002288
:1096400001214846FCF7C1FC0B2000F021F8304610
:1096500000F01EF8204600F01BF8384600F018F81D
:10966000FF2000F015F8002406E0FF2000F010F8BD
:1096700008F80400641CE4B2AC42F6D34846BDE8E6
:10968000F04701221146FCF7A0BC00000004024094
:1096900001B582B04FF47A700090012301AA02A9AB
:1096A0000248FDF789FA9DF804000EBD70280020DD
:1096B00002E008C8121F08C1002AFAD1704770479B
:1096C000002001E001C1121F002AFBD170470000F9
:1096D0002DE9FF4F8DB00F460546002606E02528F0
:1096E0000BD0DDE90F1290476D1C761C28780028FE
:1096F000F5D111B03046BDE8F08F0024A246A14656
:109700000122EC4900E0044315F8013F203B02FA36
:1097100003F00842F7D128782A2810D06FF02F02E2
:109720002878A0F13001092914D80AEB8A0102EB4C
:10973000410144F0020400EB010A6D1CF0E701CF87
:109740005FEA000A03D544F40054CAF1000A44F069
:1097500002046D1C28782E2817D115F8010F44F04B
:1097600004042A280ED06FF02F022878A0F13001CF
:1097700009290AD809EB890102EB410100EB010933
:109780006D1CF2E757F8049B6D1C28786C280FD0ED
:1097900006DC4C2817D068280DD06A2814D104E0C4
:1097A000742810D07A280FD10DE044F400140AE098
:1097B00044F4801401E044F440146978814202D1F9
:1097C00004F580146D1C6D1C2A786E2A1FD00CDCE9
:1097D000632A31D004DC002A8BD0582A11D1A3E0AF
:1097E000642A68D0692A0CD165E0732A2ED004DC83
:1097F0006F2A73D0702A04D19BE0752A6FD0782A23
:109800006ED01046DDE90F129047761C50E1C4F38C
:109810000250022806D0032809D0042801CF09D01D
:10982000066045E101CFF117C0E9006140E101CFD9
:1098300006803DE106703BE117F8040B8DF800004F
:1098400000208DF80100EB46012003E057F804BB2F
:109850004FF0FF3061074FF0000102D40DE008F136
:109860000101884649450FDA8045F8DB1BF80810EE
:109870000029F4D108E008F1010188468142FADBB1
:109880001BF808100029F6D1DDE90F23AAEB080028
:109890008146214600F036F9304400EB080604E02A
:1098A000DDE90F121BF8010B9047B8F10108F7D260
:1098B00021464846F7E00A21C4F302534FF0000B5B
:1098C0000891022B04D001CFC117032B09D00AE065
:1098D000FF1D27F00707F7E8020108E032E01FE06C
:1098E00020E000B2C117042B01D140B2C117031E02
:1098F00071F1000307DA4FF0000CD0EB0C006CEBB9
:1099000001012D2302E0230504D52B238DF82430FB
:10991000012303E0E30701D02023F7E7984658E04E
:109920000A2110E010210EE010204FF0000B0890EB
:109930000CE010214FF0000B44F004044FF0080934
:10994000089103E008214FF0000B0891C4F3025383
:10995000022B04D001CF0021032B06D006E0FF1D0F
:1099600027F00707F7E8020103E080B2042B00D1DB
:10997000C0B24FF0000823072BD5702A07D0DDF8BE
:1099800020C08CF0100C5CEA0B0C05D00EE04023DC
:109990008DF82430012308E050EA010306D030237B
:1099A0008DF824308DF8252002239846DDF820C05C
:1099B0008CF0080C5CEA0B0C0BD150EA010301D1CE
:1099C000630706D530238DF824304FF00108A9F144
:1099D0000109582A04D038A20B9208AA0A920BE077
:1099E0003AA2F9E75B46089AFAF760FC0B9B9B5C8E
:1099F0000A9A521E0A92137050EA0102F2D10A9892
:109A0000ADEB000000F1200B600702D524F4803498
:109A100001E04FF00109D94502DDA9EB0B0000E0A0
:109A2000002000EB0B0141440890AAEB010AE0037F
:109A300006D4DDE90F232146504600F063F80644C2
:109A40004FF0000908E009A911F80900DDE90F123B
:109A5000904709F10109761CC145F4DBE0030CD500
:109A6000DDE90F232146504600F04CF8064404E09F
:109A7000DDE90F1230209047761C0899481E0890A7
:109A80000029F5DC08E00A980A990078491C0A9137
:109A9000DDE90F129047761CBBF10001ABF1010B21
:109AA000F1DC21465046DDE90F2300F019F80644A9
:109AB0006D1C1BE60928010030313233343536374E
:109AC000383961626364656600000000303132330A
:109AD00034353637383941424344454600000000AA
