:020000040800F2
:10000000E8250020090100081B190008A5180008B0
:10001000191900089B0700083D2C0008000000008B
:10002000000000000000000000000000611C00084B
:10003000FD07000800000000811A0008F1280008F0
:10004000230100082301000823010008051B000804
:1000500023010008230100082301000823010008F0
:1000600023010008230100082301000823010008E0
:1000700023010008230100082301000823010008D0
:1000800023010008230100082301000823010008C0
:1000900023010008230100082301000807080008C5
:1000A00000000000230100082301000823010008CC
:1000B0002301000823010008230100082301000890
:1000C0002301000823010008230100082301000880
:1000D0002301000823010008230100082301000870
:1000E000FF0700082301000823010008230100087E
:1000F00023010008DFF80CD000F03EF9004800476B
:10010000A52F0008E825002006488047064800473C
:10011000FEE7FEE7FEE7FEE7FEE7FEE7FEE7FEE7B7
:10012000FEE7FEE7A5290008F500000840EA010304
:100130009B0703D009E008C9121F08C0042AFAD29D
:1001400003E011F8013B00F8013B521EF9D2704761
:10015000D2B201E000F8012B491EFBD27047002209
:10016000F6E710B513460A4604461946FFF7F0FFB6
:10017000204610BD2DE9F04D81EA030404F0004B48
:1001800021F0004514464FF0000A23F0004150EAE8
:10019000050220D054EA01021DD0C5F30A570246D9
:1001A000C5F31303C1F31300C1F30A5640F48015DD
:1001B00043F48013A7EB0608101BD64608F2FD385F
:1001C00073EB050002D308F1010801E092185B41CE
:1001D000B8F1000F03DA00200146BDE8F08D0020E1
:1001E0004FF48011064684460EE0171B73EB05079B
:1001F00005D3121B63EB050306434CEA010C4908C7
:100200004FEA300092185B4150EA0107EDD152EA03
:10021000030012D082EA040083EA0501084305D0F6
:10022000101BAB4106D20122002306E000224FF052
:10023000004302E06FF0010253101AEB06004CEB92
:10024000085110EB0A0041EB0B01BDE8F04D00F046
:1002500036B80EB540F2334102910021CDE90011CC
:100260000A460B4600F03AF803B000BDC1F30A524B
:1002700010B5C1F3130140F2FF3341F480119A42EB
:1002800001DA002010BD40F233439A42A2F2334219
:1002900003DC524200F003F810BD904010BD202A4C
:1002A00004DB203A21FA02F00021704721FA02F320
:1002B000D040C2F12002914008431946704710B562
:1002C000141E73F1000408DA401C41F10001921879
:1002D0005B411A4301D120F0010010BD2DE9F04D22
:1002E00092469B4611B1B1FA81F202E0B0FA80F277
:1002F0002032904600F052F804460F4640EA0A00C9
:1003000041EA0B0153465A46084313D0114653EABB
:10031000010019D0C8F140025046FFF7C0FF054662
:100320000E4650465946424600F038F8084305D07C
:10033000012004E020463946BDE8F08D0020054349
:1003400046EAE0762C4337430A986305E40AA0EBBB
:1003500008000022FD0A44EA47540A3002D5002072
:100360000146E9E7010510196941DDE90845001971
:100370006941BDE8F04DA2E7064C074D06E0E06894
:1003800040F0010394E8070098471034AC42F6D3DC
:10039000FFF7B4FEA8300008C8300008202A04DBAC
:1003A000203A00FA02F1002070479140C2F1200388
:1003B00020FA03F3194390407047000070B5002401
:1003C00000F06AF81748006800B91748174E184D32
:1003D000317809B1FF2907D1000C40BA28800124E7
:1003E000000A00F08FFAA8700020307028890528D4
:1003F00002D205202881012495F90A00401E142804
:1004000002D31420A87201E0002C0AD00C22084963
:10041000002000F041F92868E86068682861A86851
:10042000686170BDF0FF0108010006241C00002077
:10043000C40000202DE9F047C0B00D4606464FF439
:1004400080791C46904649466846FFF788FEAF19FA
:10045000EEB23019484501D8254601E0C6F5807551
:10046000EA4627F0FF004A46694600F076F80AEBB4
:1004700006012A464046FFF759FE641B08D0A844EF
:1004800000264D4607F58077AC42EAD82546E8E7D6
:1004900040B0BDE8F08700000123024A0021024875
:1004A000FFF7C8BF1C000020F4FF0108F8B505469F
:1004B000154800240094007838B11448152D0470B4
:1004C00002D1032002F03AFDF8BD0122104F96023E
:1004D0003146384600F0B6FB142000F02FFA002217
:1004E0003146384600F0AEFB0A488DF8004081786E
:1004F0008DF801108DF802108DF803500421684624
:1005000000F0A4F8F8BD0000350000202000002015
:1005100000040240C400002010B5FFF74FFFBDE803
:10052000104000F057B87FB50446002501200E4664
:1005300014F0FF0F03950ED100F078FA301BCDE9CF
:100540000054000A029003A9684600F009FA044624
:1005500000F044FA204604B070BD10B5930704D0F3
:10056000012010BD10C81B1D10C19342FAD30020FA
:1005700010BD2DE9F041064617460D46900702D002
:100580000120BDE8F08100F051FA00240BE0314673
:1005900002202A6800F02CFA10B100F01FFAEFE7F1
:1005A000241D2D1D361DBC42F1D300F017FA00208A
:1005B000E7E70000024900F5C770484301F05CBD61
:1005C00040420F00024900F5C770484370470000E1
:1005D00040420F0010B502F0F1FB154C13484FF4E8
:1005E000007120604FF4827060600020A060E060C5
:1005F0002061C4E905011021C4E907106062A0620E
:100600000720E062204600F0BBFF18B1412109A09D
:1006100002F015FB2068016841F0400101600A49C1
:100620001F200870BDE8104001F01CBB00380040DE
:10063000EC0000202E2E5C4273705C4273704C6F95
:1006400072612E63000000006802002010B50C46A5
:100650000A4601460548FFF769FD0448A0F8004135
:10066000BDE81040032002F0DDB900004401002085
:100670000EB501238DF8080000208DF804006420D9
:10068000009001AA02A9034801F00AF89DF80400AD
:100690000EBD0000EC0000202DE9F04FC1B08846EF
:1006A00005464FF48079144649466846FFF757FDE2
:1006B0001948EFB22E183819484501D8254601E0EF
:1006C000C7F58075EB46CA4626F0FF0081465246C4
:1006D0006946FFF742FF0BEB07002A464146FFF74A
:1006E00025FD300A0102484601F58071FFF71BFF26
:1006F000524669464846FFF73CFF641B08D0A844B1
:100700000027554606F58076AC42DDD82546DBE766
:1007100041B0BDE8F08F000000E001082DE9F04F86
:10072000C1B00D4606464FF480791C4690464946B6
:100730006846FFF714FDEFB238192E44484501D83A
:10074000254601E0C7F58075EB46CA4626F0FF0056
:10075000814652466946FFF700FF0BEB07002A4629
:100760004146FFF7E3FC300A0102484601F580717B
:10077000FFF7D9FE524669464846FFF7FAFE641B6A
:1007800008D0A8440027554606F58076AC42DDD84F
:100790002546DBE741B0BDE8F08FFEE770B5114DAF
:1007A00001222021284600F04DFA0F4C2178002923
:1007B00017D0142000F0C2F800222021284600F0B3
:1007C00041FA0A48002525700078202809D10848F8
:1007D00090F87400C01E81B2064802F0CDF90648B8
:1007E000056070BD00040240340000206802002053
:1007F0006C0400206F0300203000002070474FF48D
:10080000006000F049B94FF4007000F045B970473E
:100810007047000010B500F009F9024942F6027075
:10082000086010BD183C0240074900224A61074990
:100830000B6843F400730B600B6843F008030B6014
:1008400020F0FF0002607047AC000020043C024032
:10085000134A00201168CB05124904D5486940F0BD
:1008600002004861901513689B0505D54B6943F05C
:1008700001034B6140F4007013681B0505D54B69FB
:1008800043F004034B6140F4006013689B0405D5FA
:100890004B6943F010034B6140F400501060704707
:1008A000183C0240AC00002070B5044600F0D0F9BE
:1008B0000546134E09E0601C07D024B100F0C8F9CA
:1008C000401BA04201D9032070BD3068C007F2D19F
:1008D0003068800701D5022030603068C00508D438
:1008E0003068000505D43068800402D43068800583
:1008F00003D5FFF7ADFF012070BD002070BD0000E3
:10090000183C024000F07F007047000010B541F233
:100910008831094802F02EF8012806D00649091D41
:100920000868032802D2401C086010BDBDE81040D2
:10093000032002F003BB00002C00002070B5044629
:1009400000F086F90546601C02D004484068044463
:1009500000F07EF9401BA042FAD370BD0C000020CD
:100960002DE9F04705461B480E46017C012909D0B8
:100970000121804601744CF250373846FFF794FF4E
:1009800018B122E00220BDE8F0874FF0FF3131605E
:10099000B946114F6C6812E02046FFF745FF484604
:1009A000FFF782FF396821F008013960396821F4C6
:1009B0000071396008B1346007E004F58074D5E94E
:1009C000011201EB0221A142E6D8002288F8102092
:1009D000D9E70000AC000020043C02400348016855
:1009E00041F002010160002070470000043C024019
:1009F0002DE9F0410C4C16460F46207C012809D009
:100A0000012020744CF250384046FFF74DFF00257E
:100A100018B107E00220BDE8F08165613E60404604
:100A2000FFF742FF2574F6E7AC0000200E4801688E
:100A3000890716D50168C90708D00B490B4A083148
:100A40000A600B4A0A600168C90708D10649094AC9
:100A50000C310A60084A0A600068800701D501204D
:100A60007047002070470000043C0240EFCDAB8986
:100A700005040302BFAE9D8C16151413012205490F
:100A8000B0F5007F04D0B0F5006F00D10A70704758
:100A9000CA70704790000020044910B50A680242ED
:100AA00002D00860FFF7EAFF10BD00001404014007
:100AB0002DE9F84FDFF86C91002209F1040A0AF1E0
:100AC000040B4FF00F080BF1040EA3E00126964033
:100AD000334070D04C68022C01D0122C11D1D408B4
:100AE00000EB84073D6A5407E40E08FA04FC25EA8B
:100AF0000C05D1F810C00CFA04FC4CEA050CC7F840
:100B000020C007685400032591F804C0A5400CF0EC
:100B1000030CAF430CFA04FC4CEA070CC0F800C00D
:100B20004F68012F05D0022F03D0112F01D0122FB3
:100B300011D18768D1F80CC0AF430CFA04FC4CEA21
:100B4000070CC0F808C04768B7430E79C6F3001613
:100B500096403E434660C668AE438D68A540354327
:100B6000C5604C68E40054D52F4C256845F001055C
:100B70002560246822F0030504F0010400942B4C46
:100B80002E19B7689407250F08FA05F4A743284CD7
:100B9000A04201D1002415E0264CA04201D101243D
:100BA00010E0254CA04201D102240BE0234CA042CE
:100BB00002D1032406E02CE0214CA04201D1042400
:100BC00000E00524AC403C43B460D9F800404D46F9
:100BD0004E689C43F60300D51C432C60DAF80040B5
:100BE00055464E689C43B60300D51C432C60DBF889
:100BF00000405D464E689C43F60200D51C432C60C5
:100C0000DEF8004075464E689C43B60200D51C4392
:100C10002C60521C0B6833FA02F47FF457AFBDE826
:100C2000F88F00000004014020380240000001401D
:100C3000000002400004024000080240000C024094
:100C4000001002400AB1816170470904FBE700000F
:100C500001488068704700000C000020024881684D
:100C600042681144816070470C00002010B50024D8
:100C7000032000F079F8002000F008F808B1012402
:100C800001E000F025F8204610BD000070B50E4EC2
:100C900005460024706898B14FF47A71B1FBF0F00A
:100CA0000A490968B1FBF0F000F0E7FD40B9102DEA
:100CB00006D200222946501E00F036F8356000E0CA
:100CC0000124204670BD00000C0000201800002008
:100CD0000D4808B5016841F000410160016801F06C
:100CE00000410091011F0A6842F001020A60096890
:100CF00001F001010091016841F08051016000683C
:100D000000F08050009008BD24380240002809DB24
:100D100000F01F02012191404009800000F1E02015
:100D2000C0F8001170470000F0B40E4B1B68C3F30D
:100D30000223C3F10704042C00D904241D1D072D30
:100D400001D2002300E0DB1E012606FA04F56D1E29
:100D50000D409D409E40761E164045EA0601F0BCBF
:100D600002F0B0B80CED00E0064A00F00701106890
:100D70004FF6FF03184040EA012003490843106082
:100D8000704700000CED00E00000FA052DE9F84F77
:100D900004460078C0077DD0444F00253868C00065
:100DA00008D4386840F0805038603868012500F079
:100DB000805000903E480168C90511D40168804602
:100DC00041F480710160FFF743FF064604E0FFF73E
:100DD0003FFF801B642843D8D8F80000C005F6D533
:100DE000DFF8C890A9F12409D9F8000000F0C0414B
:100DF000606800F0C0428A420AD0C0F30141032972
:100E000006D1D9F80010890302D50120BDE8F88F7A
:100E1000DFF8988008F11008D8F8001011F440317C
:100E200024D000F44030884220D02078C0071DD064
:100E3000D8F800001F4A012320F44030136000233B
:100E40001360C8F80000C00510D5FFF701FF064683
:100E500041F2883A06E0FFF7FBFE811B514501D9BC
:100E60000320D3E7D8F800008005F4D56068C0F30C
:100E70000141032908D1D9F8002000F0C04022F038
:100E8000C0420243C9F80020D8F80010626802F49A
:100E9000403200E007E01143C8F800101DB1386887
:100EA00020F0805038600020B0E700002438024075
:100EB00000700040DC0647422DE9F0470E46040072
:100EC00076D0DFF88081D8F8000000F00100B04251
:100ED00014D2012E05D1D8F8001041F00401C8F851
:100EE0000010D8F8001021F001013143C8F80010BB
:100EF000D8F8000000F00100B0427DD12078524FB8
:100F0000800705D53868A16820F0F00008433860F4
:100F10002078C00759D04C496068083902281AD097
:100F200003281BD0096801281BD08905002963DA32
:100F3000396821F0030101433960FFF789FE054656
:100F4000606841F28831022813D003281ED001289E
:100F5000894627D035E009688903E7E709688901F0
:100F6000E4E78907E2E7FFF773FE411B494501D932
:100F700024E089463868C0F381000228F3D124E0D8
:100F8000FFF766FE411B494501D917E089463868DD
:100F9000C0F381000328F3D117E0FFF759FE411B8E
:100FA00049450BD83868C0F381000128F5D10CE021
:100FB00022E0FFF74DFE411B494502D90320BDE861
:100FC000F087386810F00C0FF3D1D8F800104046C5
:100FD00001F00101B14211D9012E03D1016841F0A4
:100FE00004010160016821F00101314301600068E2
:100FF00000F00100B04201D00120E0E72078400776
:1010000005D53868E16820F4E0600843386020784E
:10101000000706D53868216920F4605040EAC10015
:10102000386000F019F83968084AC1F30311515CBF
:10103000C8400749086007480068BDE8F047FFF767
:1010400025BE0000003C0240083802406530000820
:10105000180000200C000020134A106800F00C015A
:1010600004290CD008290CD00C290CD0101F0068C2
:10107000C0F342314FF40040491C884070470B4890
:1010800070470B4870470B49C0F383431268C95C33
:10109000C0F38150401CD20301D5054A00E0034A49
:1010A0005143B1FBF0F07047083802400024F400CF
:1010B00000127A005C3000082DE9F84F04007BD064
:1010C000F6480168006801F00C0600F4803B2078C7
:1010D000F34DC0073FD0082E12D00C2E02D1BBF525
:1010E000803F0DD06068012811D008B1052818D0C4
:1010F000286820F480302860286820F4802009E0E7
:101100002868800327D560680028D8D023E02868A5
:1011100040F480302860606888B1FFF799FD074689
:1011200009E0286840F480202860F0E7FFF790FD90
:10113000C01B642879D828688003F7D50BE0FFF737
:1011400087FD074604E0FFF783FDC01B6428F1D844
:1011500028688003F7D42078DFF8488380074FF0B1
:1011600001094FF0000A36D5042E0CD00C2E02D106
:10117000BBF1000F07D0E068F8B1C8F80090FFF7A6
:1011800067FD07460BE0286880070BD5E06801285B
:1011900012D107E0FFF75CFDC01B0228CAD82868FF
:1011A0008007F7D5BD48001F0168226921F4F85176
:1011B00041EA022101600EE06CE1C8F800A0FFF7EF
:1011C00047FD074604E0FFF743FDC01B0228B1D8E6
:1011D00028688007F7D42078C00672D53EB1A06990
:1011E000F0B3C8F82090FFF733FD07464AE02868BF
:1011F000800502D5A069002887D0A84F206A3F1F2C
:10120000396801F46041884210D900F03BFC0028A5
:10121000BED13868216A20F4604008433860217FDD
:10122000386861F31F6038600FE0A4E0396821F48A
:10123000604101433960217F386861F31F60386085
:10124000206A00F01FFC0028A2D1216A4FF4004060
:1012500009EB5131884091490968C1F3031100E05D
:1012600021E0914A515CC84090490860904800686C
:10127000FFF70CFD00287DD123E0FFF7E9FCC01B40
:10128000022878D828688005F7D58448001F0168AF
:10129000226A21F4604111430160227F016862F3F8
:1012A0001F6101600DE0C8F820A0FFF7D1FC0746E0
:1012B00004E0FFF7CDFCC01B02285CD8286880053D
:1012C000F7D420787B4F000721D57B48616979B13D
:1012D000C0F80090FFF7BCFC834605E0FFF7B8FCC0
:1012E000A0EB0B00022846D838688007F6D50EE040
:1012F000C0F800A0FFF7ACFC834605E0FFF7A8FCB0
:10130000A0EB0B00022836D838688007F6D4207886
:1013100040076AD500200090664810380068C00079
:101320000AD464481038016841F0805101600068B7
:1013300000F080500120009060480168C90511D478
:10134000016841F480710160FFF782FC834605E08B
:10135000FFF77EFCA0EB0B0064280CD85748006810
:10136000C005F5D5A06801280DD008B1052814D016
:10137000386801E075E073E020F480703860386808
:1013800020F4806002E0386840F480703860A06823
:10139000A0B1FFF75DFC83460CE0386840F4806044
:1013A0003860F0E7FFF754FCA0EB0B0141F2883006
:1013B000814255D838688005F4D50EE0FFF748FC27
:1013C000834607E0FFF744FCA0EB0B0141F28830B5
:1013D000814245D838688005F4D4009828B1354852
:1013E0001038016821F080510160606A90B30C2EC2
:1013F0003DD00228504605D0C8F86000FFF728FC11
:10140000044630E04746C8F86000FFF721FC064676
:1014100004E0FFF71DFC801B022821D8286880010A
:10142000F7D4D4E90A1001431C48226B036823F463
:101430007D031A4311430160C7F86090FFF708FC71
:10144000044604E0FFF704FC001B022808D82868C3
:101450008001F7D520E0FFF7FBFB001B022802D933
:101460000320BDE8F88F28688001F4D414E0012837
:10147000F7D00A480068A26A00F48031914209D18D
:10148000E26A00F47011914204D1216B00F4400033
:10149000884201D00120E4E70020E2E7083802405A
:1014A0000038024000004742653000081800002064
:1014B0000C00002034380240800647420070004093
:1014C0002DE9F0470446007F01281CD0012626772D
:1014D000022060772168CA20486221685320486250
:1014E0002068816821F4806181602068816821F42E
:1014F00080418160FFF7ACFB054600274FF0FF08F5
:101500004FF47A790EE00220BDE8F087FFF7A0FBE8
:10151000401B484506D92168C1F824800320607724
:101520002777F1E72068C0684007EFD52168C1F848
:101530002480667727770020E6E710B500F0C4F92D
:10154000BDE81040022001F06DBA000010B504465D
:101550000068C068400509D52046FFF7EEFF206807
:10156000C16801F0800161F49061C16003494FF4EA
:10157000801008600120607710BD00001404014055
:1015800070B5040005D00025A56294F8510010B193
:1015900006E0012070BD84F85050204600F02AF883
:1015A000022084F851002068016821F040010160A8
:1015B000D4E901010843D4E90312114308436169E6
:1015C0000843218B01F400710843E1690843216A53
:1015D0000843A16A084321680860A069042101EA60
:1015E0001040216848606565012084F851000020A2
:1015F00070BD00002DE9F04387B004461421684611
:10160000FEF7ADFD2349206888423FD1224801689A
:1016100041F48041016000681F4C00F48040083CA8
:101620000590206840F0020020602068022500F04C
:10163000020005904FF40050002603274FF00508E4
:101640008DE8E101DFF8549069464846FFF730FA2B
:10165000206840F0020020602068694600F0020027
:101660000590A8038DE8E1014846FFF721FA2068BC
:1016700040F0020020602068694600F002000590FA
:1016800068038DE8E1014846FFF712FA07B0BDE8AC
:10169000F08300000038004024380240000402407B
:1016A0002DE9F84F044690F8500001250A9E1F4688
:1016B00092468B464FF0000801280ED0012084F896
:1016C0005000FFF7C5FA814694F85100616801287F
:1016D0000CD0B1F5827F07D102E00220BDE8F88F7F
:1016E000A16809B9042801D00220B6E0BBF1000FBF
:1016F00027D0BAF1000F24D01FB394F8510004286A
:1017000002D0052084F8510000206065C4F838A09C
:10171000E787A787C4F830B0E786A78620646064AF
:1017200020680168490603D4016841F04001016066
:10173000E068B0F5006F606805D0E8B3012F43D0D2
:1017400079E0012089E008B1012F34D1206B2168B4
:101750000088C860206B801C2063E08E401EE086FD
:1017600029E02068816889070DD5E18E59B1012DE6
:1017700009D1216B0988C160206B801C2063E08E39
:10178000401EE086002520688168C9070BD0E18FE4
:1017900049B1C068A16B0880A06B801CA063E08F7A
:1017A000401EE0870125FFF753FAA0EB0900B04285
:1017B00001D3701C50D100E006E0E08E0028D0D1AB
:1017C000E08F0028CDD13CE0206B216800780873C1
:1017D000206B401C2063E08E401EE0862BE02068DA
:1017E000816889070DD5E18E59B1012D09D1216B91
:1017F00009780173206B401C2063E08E401EE08658
:10180000002520688168C9070BD0E18F49B1C06805
:10181000A16B0870A06B401CA063E08F401EE087A6
:101820000125FFF715FAA0EB0900B04202D3701CA6
:1018300001D011E086B1E08E0028D0D1E08F0028E1
:10184000CDD14A463146204600F0A0F938B12020DB
:101850004FF00108606508E00320804605E0A068BD
:1018600018B92068C16880680090012084F8510090
:10187000002084F85000404630E710B5401EB0F11B
:10188000807F01D3012010BD4FF0E02460610F2163
:10189000601701F017FB0020A061072020610020E5
:1018A00010BD7047182102A001F0C9F9FAE7000045
:1018B0002E2E5C557365725C73746D33326C3178A7
:1018C000785F69742E63000010B51048FFF7F8FDCB
:1018D0000F484168C943C90703D1016841F00401B9
:1018E00001604168C943890703D4016841F00801D8
:1018F0000160084CA078012807D101F001F8002010
:10190000A070BDE81040FEF783BF10BD4802002064
:10191000007000403A000020FEE7704710B548B163
:10192000FF21012000F0C8FBBDE810404FF4FA6031
:1019300000F04ABC0122BDE810401146104600F0FC
:1019400021BF00002DE9F0412C4C00224FF48061B2
:101950002046FFF777F9002220212046FFF772F991
:10196000002210212046FFF76DF9012210212046A8
:10197000FFF768F9002210212046FFF763F9204D98
:101980000122204C20492A70207809881F4B00260C
:10199000B0EB112F07D16778C9B2B94203D11E70DD
:1019A00040F6B83111E0FF2802D16078FF2809D055
:1019B00001222E701146104600F0E4FEBDE8F04111
:1019C00000F032B81A7001221146012000F0DAFE50
:1019D0000F48007820280CD01F280DD1A078FF28B0
:1019E0000AD12E70BDE8F04101221146104600F0E8
:1019F000C9BEA078FF28F4D1BDE8F0810004024000
:101A0000340000206C030020C400002035000020BA
:101A10006802002001221146104600F0B3BE0122E8
:101A20001146104600F0AEBE0C4810B58078FEF7A7
:101A3000C9FD00F021FB01221146104600F0A2FE74
:101A4000074900200870FF21012000F035FBBDE8A8
:101A500010404FF4FA6000F0B7BB0000C400002053
:101A60002000002001221146104600F08BBE00002D
:101A700002480188491C01807047000008000020CE
:101A80007047000038B51C4A002112681B4C12F048
:101A9000F00F23D1184A1C321368DD00184B03D510
:101AA0001A6802F4C0530EE0156845F080551560C1
:101AB000156805F0805500951B68156803F4C05340
:101AC00025F080551560B3F5C05F07D1B0F5404FE4
:101AD00004D12068012140F004002060206820F03B
:101AE000010008432060206800F00100884201D016
:101AF000012038BD002038BD08380240003C0240BB
:101B0000007000400148FFF721BD0000480200209E
:101B100010B5092000F084FE0446062000F080FE87
:101B2000072000F07DFE082000F07AFE0021092049
:101B300000F0D8FE3B2000F073FE40F040013B2057
:101B400000F0D0FE3B2000F06BFE8006FAD40D487A
:101B500000F092FA3B2000F063FE40F040013B2091
:101B600000F0C0FE3B2000F05BFE8006FAD4214668
:101B7000092000F0B7FE04488078BDE81040FEF769
:101B800019BD000000A1BC33C400002038B50446D4
:101B90004068B0F5827F04D094F85100052805D044
:101BA00012E000920B460022802103E000920B46D7
:101BB00000220121204600F009F828B1606D40F0B4
:101BC00020006065032038BD002038BD2DE9F041BC
:101BD0001D4617460E460446DDF8188008E0681CCE
:101BE00006D0FFF735F8A0EB0800A8420BD255B19C
:101BF0002068806836EA000030D00020B842EED17C
:101C00000020BDE8F0812068416821F0E0014160DA
:101C10006068B0F5827F0BD1A068B0F5004F02D0AC
:101C2000B0F5806F04D12068016821F040010160A7
:101C3000A06AB0F5005F09D12068016821F4005165
:101C400001602068016841F400510160012084F8BE
:101C50005100002084F850000320D2E70120CDE796
:101C600070470000F0B58BB000F036F8194FB87827
:101C7000FEF7A0FC012000F029FA562000F04EFCEF
:101C8000002442F2283005940694CDE9074001254E
:101C9000FA26CDE9015607200090CDE9034597F9D2
:101CA0000A1002232246284600F078FCCDE90845B8
:101CB000680307940694CDE90204CDE90445CDE913
:101CC0000046012307220221184600F03FFB0BB01B
:101CD000F0BD0000C400002070B5012241F288343C
:101CE000174B2146104600F0D3FE154B012221462A
:101CF000022000F0CDFE124B01224FF47A71032036
:101D000000F0C6FE00F048FAFFF702FF002000F0E6
:101D100017FA0C4E002404EB4405705D00F0D6F970
:101D2000A8198178407800F0DDFD641CE4B2102C25
:101D3000F1D3012000F0CAF903490020087570BDF5
:101D4000551F0008753000086C040020F8B5002607
:101D50008DF800604C4F387D012811D002287AD0D0
:101D600003287DD13E7500F0CBFE122000F058FD17
:101D7000C0077FD00521122000F0B4FD01207EE0D5
:101D80004021122000F0AEFD122000F049FD8DF838
:101D900000009DF8000080060ED52021122000F0E2
:101DA000A1FD97F8660000B93E75022000F0A8FE7C
:101DB000BDE8F840FFF72EBE192000F031FD334D8D
:101DC0002860192000F02CFD40B287F87000010651
:101DD00005D5C043401CC0F38500444201E0C0F378
:101DE00085041A202C6000F01BFD2949BA69002CDB
:101DF00006DA00EB20108A42204405D99D3804E021
:101E00008A4200EB2010F9D8A438A7F872002860A5
:101E1000132000F005FD87F874001020663700F0ED
:101E2000FFFC01460D2000F05DFDB97B194800F074
:101E3000BDF817F8660900B93E75022000F060FE93
:101E400017F9703F1348B7F90220397901B0BDE89E
:101E5000F040FFF777BD012000F052FE082101E0BD
:101E600011E007E0122000F03DFD3E75BDE8F840AE
:101E7000FFF7DABD0421122000F034FD0020BDE898
:101E8000F840FFF74BBDF8BD6C0400208C0000202B
:101E900040DD4A1F6C0300202DE9F0412B4D287DC9
:101EA00001282AD02A4E4FF00008022829D0032802
:101EB0004AD100F071F9FFF72BFE002000F040F945
:101EC000002404EB4407F05D00F000F9B8198178B4
:101ED000407800F007FD641CE4B2102CF1D301201F
:101EE00000F0F4F895F86C0000F042F985F81480E1
:101EF000BDE8F0410020FFF711BDBDE8F041FFF75C
:101F00008EBD00F049F9FFF703FE002000F018F93C
:101F1000002404EB4407F05D00F0D8F8B81981788C
:101F2000407800F0DFFC641CE4B2102CF1D30120F7
:101F300000F0CCF895F86C0000F01AF985F81480E0
:101F4000BDE8F041FFF78EBDBDE8F0816C040020D4
:101F50007530000801490120887170479000002009
:101F60002DE9F041DFF8408015460E4604464FF457
:101F70008077002239464046FEF764FE04F07F0079
:101F800000F01AFC002405E0002000F015FC30559C
:101F9000641CE4B2AC42F7D339464046BDE8F04198
:101FA0000122FEF74FBE0000000002400A46014633
:101FB0000020FFF7D5BF000070B5064621480D464A
:101FC0008078FEF7F7FA204C94F8650001284FF06E
:101FD000330020D000F024FC00F0BE013320491C67
:101FE00000F080FC1D213B2000F07CFC84F8745044
:101FF0002946222000F076FC00210E2000F072FC21
:1020000000210D2000F06EFC012000F009FC30F0F2
:10201000F80009D00DE000F003FC00F0BE01332011
:1020200000F060FC1921DEE700F068FA012000F002
:10203000B6FF2946304600F08FFBA06EBDE8704029
:1020400000F070BAC40000206C040020032802D005
:102050000120FFF726BC0020FBE7000005490A78B5
:10206000824206D0087010B10020FFF71ABC012090
:10207000FBE77047A00000200D4910B58861FEF70E
:10208000E8F800220B4BFEF775F8FEF7EFF8044670
:10209000C0F30741062000F025FCC4F30721072008
:1020A00000F020FCE1B2BDE81040082000F01ABCAE
:1020B0006C04002080844E4010B50C4600F006F8F9
:1020C0002146BDE81040232000F00CBC10B50446AA
:1020D000012000F0A5FB1949000601D5012000E010
:1020E00000204875C0B2A04226D04C75012C0FD0FC
:1020F00000F0F4F9012000F093FB00F07F010120D3
:1021000000F0F0FB0021402000F0ECFB30210EE05D
:1021100000F0E4F9012000F083FB40F08001012091
:1021200000F0E0FB0021402000F0DCFB0021BDE8D6
:102130001040412000F0D6BB10BD00006C04002010
:1021400010B5040010D00020FFF788FF2046FFF7ED
:102150007DFF012000F064FB00F0F8012143BDE8A1
:102160001040012000F0BEBB0120FFF777FFF0E731
:1021700010B504460120FFF7A9FF064880F86C401F
:102180000CB1342100E01221BDE81040392000F0EC
:10219000A9BB00006C04002070B50A4D4FF4006428
:1021A000002221462846FEF74DFD012000F0F7FEF3
:1021B000012221462846FEF745FDBDE87040062075
:1021C00000F0EDBE0004024070B55E4C054634F8E8
:1021D0005E0F010A202000F085FB2178212000F00D
:1021E00081FBE0795E3C01284FF0330025D000F000
:1021F00017FB00F0BE013320491C00F073FB1D21CA
:102200003B2000F06FFB606D09284FF031007DD25C
:1022100000F006FB00F07F01312000F063FB00219D
:10222000302000F05FFB606D092846D2DFE800F047
:102230000E161E262E364141410000F0F1FA40F004
:102240004101332000F04EFB1921D9E748212F200E
:1022500000F048FB41F68261A06926E044212F206E
:1022600000F040FB42F6B401A0691EE044212F209B
:1022700000F038FB43F60451A06916E044212F20FA
:1022800000F030FB45F25E11A0690EE044212F20E2
:1022900000F028FB47F61221A06906E044212F2018
:1022A00000F020FBA0694AF2C6210844FFF7E4FED3
:1022B00003E040212F2000F015FB94F8630094F810
:1022C000666001282ED00F21112000F00BFB40206A
:1022D00000F0A6FA00F03C014020491C00F002FB8F
:1022E00000210F2000F0FEFA00210D2000F0FAFA84
:1022F0004FF480711448FDF732FF0120207545B17D
:102300002946022000F0A6FB022000E004E000F0D5
:1023100073FA96B1052011E000F082FA40F08001D6
:102320003120C8E70D21112000F0DCFA402000F038
:1023300077FA00F033014020D0E70620BDE8704076
:10234000FFF7FEBE6C0400206C0300202DE9F05F57
:102350009946DDE90CB614460D46DDF83CA00B9F0E
:10236000FFF7B4FE032D00D9FEE702D14FF00605BA
:1023700001E005F10705DFF85C810C2C4046E0E93F
:10238000155480F80990478106730E99417380F8BF
:102390000EA01099C1731199017412994174139987
:1023A00088F8661001D90C2402E0062C00D206241D
:1023B000072D01D0062D03D10B2C49D00C2C47D072
:1023C000082D01D10C2C43D0002188F85C101D2071
:1023D00000F026FA290141EA49003043C1B21D202C
:1023E00000F080FA1E2000F01BFA00F0080040EA1E
:1023F000041141EA8A00032202EA1B210843C1B208
:102400001E2000F06FFA262000F00AFA00F0F70113
:1024100098F85C0041EAC000C1B2262000F062FAE0
:102420000BF0FF011F2000F05DFA390A202000F0B8
:1024300059FAF9B2212000F055FA1EB122200E9966
:1024400000F050FA98F863004646012802D00EE0EA
:102450000121BAE7442000F0E3F940F08001442074
:1024600000F040FA96F86410242000F03BFA092DA1
:1024700015D00321362000F035FA062C4FF031003C
:102480001ED000F0CDF900F0F8013120C91C00F099
:1024900029FA0A21BDE8F05F372000F023BA0E497F
:1024A000B06988424FF002014FF0360003D900F0C6
:1024B00019FA642102E000F015FA7F213A20DAE7E8
:1024C00000F0AEF900F0F8013120491D00F00AFAE1
:1024D0000C21DFE76C04002040DD4A1F10B502200C
:1024E00000F00EFB012000F00BFB0020FFF728FEA0
:1024F00001490020087510BD6C04002010B50220B1
:1025000000F0FEFA012000F0FBFA0120FFF718FEB0
:1025100001490020087510BD6C04002001463920D7
:1025200000F0E0B910B50146012000F093FA002157
:10253000202000F0D7F90621212000F0D3F9164C15
:1025400094F8630001281CD0F721112000F0CAF98B
:10255000402000F065F900F03F0040F040014020CD
:1025600000F0C0F90220207500F0CAFA032000F044
:10257000C7FA012000F040F9BDE810400320FFF742
:10258000DFBDF521112000F0ADF9402000F048F941
:1025900000F03300E1E700006C0400202DE9FF5F4C
:1025A0001D4612ABDDE90E49DDE9106893E8800CA9
:1025B000FFF78CFD019800F03BF9032D00D9FEE7F1
:1025C00002D14FF0060501E005F1070544485146E8
:1025D0000C2CC0E9155480F85D90A0F85E6080F87E
:1025E000608080F863A080F864B080F86270159A0B
:1025F00080F86520169A826601D90C2402E0062C28
:1026000000D20624072D01D0062D03D10B2C0CD0AF
:102610000C2C0AD0082D01D10C2C06D0002280F8F9
:102620005C208246012902D00EE00122F7E7442017
:1026300000F0F6F840F08001442000F053F99AF8D9
:102640006410242000F04EF91D2000F0E9F8290163
:1026500041EA490040EA0800C1B21D2000F042F9F9
:102660001E2000F0DDF800F00B0040EA041040EA04
:102670008700C1B21E2000F035F9262000F0D0F806
:1026800000F0F7019AF85C0041EAC000C1B22620D0
:1026900000F028F9310A202000F024F9F1B22120BD
:1026A00000F020F9062C4FF031000ED000F0B8F801
:1026B00000F0F8013120C91C00F014F90A2104B01F
:1026C0003720BDE8F05F00F00DB900F0A9F800F088
:1026D000F8013120491D00F005F90C21EFE7000059
:1026E0006C04002070B5094CE078002500B1E5705D
:1026F000207810B12570FFF729FBA079002804D0BD
:10270000A571BDE87040FFF7C7BB70BD9000002009
:102710002DE9F041DFF83C8015460E4604464FF4A3
:102720008077002239464046FEF78CFA44F080005C
:1027300000F042F8002404E0305D00F03DF8641C35
:10274000E4B2AC42F8D339464046BDE8F04101223C
:10275000FEF778BA000002400A4601460020FFF763
:10276000D7BF000010B50121054800F003F901288A
:1027700005D000F0C9FBBDE8104000F01FB810BD47
:102780007000002030B50B4C002303EB430514F818
:102790003550854204D05B1C13F0FF03F5D0FF23B6
:1027A000FF2B06D003EB430004EBC00041608160C7
:1027B000828130BD74000020FDF75ABF70B50D480E
:1027C000002645686C690FE0607A60B1E068401CE3
:1027D000E0606168884206D3E660206900B1804706
:1027E000207A00B166726469002C01D0002DEBD113
:1027F00070BD00009800002010B5044600F038F9C4
:10280000064801224068416904E00878A04200D1EE
:102810004A7249690029F8D110BD000098000020D3
:1028200008B501226946FFF79BFB9DF8000008BD33
:102830002DE9F04104460920FFF7F2FF07464D203D
:10284000FFF7EEFF254E05462549B069884201D2C3
:10285000802000E0002007F07F01084340F0700076
:1028600001062DD5112C02DD45F0070502E005F02B
:10287000F8052D1DE943490703D0022C0CDA022488
:102880000DE0052C01DA052402E0142C00DD1424EF
:1028900000F0F001601F05E0112C00DD112400F0B4
:1028A000F001A01E00F00F000143092000F01AF80B
:1028B00029464D2000F016F886F85040BDE8F0811A
:1028C0004FF0FF318C4201DA0C4602E00E2C00DDA5
:1028D0000E2400F0F001601CE4E700006C0400200E
:1028E00040DD4A1F13B5012201A9FFF711FF1CBDEE
:1028F00010B5FFF7BDF8BDE81040FEF7AFB9000016
:1029000030B595B034216846FDF729FC14210DA897
:10291000FDF725FC0024164812941394016821F455
:10292000C05141F40061016006200125009002952C
:102930001020CDE903500220CDE909048005CDE93E
:102940000B406846FEF7B8FB0F200D9003200E9059
:10295000A020CDE90F0400210DA81194FEF7ACFAD8
:102960002804CDE9125012A8FEF710FA15B030BDB8
:10297000007000400A4A0388128823B1934204D9A8
:102980009B1A5B4202E0028007E0D31A43809BB2AD
:102990008B4202D302800020704701207047000064
:1029A000080000200F48016841F4807101600D4962
:1029B00008310A680C4B1A400A6002680B4B1A4037
:1029C0000260026822F480220260086820F47D0020
:1029D00008600020091D086005494FF0006008608C
:1029E00070470000003802400CC0FF88FEFFFEEE7A
:1029F00008ED00E070B50A4D002404EB440005EB3F
:102A00008001487830B1FF2801D000204870D1E91A
:102A100001018847641CE4B2042CEED370BD0000B1
:102A2000400000200A4A002101EB410312F8233044
:102A3000834204D0491CC9B20429F5D3FF21FF29E0
:102A400005D001EB410102EB810101204870704784
:102A500040000020054A526803E01378834200D109
:102A600051605269002AF8D1704700009800002098
:102A7000064900224968496904E00B78834200D185
:102A8000CA6049690029F8D1704700009800002009
:102A90002DE9F047194C88460746217801209946D0
:102AA0001646002531B92070182000F0A1FA6060A8
:102AB00000B14561182000F09BFA00281BD0077078
:102AC000C0F8048006724572C0E903594561636825
:102AD0005A69114604E00C78FEB2B4420BD0496941
:102AE0000029F8D112B9586104E00A465169002959
:102AF000FBD150614561BDE8F087000098000020DF
:102B0000064900224968496904E00B78834200D1F4
:102B10004A7249690029F8D17047000098000020E6
:102B20002DE9F0410025134F2E4605EB450007EB3C
:102B3000C004607801280DD1A089C0B1A0F57F4103
:102B4000FF390DD0401EA0816670D4E9040188478A
:102B5000A06860606D1C15F0FF05E6D0BDE8F0814F
:102B6000A06860606670D4E904018847F2E7667087
:102B70006660EFE77400002070B50B4601782C4DBD
:102B80002C4CA0B0042904D0022911D0012911D164
:102B90000EE0012220212846FEF754F80120207083
:102BA0000620FDF783FC002000F0C8F920B070BDBE
:102BB000842B08D01520FDF779FC0122202128461E
:102BC000FEF740F8F2E7002103225B1E04E0865C7A
:102BD000521C3144C9B292B29A42F8DB90F8832079
:102BE0008A4208D0012220212846FEF72BF8152022
:102BF000FDF75CFCDAE7B0F80150A58061888D42F2
:102C0000D4D0C11C80226846FDF790FA0A486FF0C4
:102C10007F0101EBC511C068802208446946A060AD
:102C2000FDF7A7FC0620FDF741FCA0886080BDE70A
:102C30000004024020000020DC000020FEE7704776
:102C400070B5164C2068012827D015480078012857
:102C500023D0144D002220212846FDF7F3FF12480F
:102C6000A168814202D10122411404E00F4881424F
:102C700004D1012210212846FDF7E4FF4FF4FA7039
:102C8000FDF75CFEA1684868094A50601060096859
:102C900081F30888BDE87040004770BDDC0000206B
:102CA000200000200004024000400008001001083D
:102CB0000000002010B5102212491348FDF74DFC0A
:102CC000104C606808B1401C05D1002060600F48BE
:102CD000A0600F48E0602068012812D18102012223
:102CE0000C48FDF7AFFF0C492020087002E00120DE
:102CF000FDF724FEE06800F55041FDF714FC0028C4
:102D0000F5D110BDDC000020003C000800400008A8
:102D10000010010800040240680200202DE9F04381
:102D2000244C87B0206840F00200206020684FF4F7
:102D3000806800F00200CDF80080059001AA01250E
:102D400000260227DFF8709082E8E00069464846D6
:102D5000FDF7AEFE002241464846FDF773FF2068AE
:102D600040F0020020602068694600F002000590F3
:102D700020208DE8E1004846FDF79AFE0022202140
:102D80004846FDF75FFF206840F0020020602068A1
:102D9000694600F00200059010208DE8E1004846E9
:102DA000FDF786FE002210214846FDF74BFF07B0D5
:102DB000BDE8F0831C380240000402402DE9F047D2
:102DC00086B014216846FDF7CAF93A48016841F017
:102DD000010101600068374C00F00100241F0590DC
:102DE000206840F0020020602068012200F002000C
:102DF000DFF8C490D602059031464846FDF722FF21
:102E00004FF000080225CDE90285012769464846B2
:102E1000CDE90067FDF74CFE206840F0010020601E
:102E20002068DFF898A000F001004FF48079059049
:102E3000012249465046FDF705FFCDE90285CDE95F
:102E4000009769465046FDF733FE206840F00100C8
:102E500020602068009600F001000590184ECDE932
:102E60000165694650460395FDF722FE0022114692
:102E70002820FDF759FF2820FDF748FF206840F083
:102E8000010020602068694600F00100059060158F
:102E90000090CDE9016550460395FDF709FE00223B
:102EA00011461720FDF740FF1720FDF72FFF06B052
:102EB000BDE8F087203802400004024000000240D4
:102EC000000011100907090E002804DB00F1E020C2
:102ED00080F80014704700F00F0000F1E02080F847
:102EE000141D7047FFF7FEBB024890F80011FFF772
:102EF00063B80000440100200020FFF711BE7047B6
:102F00004FF4FA70FDF783BC10B500210A4B012481
:102F100001EB410003EBC000828942B14268012A03
:102F200002D9521E426002E0427802B94470491C44
:102F300011F0FF01ECD010BD740000200C490328F3
:102F40000DD060B948680C4A401C486009488B683D
:102F5000834202D1C1E9022001E0C1E9020200205E
:102F6000086001461023024A0448FDF7D7BB000061
:102F7000DC0000200040000800100108003C0008B0
:102F800002E008C8121F08C1002AFAD17047704732
:102F9000002001E001C1121F002AFBD17047FDF79C
:102FA000CDBC0000FDF762FEFDF734FCFFF7A8FC86
:102FB0000E4900200870FFF7B1FEFDF7ADFAFF21C2
:102FC0000120FFF779F84FF4FA60FFF7FDF8FFF7FB
:102FD00071FEFFF735FEFDF7E1FBFDF797FCFFF70C
:102FE0002FFEFFF7BFFBFFF705FDF4E720000020F1
:102FF000F0B50B30154D20F007010024144A0FE006
:1030000003688B420BD38B4205D95E1A431847687D
:10301000C3E9006700E04368136002C004E0021DDA
:1030200010680028ECD12046002802D1286808B199
:103030000020F0BD064A07481060074A121A22F025
:103040000702C0E9002401202860D7E7A80000207B
:10305000A4000020EC040020E8050020030406087A
:103060000C101820300000000000000000010203D6
:103070000406070809000C23000D1E000ED2001ADA
:1030800001001FAA0024070027120028C10029946C
:10309000002AC10030D800358F003B0200400000FC
:1030A0004130012340000000C8300008000000202B
:1030B000AC000000802F000874310008AC00002034
:1030C0003C250000902F00080000000000000000D8
:1030D00000000000100000000100000000000000DF
:1030E00068FF1F000000000000000000000000005A
:1030F00000000000000000000000000000000000D0
:10310000000000000000000000FF000000000000C0
:10311000F92E000801FF000000000000E52E000865
:103120000200000000000000FF2E00080300000065
:1031300000000000E92E000800000000010000006F
:103140000A0000000A00000000000000000000006B
:10315000012F000800000000000000000000000037
:10316000000000000000000000000000000000005F
:04317000000000005B
:04000005080000F5FA
:00000001FF
