:020000040800F2
:10400000902E0020D540000831710008F57000089E
:1040100000000000000000000000000000000000A0
:10402000000000000000000000000000B175000862
:10403000000000000000000035730008C98400087B
:10404000E7400008E7400008E7400008E7400008B4
:10405000E7400008E7400008E74000083D59000835
:10406000E7400008E7400008E7400008E740000894
:10407000E7400008E7400008E7400008E740000884
:10408000E7400008E7400008E7400008E740000874
:10409000E7400008E7400008E7400008E740000864
:1040A000E7400008E7400008E7400008B18B00083F
:1040B0000D8C0008E7400008E7400008E7400008D2
:1040C0000348854600F026FA004800478DA70008FF
:1040D000902E00200448804704480047FEE7FEE792
:1040E000FEE7FEE7FEE7FEE781850008C140000825
:1040F00030B50B46014600202022012409E00D4680
:10410000D5409D4205D31D469540491B2546954007
:1041100040191546521E002DF1DC30BDF0B51FB41C
:104120000646002082B005464024019100901BE025
:10413000019922460F46304600F020F8049A059B6C
:10414000801A994110D310461946224600F072F9A0
:10415000361A8F410197224601200021009F00F06E
:1041600069F938184D4100902046641E0028DFDCB4
:10417000019B00982946324607B0F0BD10B5202AB1
:1041800004DB0846203AD040002110BD0B46D34046
:10419000D0402024A21A91400843194610BD03467E
:1041A0000B439B0703D009E008C9121F08C0042A6B
:1041B000FAD203E00B780370401C491C521EF9D25E
:1041C0007047D2B201E00270401C491EFBD270471A
:1041D0000022F6E710B513460A4604461946FFF7D3
:1041E000F0FF204610BD30B505462A460B46107834
:1041F0001C78521C5B1C002801D0A042F7D0002C78
:1042000003D0002802D06D1CEFE7284630BD421CC9
:104210000178401C0029FBD1801A7047F0B51FB40B
:1042200088B00B990998002448400999C00F4900AB
:1042300049080991C0070B990090490049080B9162
:1042400009990898A64608431CD00B990A98084378
:1042500018D0099801244000420D4800410D0998EA
:1042600024050003000B204309900B980003000B6A
:1042700020430B9050181C4940180022019014460E
:10428000104605E0002001460DB0F0BD032801DA1C
:10429000034600E003239C46C11A0AAE0AE05F0011
:1042A00008ADED5B4F00F75B7D430027AA187C410A
:1042B000491C5B1E6145F2DD410004AB5A522104EA
:1042C000120C0A43240C401C0828DFDB01980290E2
:1042D0000099704601910090059B049A07990698F1
:1042E00000F0C5F8D0E700000DFCFFFFF0B50C466C
:1042F0005C4085B0E40FE40703944C00002664089A
:1043000059009446490802460296224321D062464B
:104310000A431ED06200570D4A000E032303550DB9
:10432000012402462C492405781B1B0B360B401830
:1043300023432643614600901C46501AB44103D3E0
:104340000098401C009002E0921800985B41002801
:1043500003DA0020014605B0F0BD00200121090567
:104360000746864611E064461D46141BB54106D338
:104370006546521BB341744607430C43A646CD071E
:1043800040084908284392185B4105460D43EAD18D
:104390001046184313D060461946504071400843F8
:1043A00006D06046101AB34106D20122002306E06F
:1043B00000220123DB0702E00122D24353100098C0
:1043C00074460105381C6141029C039D0019694136
:1043D00000F040F8BFE70000FD0300000EB50549FE
:1043E0000291002100910A460B46019100F03FF82E
:1043F00003B000BD330400004A0009030123090B88
:104400001B051943094B10B5520D9A4201DA0020E1
:1044100010BD064B34339A4203DC9A1AFFF7AEFE06
:1044200010BD03495118884010BD0000FF03000073
:10443000CDFBFFFF10B5202A04DB0146203A914056
:10444000002010BD914020239C1A0346E3401943ED
:10445000904010BD10B5002B08DA0024401C6141CB
:1044600092185B411A4301D14008400010BDF0B5DD
:104470001FB482B005460C0003D0084604F018FCB7
:1044800002E004F015FC2030024600902146284648
:10449000FFF7D0FF049B059A04460F4618431143CB
:1044A000084314D0184610431BD0009840210A1A24
:1044B00018460599FFF762FE05460E46009A0599D3
:1044C0000498FFF7B7FF084305D0012004E0204619
:1044D000394607B0F0BD0020C11705430E432C43F9
:1044E000374300990E986305401A7905E40A0022C3
:1044F0000C43FD0A0A3002D500200146E9E7010518
:10450000101969410C9C0D9D00196941FFF7A2FF2C
:10451000DFE70000064C0125064E05E0E36807CC06
:104520002B430C3C98471034B442F7D3FFF7CCFD33
:10453000E4AC000804AD000870B58C180578401C88
:104540006B075B0F01D10378401C2A1106D102785A
:10455000401C03E006780E70401C491C5B1EF9D11C
:104560002B0705D40023521E0DD40B70491CFAE70B
:104570000378401CCB1A921C03E01D780D70491C77
:104580005B1C521EF9D5A142D8D3002070BD00009B
:1045900010B504220B490C4802F096FE002800D109
:1045A00010BD04220749002000F062FA06480549C0
:1045B0000A8802804988418004A004F055FB00BFAE
:1045C000EEE7000014010020180100205341564579
:1045D000206E65742061646472657373210D0A0036
:1045E00010B5002404221A49002000F065F818488C
:1045F00000881849884203D1002015490880012409
:10460000134803214156012903DB03214156142994
:1046100003DD14200E49C8700124002C0AD00422A6
:104620000B49002000F024FA0B4809490A8802804F
:10463000498841800649087801F01AFA04498870CF
:1046400008468278018805A004F00EFB10BD00002A
:1046500014010020FFFF0000180100206164647253
:10466000203A636820697320253034783A25640D38
:104670000A00000010B50E480E490860E120400213
:10468000486000210B488160C1600161816108219F
:10469000416102F087FB07480068006840218843B9
:1046A000044909680860402002490968086210BD91
:1046B000004C0040E0020020F7B5274B9D44074620
:1046C0000121C90201A8FFF783FD244839182448B5
:1046D000684441607D056D0D0469281920498842B0
:1046E00001D8264601E01E48461B00BF1C4969440C
:1046F0004968C90AC8021A4A01A900F07DF801A850
:104700004119324616486844C068FFF748FDA41BAB
:10471000002C18D001210091002511486844406800
:10472000C90241180E4868444160C06881190C48AC
:104730006844C16028190A49884201D8264604E025
:104740000748461B01E00020009000980028CDD1CA
:10475000034B14339D44F0BDF8F7FFFF00E0010860
:104760000008000010B5FFF785FFFFF739FF00F0E4
:10477000F1F800F09DFA00F033F900F09DF810BD5B
:104780007FB504460E460020039001256005400DCC
:10479000002805D00DA004F067FA284604B070BDCB
:1047A00001F044FA002000900194301BC00A0290EE
:1047B00003A9684601F07CF90546002D02D008A047
:1047C00004F052FA01F0CAF92846E7E7616464721E
:1047D0006573732069732065727221200D0A0000D1
:1047E000657261736520736563746F7220666169B9
:1047F0006C6564210D0A000010B503469007800F18
:10480000002801D0012010BD002404E018680860D1
:10481000091D1B1D241D9442F8D30020F3E7FEB5AB
:1048200004460D461646B007800F002801D001202F
:10483000FEBD01F0FBF9002712E02868C11702460F
:104840000B46019100902146022001F091F90028C9
:1048500003D001F083F90120EAE7241D2D1D3F1D3F
:10486000B742EAD301F07AF90020E1E710B500245D
:1048700007E018216143044A881800F0D4F9601C4D
:10488000C4B2062CF5DB10BD60030020F8B5044669
:104890000D4616461F46062C00DBF8BD1821614365
:1048A000044A88183B463246294600F09DF900BF6D
:1048B000F3E700006003002010B504F0EBFF0024D4
:1048C00021E00A2118206043104A8018C180A0000E
:1048D0000F4909581820604380180161A0000D4954
:1048E00009581820604380184161182161438818D5
:1048F00000F08EF9FF23F5331A4602212046FFF718
:10490000C5FF601CC4B2062CDBDB10BD60030020B9
:10491000340100201C01002010B504462146FF315F
:104920008F31034A5143084603F0E2F810BD0000FE
:1049300040420F0010B501200349087003490448A4
:10494000FFF746FC10BD00004C0100208C05000064
:104950007008002010B505F013F8164816490860D5
:10496000FF200530486000211348816007210902BB
:10497000C160002101614161012149028161282159
:10498000C16100210162416281620721C16201F0BF
:1049900087FF002801D000F0D7FF074800680068B3
:1049A00040210843044909680860FFF7C3FF02F08B
:1049B0000BFE10BD00380040F003002070B5054626
:1049C0000C46224629460448FFF7E9FB03480480C9
:1049D000052005F077FF70BD540400205405002029
:1049E00010B505F05FFA184818490860E120400248
:1049F0004860002115488160C160016181610C211E
:104A0000416102F0CFF911480068006840218843F5
:104A10000E49096808600D480068006820210843B5
:104A20000A49096808601C2001F0A6FA0022114614
:104A30001C2001F0AFFA40200449096808620021F7
:104A40000348017210BD00000044004058050020DA
:104A5000D806002070B504460D467D23DB002A46AB
:104A60002146024802F0C4FA70BD0000580500203B
:104A7000F7B52C4B9D440121C90202A8FFF7A8FB02
:104A8000294868448068294946182748684480684E
:104A900045056D0D24486844046928192249884257
:104AA00001D8274601E02048471B00BFF10AC80291
:104AB0001D4A02A9FFF7A0FE02A948193A461A4961
:104AC0006944C968FFF76BFBF20A521CD102F20A73
:104AD000D002FFF755FEF10AC802134A02A9FFF7F8
:104AE0009EFEE41B002C13D0012101910025C80279
:104AF00036186844C068C1190B486844C160281959
:104B00000949884201D8274604E00748471B01E0CD
:104B10000020019001980028C8D1034B14339D4414
:104B2000F0BD0000F8F7FFFF0008000000E00108FA
:104B3000FFB52B4CA5440121C90201A8FFF748FB92
:104B400028486844816840680E1826486844806890
:104B500045056D0D23486844046928192149884298
:104B600001D8274601E01F48471B00BFF10AC802D1
:104B70001C4A01A9FFF740FE01A948193A46194904
:104B80006944C968FFF70BFBF20A521CD102F20A12
:104B9000D002FFF7F5FDF10AC802124A01A9FFF79A
:104BA0003EFEE41B002C11D0012100910025C8021B
:104BB00036186844C168C919C16028190949884272
:104BC00001D8274604E00748471B01E00020009079
:104BD00000980028CAD1034C1434A544F0BD00004D
:104BE000FCF7FFFF0008000030B50478002C00D06F
:104BF00030BD0124047041704280838044888588E0
:104C0000641945786C4304810024448100BFEFE7B8
:104C100010B50446002060706080A0802081207064
:104C20006069804710BD70B50446E18820460A30AF
:104C300003F07EFC012800D170BD6078FF2804D10C
:104C40002069804700202070F6E72189A0898142F1
:104C500004DB2189A089081A208101E0002020813D
:104C60006078002802D02089002804D1606980473C
:104C700000202070E0E76088A18845182089294637
:104C8000FFF736FAA088814202D92069804701E007
:104C9000606980476078FE2807D12189FD2068433C
:104CA000814202D1FE206843208100BFC4E700009A
:104CB00000B587B0274828490860E12040024860D5
:104CC000002125488160C160016181610C21416141
:104CD00002F068F8204800680068402188431E49B7
:104CE000096808601C4800680068202108431A49C8
:104CF000096808601B2001F03FF9002211461B20C3
:104D000001F048F9402014490968086200BF1348BF
:104D10004069012149040843104948610846406937
:104D2000012149040840019000BF00BF8810029093
:104D30000120039000200490059002A90920C006DC
:104D400000F0ACFF00210648017200200549C87040
:104D500007B000BD00380140E4060020001002400A
:104D6000640800200A02002070B504460D467D2329
:104D7000DB002A462146024802F03AF970BD0000E5
:104D8000E4060020F3B581B005460024002600208B
:104D90000090002754E0E85D2855002C05D1285DDF
:104DA0006A284BD1601C84B248E0012C07D1285DF1
:104DB000012802D1601C84B240E000243EE0022CB5
:104DC00004D1285D0602601C84B237E0032C08D1B0
:104DD000285D0643FF2E02DC601C84B22EE0002416
:104DE0002CE0042C02D1601C84B227E0701DA0428C
:104DF00002DD601C84B221E0701DA04205D1285D57
:104E000000020090601C84B218E0B01DA04215D1D1
:104E1000285D009908430090701D81B2284604F077
:104E200083FE0099884205D1701C81B2281D04F0D0
:104E30009FFE02E005A003F017FF0024781C87B254
:104E400002988742A7DB0024FEBD00004C6F726110
:104E500050726F5265632044617461204343532054
:104E60006973206572726F72210D0A0010B50121FD
:104E7000194803F05DFB012800D110BD17484069B7
:104E8000002826D0154A11695069FFF731F9002929
:104E900010D112484169806981420BD80F48017ACC
:104EA000FF3801380078C0000D4BC01842680B482D
:104EB000F838904709484069401E0849486108464B
:104EC0004069002805D107A003F0CEFE002004F0C1
:104ED00077FE00BFD1E700005001002070090020DC
:104EE00044AB000853454E44206973206E6F742014
:104EF000726563657665206973200D0A0000000005
:104F000010B528480078002800D110BD00202549A0
:104F1000087064231A4602210520FFF7B7FC2248D7
:104F2000007801281BD121A003F09EFE002406E09A
:104F30002548015D25A003F097FE601C84B225483A
:104F40000079A042F4DC24A003F08EFE2148007911
:104F5000C01E81B21C48C01CFFF714FF1FE012489E
:104F6000007802281BD11DA003F07EFE002406E07D
:104F70001548015D15A003F077FE601C84B215484A
:104F80000079A042F4DC14A003F06EFE1148007911
:104F9000C01E81B200220C48C01C02F0B3F900BF51
:104FA000B3E700004F0100204C0100207265632030
:104FB000646174612066726F6D206C6162656C2043
:104FC00069733A0D0A000000141C002020253032BD
:104FD00078000000841D00200D0A00005265636502
:104FE00069766520446174612066726F6D206C6122
:104FF00062656C205768656E205570646174652029
:10500000417320486578206973203A0D0A0000003A
:105010007CB504460D462078FF2806D16078FF282D
:1050200003D101200749087002E0002005490870FB
:1050300000237D221201012118460195009404F0FD
:10504000DDFD7CBD4E01002030B5C1B005460C46EB
:10505000FF21013101A8FFF7BBF80B4800880112BE
:10506000684601710848017868464171FF218171E5
:1050700022462946C01DFFF792F8E01C81B201A824
:10508000FFF79CFC41B030BD7201002010B501213A
:105090001A4803F04DFA012800D110BD18484069A4
:1050A000002829D0164A11695069FFF721F8002914
:1050B00010D113484169806981420BD81048017AA8
:1050C000FF3801380078C0000E4BC01842680C4809
:1050D000F83890470A484069401E09494861084627
:1050E0004069002808D108A003F0BEFD0D490E4814
:1050F000FFF76EF804F0D7FE00BFCEE75E01002098
:10510000FC1100207CAB000853454E4420697320FD
:105110006E6F7420726563657665206973200D0A71
:10512000000000008C050000FC10002010B5E4E039
:105130000121AF4801720021C1804088AD49085C5F
:10514000AD49AE4A12888854AD480078022805D18E
:10515000AA480088401CA9490880BBE0A7480088ED
:1051600000280BD1A448A5490988405C6A28F4D1DD
:10517000A2480088401CA1490880ABE09F480088F5
:1051800001280FD19C489D490988405C012805D120
:105190009A480088401C994908809BE00020974964
:1051A000088097E09548008802280CD192489349DE
:1051B0000988405C00029349088090480088401CA0
:1051C0008E49088086E08D480088032816D18A48D9
:1051D0008A490988405C8B490988084389490880C5
:1051E00008460088FF2805DC84480088401C834965
:1051F00008806FE00020814908806BE07F480088CC
:10520000042805D17D480088401C7C49088061E065
:105210007C480088401D79490988884205DD774827
:105220000088401C7549088054E076480088401D7D
:105230007249098888420CD16F4870490988405CDE
:105240000002714908806D480088401C6B49088045
:1052500040E06C480088801D68490988884239D13F
:10526000654866490988405C67490988084366497A
:10527000088066A003F0F8FC002406E05E48015DAB
:105280006AA003F0F1FC601C84B25C480088401EF8
:10529000A042F3DC67A003F0E7FC5B48018866A04E
:1052A00003F0E2FC57480088401D81B2524803F0E9
:1052B000F1FF55490988884206D1524801884E4875
:1052C000001D04F00BF802E05FA003F0CDFC00200D
:1052D0004A49088049480088FF2802D900204749E8
:1052E000088043484088401C81B241484180408842
:1052F000FF2802D900213E4841803D48018840886E
:10530000814200D014E70121554803F011F901282A
:1053100000D110BD3648C0885249884205DA344869
:10532000C088401C81B23248C1803148C0884D4994
:10533000884202D100212E4801722D48C0881428CD
:1053400054D12E480088002850D047A003F08CFC90
:10535000002406E02848015D34A003F085FC601CB1
:1053600084B2264800888442F4DB32A003F07CFC3F
:1053700023480078022831D1204800880B281DD10D
:105380001D4800786A2819D11B484078012815D19A
:1053900019488078002811D11748C07804280DD109
:1053A00015480079702809D11348007A002805D1E2
:1053B00001201349087000F0C8FA0FE00F48018877
:1053C0000D48FFF741FE0D480088012806D10A4824
:1053D0000078042802D101202E490870FF210131F4
:1053E0000548FEF7F5FE00200449088000BF90E75D
:1053F000D8060020D8050020FC0D00205601002012
:105400004C010020540100205C0100205043205238
:105410006563656976652044617461204173204845
:105420006578206973203A0D0A000000202530328B
:10543000780000000D0A0000636373206973202563
:105440003034780D0A0000006363732069732065AF
:10545000727220696E20353932210D0A0000000079
:1054600058010020FFFF000050432052656365692A
:1054700076652044617461205768656E20557064BC
:1054800061746520417320486578206973203A0D66
:105490000A0000007501002010B501211A4803F030
:1054A00047F8012800D110BD18484069002829D0CC
:1054B000164A11695069FEF71BFE002910D11348E6
:1054C0004169806981420BD81048017AFF38013860
:1054D0000078C0000E4BC01842680C48F83890475E
:1054E0000A484069401E0949486108464069002849
:1054F00008D108A003F0B8FB0D490E48FEF768FE7E
:1055000004F0D2FC00BFCEE76E0100208817002017
:105510007CAB000853454E44206973206E6F7420A5
:10552000726563657665206973200D0A00000000CE
:105530008C0500008816002010B509E10021CD4837
:10554000C1804088CC49085CCC49CD4A1288885437
:10555000CB480088FF2803D90020C949088004E00F
:10556000C7480088401CC6490880C2484088C249D4
:10557000085CC449C44A12888854C448C0780028CA
:1055800002D1C1490880D0E0C1480078022805D185
:10559000BD480088401CBC490880C6E0BA48008865
:1055A00000280BD1B748B8490988405C6A28EAD17D
:1055B000B5480088401CB4490880B6E0B24800886D
:1055C00001280FD1AF48B0490988405C012805D1B6
:1055D000AD480088401CAC490880A6E00020AA49DC
:1055E0000880A2E0A848008802280CD1A548A64956
:1055F0000988405C0002A7490880A3480088401C35
:10560000A149088091E0A0480088032816D19D4850
:105610009D490988405C9F49098808439D49088045
:1056200008460088FF2805DC97480088401C9649FA
:1056300008807AE000209449088076E0924800884B
:10564000042805D190480088401C8F4908806CE0F0
:1056500090480088401D8C490988884205DD8A48A9
:105660000088401C884908805FE08A480088401D07
:105670008549098888420CD1824883490988405C61
:1056800000028549088080480088401C7E490880C7
:105690004BE080480088801D7B490988884244D1BE
:1056A000784879490988405C7B49098808437A49E8
:1056B00008807AA003F0D8FA002406E07148015D62
:1056C0007EA003F0D1FA601C84B26F480088401EAF
:1056D000A042F3DC7BA003F0C7FA6F4801887AA0F0
:1056E00003F0C2FA6B480088401D81B2654803F0A0
:1056F000D1FD69490988884211D17748007A01288B
:1057000006D1604908790222FF2104F0EFFB09E08D
:10571000604801885B48001D03F0E0FD02E06FA0D7
:1057200003F0A2FA00205849088057480088FF2853
:1057300002D90020544908804E484088401C81B25C
:105740004C4841804088FF2802D9002149484180C7
:10575000484801884088814200D0EFE60121654831
:1057600002F0E6FE012800D110BD4248C08862491F
:10577000884205DA3F48C088401C81B23D48C1805C
:105780003C48C08814281AD13D480088002816D00B
:105790003D480088002812D158A13848FEF723FD63
:1057A000002801D0012000E0002057490870FF21A7
:1057B00001313248FEF70CFD0020314908802D48A8
:1057C000C088142854D130480088002850D04FA0F9
:1057D00003F04AFA002406E02A48015D37A003F0EE
:1057E00043FA601C84B2284800888442F4DB35A068
:1057F00003F03AFA26480078022831D1224800887E
:105800000B281DD11F4800786A2819D11D484078FF
:10581000012815D11B488078002811D11948C0787B
:1058200004280DD117480079702809D11548007A4D
:10583000002805D101201649087000F086F80FE015
:10584000114801880F48FFF7FFFB0F480088012827
:1058500006D10C480078042802D10120364908708E
:10586000FF2101310748FEF7B3FC002006490880FC
:1058700000BF79E76408002064070020FC0F0020C7
:105880006C010020FC0E0020640100200A020020B0
:105890004C010020620100206A0100205043205288
:1058A00065636569766520446174612041732048B1
:1058B0006578206973203A0D0A00000020253032F7
:1058C000780000000D0A00006363732069732025CF
:1058D0003034780D0A000000D8060020636373207E
:1058E00069732065727220696E20353932210D0A84
:1058F0000000000066010020FFFF0000434C4F53F2
:1059000045440D0A000000000802002050432052C8
:105910006563656976652044617461205768656ECA
:105920002055706461746520417320486578206952
:1059300073203A0D0A0000007501002010B5012007
:10594000400300F09BF910BD7047704700200749E5
:10595000C8610748006904210843054908610846F1
:10596000006940210843024908617047B0020020E5
:10597000002002400021084AD16108490969022239
:105980001143064A116111464861096940221143D9
:10599000024A116170470000B0020020002002405E
:1059A0000022054BDA61054A126901231A43034BB1
:1059B0001A61018070470000B00200200020024000
:1059C00000200F49C96810221140102907D10D4944
:1059D000C969022211430B4AD161102108430849C9
:1059E000C96804221140042907D10649C969012266
:1059F0001143044AD161042108430149C86070473A
:105A000000200240B002002070B5044600F048FAC1
:105A100005460BE0601C002808D0002C04D000F0E4
:105A20003FFA401BA04201D9032070BD0F48C06857
:105A3000C007C00F0028EDD10C48C06820210840E5
:105A4000202801D10949C8600848C06810210840D1
:105A5000102805D00548C06804210840042803D157
:105A6000FFF7AEFF0120E0E70020DEE70020024064
:105A700001460A46C817400E8018C011C001081A16
:105A8000C0B2704770B5044600F00AFA06462546D3
:105A9000681C002802D0054800782D1800BF00F0CF
:105AA000FFF9801BA842FAD370BD00000C01002052
:105AB000F8B504460E460127002500BF2448007EA5
:105AC000012801D10220F8BD01202149087600BF3C
:105AD0002068012811D11F48FFF796FF002830D118
:105AE000FFF734FF1B48FFF78FFF07461A4800698E
:105AF000042188431849086123E01648FFF784FF12
:105B000000281ED1401E3060656813E02846FFF76C
:105B100031FF1048FFF778FF07460F480069022160
:105B200088430D490861002F01D0356008E001204D
:105B3000C0022D18A068C00261684018A842E5D8CC
:105B400000BF00BF00200249087600BF3846BAE710
:105B5000B002002050C3000000200240034800694A
:105B6000802108430149086100207047002002405D
:105B7000F0B51FB486B0074615461E4601200390B7
:105B800000240020029000BF2548007E012802D199
:105B900002200BB0F0BD01202149087600BF21484A
:105BA000FFF732FF03900398002831D1012F02D173
:105BB0000120029006E0022F02D10220029001E0B3
:105BC0000420029000241FE022012846314604965A
:105BD0000595FEF7D3FA80B2610001900798081886
:105BE00000900199FFF7DCFE0E48FFF70DFF0390D0
:105BF0000D480069400840000B49086103980028DF
:105C000000D004E0601CC4B202988442DCDB00BF18
:105C100000BF00200249087600BF0398B9E70000E2
:105C2000B002002050C300000020024000200949BB
:105C300009698022114000290BD00749054A5160AB
:105C4000064951601146096980221140002900D09F
:105C5000012070470020024023016745AB89EFCD4A
:105C600001214903411A03D10121034A117000E0C7
:105C700000BF00BF704700007601002010B5044649
:105C8000054840692040002804D00348446120466C
:105C9000FFF7E6FF10BD00000004014078B50346A1
:105CA0000022E2E0012696400C683440002C7DD0B2
:105CB0004D68022D02D04D68122D15D1D508AE00C9
:105CC0001D462035A8595507EE0E0F25B54006464E
:105CD000AE4330465607F60E0D69B5402843D50849
:105CE000AD001E4620367051186856000325B54099
:105CF0000646AE4330460D79AD07AD0F5600B540B0
:105D0000284318604D68012D08D04D68022D05D03C
:105D10004D68112D02D04D68122D18D1986856008B
:105D20000325B5400646AE4330465600CD68B54023
:105D3000284398605868012595400646AE43304692
:105D400010264D6835402D09954028435860D86885
:105D500056000325B5400646AE43304656008D68D2
:105D6000B5402843D860012636074D683540B54216
:105D70007AD100BF404DAD69012635433E4EB56135
:105D80003546AD69ED07ED0F009500BF00BF3B4DF7
:105D90009608B600A85995072E0F0F25B540064660
:105DA000AE4330460925ED06AB4200E05CE001D190
:105DB000002514E0324DAB4201D101250FE0314DF9
:105DC000AB4201D102250AE02F4DAB4201D10325A0
:105DD00005E02E4DAB4201D1042500E005259607D4
:105DE000360FB5402843254D9608B600A851284DDA
:105DF00028680546A5432846012636044D683540E7
:105E0000B54202D1054625432846214D28606868E1
:105E10000546A5432846012676044D683540B5421F
:105E200002D1054625432846194D6860A8680546F5
:105E3000A5432846012636054D683540B54202D1B6
:105E4000054625432846124DA860E8680546A54347
:105E50002846012676054D683540B54202D10546F3
:105E6000254328460A4DE860521C0D68D540002D98
:105E700000D017E778BD0000001002400800014084
:105E80000004004800080048000C004800100048CA
:105E900000040140002A01D0816100E08162704766
:105EA00001480068704700000401002003480068B2
:105EB000034909784018014908607047040100202F
:105EC0000C01002010B50648006810210843044961
:105ED0000860002000F006F800F02EF8002010BD49
:105EE0000020024070B50446104801787D20C000B3
:105EF000FEF7FEF8064631460D480068FEF7F8F852
:105F0000054600F033FF002801D0012070BD042CAD
:105F100007D200222146501E00F03CF805480460DC
:105F200001E00120F2E70020F0E700000C01002072
:105F3000100100200801002008B500BF0D4880694D
:105F4000012108430B49886108468069C007C00FDA
:105F5000009000BF00BF00BF0846C06909040843A5
:105F60000449C8610846C06909040840009000BFA0
:105F700000BF08BD001002400146002905DBCB062A
:105F8000DB0E01229A40024B1A6000BF70470000EE
:105F900000E100E070B504460D461646294620464D
:105FA00003F0A8FE70BD000070B504460D46002C3D
:105FB00001D1012070BD58480068C007C00FA84239
:105FC0000ED25548006840084000284352490860F6
:105FD00008460068C007C00FA84201D00120E9E7C9
:105FE000022120680840022814D1042120680840BA
:105FF000042807D14948406807210902884340180E
:106000004649486045484068F0218843A1680843F4
:10601000424948602078C007C00F002847D0606818
:10602000012808D13D4800680121490408400028A2
:1060300021D10120BEE76068022808D137480068F6
:10604000012149060840002815D10120B2E7606807
:10605000032808D13148406B012109040840002879
:1060600009D10120A6E72D48006802210840002838
:1060700001D101209EE729484068800880006168BE
:10608000084326494860FFF70BFF064607E0FFF785
:1060900007FF801B2249884201D903208AE71F4855
:1060A00040680C210840616889008842EFD11A4895
:1060B0000068C007C00FA8420ED917480068400802
:1060C000400028431449086008460068C007C00F14
:1060D000A84201D001206DE704212068084004286F
:1060E00008D10E484068072109028843E168084347
:1060F0000A49486000F032F808494968F022114026
:106100000909084A515CC840074908600020FFF7A8
:10611000E9FE00204EE7000000200240001002408F
:1061200088130000E3AA000810010020014800685D
:10613000704700001001002000B5FFF7F7FF054988
:106140004968072212021140090A034A515CC840FB
:1061500000BD000000100240F3AA0008F0B589B0AD
:1061600035A001460EC9C06805AC0EC4089036A023
:1061700001460EC9C06801AC0EC40490002500247D
:106180000027002600200090334845680C20284056
:10619000002849D0042804D0082805D00C2842D172
:1061A0003EE02E48009042E00F2080042840800C02
:1061B00005A90E5C2848C06A0007000F01A90C5C05
:1061C0000320C00328400121090488420AD1224645
:1061D000002322481946FDF7A1FF314602F07FFD5A
:1061E00007461BE00320C00328400321C90388425F
:1061F0000AD1224600231A481946FDF78FFF31467F
:1062000002F06DFD074609E02246002313481946B7
:10621000FDF784FF314602F062FD0746009706E075
:106220000F48009003E000BF0C48009000BF00BF83
:10623000009809B0F0BD0000020304050607080934
:106240000A0B0C0D0E0F10100102030405060708BF
:10625000090A0B0C0D0E0F100010024000127A00FC
:10626000006CDC02FEB50446002C01D10120FEBD0D
:106270002078C007C00F002872D0FC4840680C216D
:10628000084004280CD0F94840680840082813D179
:10629000F6484068490308400121090488420BD1AF
:1062A000F248006801214904084000286BD060686A
:1062B000002868D10120DAE700BF6068012807D113
:1062C000EA480068012109040843E849086031E010
:1062D000606800280ED1E548006801210904884360
:1062E000E249086008460068012189048843DF49C3
:1062F00008601FE0606805280ED1DC4800680121B5
:1063000089040843D9490860084600680121090446
:106310000843D64908600DE0D4480068012109040B
:106320008843D249086008460068012189048843EF
:10633000CE49086000BF6068002812D0FFF7B0FDAA
:10634000054606E0FFF7ACFD401B642801D9032099
:106350008DE7C64800680121490408400028F1D0B3
:1063600011E0FFF79DFD054606E0FFF799FD401B94
:10637000642801D903207AE7BC4800680121490458
:1063800008400028F1D1022120680840022862D18B
:10639000B64840680C21084000280CD0B34840683B
:1063A000084008281CD1B148406849030840012131
:1063B000C903884214D1AD48006802210840002872
:1063C00004D0E068012801D0012050E7A748006808
:1063D000F82188432169C9000843A44908603AE0CC
:1063E000E068002820D0A1480068012108439F49A7
:1063F0000860FFF755FD054606E0FFF751FD401B1D
:10640000022801D9032032E7984800680221084099
:106410000028F2D095480068F82188432169C90016
:1064200008439249086016E0904800684008400020
:106430008E490860FFF734FD054606E0FFF730FDA2
:10644000401B022801D9032011E788480068022177
:1064500008400028F2D1082120680840082831D1DE
:10646000E069002817D08148406A012108437F492C
:106470004862FFF715FD054606E0FFF711FD401BDA
:10648000022801D90320F2E67848406A0221084038
:106490000028F2D016E07548406A40084000734971
:1064A0004862FFF7FDFC054606E0FFF7F9FC401BDC
:1064B000022801D90320DAE66C48406A022108402C
:1064C0000028F2D1042120680840042872D100205D
:1064D00001906648C0698906084000280ED100BFB7
:1064E0006248C06908436149C8610846C069090437
:1064F0000840009000BF00BF012001905C48006888
:10650000FF2101310840002816D15948006808438E
:1065100057490860FFF7C4FC054606E0FFF7C0FCDA
:10652000401B642801D90320A1E651480068FF21DF
:10653000013108400028F1D000BFA068012806D131
:106540004A48006A01210843484908622AE0A068D5
:1065500000280BD14548006A4108490043480162C0
:10656000006A04218843414908621BE0A0680528AD
:106570000CD13E48006A042108433C4908620846A1
:10658000006A01210843394908620BE03748006A74
:1065900040084000354908620846006A04218843E3
:1065A0003249086200BFA068002813D0FFF778FCCA
:1065B000054608E02BE0FFF773FC401B2D4988429D
:1065C00001D9032053E62948006A02210840002827
:1065D000F1D011E0FFF764FC054607E0FFF760FC2F
:1065E000411B2448814201D9032040E61F48006A2C
:1065F000022108400028F1D10198012806D11B484A
:10660000C0690121090788431849C86100BF1021EA
:106610002068084010285FD1606901282CD11348F8
:10662000406B04210843114948630846406B01212F
:1066300008430E494863FFF733FC054606E0FFF7C1
:106640002FFC401B022801D9032010E60748406BAD
:10665000022108400028F2D00448406BF82188430A
:10666000A169C90008430149486335E000100240B0
:1066700000700040881300006069401D00280FD1A1
:106680008648406B04218843844948630846406B30
:10669000F8218843A169C9000843804948631BE089
:1066A0007E48406B042108437C4948630846406BA0
:1066B000400840004863FFF7F3FB054606E0FFF79C
:1066C000EFFB401B022801D90320D0E57348406B43
:1066D000022108400028F2D120212068084020280B
:1066E00052D16E4840680C2108400C280AD06B48F3
:1066F00040680840082811D16848406849030840AC
:1067000088420BD16548406B0121090408400028EC
:106710003AD0206A012837D00120A8E5206A002855
:1067200019D05E48406B0121090408435B49486366
:10673000FFF7B6FB054606E0FFF7B2FB401B022859
:1067400001D9032093E55548406B01210904084015
:106750000028F1D018E05148406B0121090488431A
:106760004E494863FFF79CFB054606E0FFF798FBA0
:10677000401B022801D9032079E54848406B0121DC
:10678000090408400028F1D1606A00284FD043482E
:1067900040680C210840082864D0606A022847D16C
:1067A0003E4800680121090688433C490860FFF71C
:1067B00077FB054606E0FFF773FB401B022801D973
:1067C000032054E5354800680121490608400028A7
:1067D000F1D100BF3148C06A00090001216B0843B4
:1067E0002E49C862A16AE06A08432C4949687B22A5
:1067F000D203914308432949486000BF0846006816
:1068000001210906084325490860FFF749FB0546B1
:1068100006E0FFF745FB401B022801D9032026E5CF
:106820001E4800680121490608400028F1D033E0E5
:106830001A48006801210906884318490860FFF7D3
:106840002FFB054606E0FFF72BFB401B022801D972
:1068500003200CE511480068012149060840002882
:10686000F1D119E0606A012800D100E50B484668C3
:10687000C76A0320C0033040A16A88420AD13907A1
:10688000090F206B814205D10F2080043040E16A5E
:10689000884201D00120EAE40020E8E40010024030
:1068A00070B50446002C01D1012070BD606A00283B
:1068B00000D100BF0021A1625D20005D002804D14D
:1068C0005C200155204600F059F802215D20015559
:1068D0002068006840218843216808600721090278
:1068E000E068884201D9002501E001252D030F2130
:1068F0000902E068884206D007210902E068884260
:1069000001D00021A162206B002809D107210902D2
:10691000E068884202D90221216301E0012121635C
:10692000A16860680843216908436169084301223E
:106930005202A16911400843E1690843216A0843F2
:10694000A16A084321680860A069000C042108407E
:10695000616A0843616B0843E16808432843216882
:1069600048602068C069910088432168C8610020A0
:10697000206601215D200155002096E710B586B004
:106980000446142101A8FDF723FC374920688842FA
:1069900067D100BF3548C069091408433349C8614D
:1069A0000846C069012189030840009000BF00BF6C
:1069B00000BF2E484069090108432C494861084638
:1069C0004069012189040840009000BF00BF4811C0
:1069D00001900220029000200390032004900020E8
:1069E000059001A92248FFF759F900BF1F484069E7
:1069F0000121890408431D49486108464069012175
:106A000089040840009000BF00BFC8100190022018
:106A1000029000200390032004900020059001A91B
:106A20001348FFF73BF900BF104840690121890472
:106A300008430E494861084640690121890408401D
:106A4000009000BF00BF08110190022002900020BA
:106A50000390032004900020059001A90448FFF74B
:106A60001DF906B010BD00000038004000100240C3
:106A700000040048FFB587B004461D46109E012063
:106A800002900020019007210902E068884204D8A2
:106A9000E068884202D8012D00D900BF00BF5C2009
:106AA000005D012802D102200BB0F0BD01215C2065
:106AB000015500BFFFF7F4F907465D20005D039024
:106AC0006068049006950595039801280DD0FF2174
:106AD00005310498884205D1A068002802D10398A6
:106AE000042802D00220019036E10898002804D042
:106AF0000998002801D0002D02D1012001902BE13E
:106B00005D20005D042802D005215D200155002094
:106B100020660998206446200553442005530898B0
:106B2000A063E587A5870020E064206507210902AE
:106B3000E068884202D80598012807D92068406893
:106B40000121090388432168486006E02068406805
:106B5000012109030843216848602068006840213A
:106B60000840402804D02068006808432168086075
:106B700007210902E068884254D96068002802D0E1
:106B80000698012809D1A06B00882168C860A06B15
:106B9000801CA063E08F401EE0873BE02068806897
:106BA00002210840022811D1E08F00280ED002985F
:106BB00001280BD1A06B00882168C860A06B801CE5
:106BC000A063E08F401EE08700200290206880686C
:106BD000C007C00F002812D04620005B00280ED04E
:106BE0002068C068216C0880206C801C20644620CE
:106BF000005B401E81B24620015301200290FFF746
:106C00004FF9C01BB04205D3701C002802D00320EE
:106C10000190A1E0E08F0028C0D14620005B002851
:106C2000BCD18DE06068002802D00698012817D1F9
:106C3000E08F01280AD9A06B00882168C860A06B8A
:106C4000801CA063E08F801EE08709E0A06B0078C5
:106C500021680873A06B401CA063E08F401EE08792
:106C600067E0206880680221084002281FD1E08F79
:106C700000281CD00298012819D1E08F01280AD9D8
:106C8000A06B00882168C860A06B801CA063E08FA7
:106C9000801EE08709E0A06B007821680873A06B74
:106CA000401CA063E08F401EE08700200290206817
:106CB0008068C007C00F00282ED04620005B002847
:106CC0002AD04620005B012817D92068C068216CB3
:106CD0000880206C801C20644620005B801E81B2EE
:106CE00046200153005B012814D820684068012128
:106CF00009030843216848600CE02068007B216C90
:106D00000870206C401C20644620005B401E81B24D
:106D10004620015301200290FFF7C2F8C01BB04289
:106D200002D3701C002801D1002E02D10320019053
:106D300012E0E08F002894D14620005B002890D11B
:106D40003A463146204600F053FB002803D001208C
:106D500001902020206600BF01215D20015500BF69
:106D600000215C20015500BF01989DE670B50446E6
:106D70002546681E0949884201D901200CE0681E99
:106D8000074948610321081F02F0B4FF00200449AD
:106D9000886107200861002070BD0000FFFFFF0030
:106DA00000E000E010B50446002C01D1012010BD28
:106DB000A069002800D000E000BF606F002805D166
:106DC000002170200155204600F02CF82420606737
:106DD000206800684008400021680860204601F0F3
:106DE0006FFD012800D1E2E7606A002802D020464A
:106DF00001F0B5FC206840680921C9028843216878
:106E00004860206880682A2188432168886020685B
:106E100000680121084321680860204601F018FD40
:106E2000C5E7000010B586B00446142101A8FDF79F
:106E3000CFF96A49206888422ED100BF6848C069EE
:106E40000121C90408436649C8610846C069012197
:106E5000C9040840009000BF00BF00BF60484069FF
:106E6000891008435E494861084640690121490488
:106E70000840009000BF00BF012001900220029056
:106E800000200390032004900420059001A909200C
:106E9000C006FEF703FF9FE05249206888424CD1AC
:106EA00000BF4F48C0690121490408434C49C861EB
:106EB0000846C069012149040840009000BF00BF96
:106EC00000BF474840690843454948610846406952
:106ED000012149040840009000BF00BF0420019038
:106EE00002200290002003900320049001200590CE
:106EF00001A90920C006FEF7D1FE00BF384840694D
:106F00000121490408433649486108464069012186
:106F100049040840009000BF00BF082001900220F3
:106F2000029000200390032004900120059001A905
:106F30000920C006FEF7B2FE4EE02B4920688842C9
:106F40004AD100BF264880690121890308432449AA
:106F5000886108468069012189030840009000BFCC
:106F600000BF00BF1E484069090108431C49486131
:106F700008464069012189040840009000BF00BF15
:106F800040200190022002900020039003200490F2
:106F90000020059001A91548FEF780FE00BF1048AB
:106FA00040690121890408430D4948610846406948
:106FB000012189040840009000BF00BF802001909B
:106FC00002200290002003900320049000200590EE
:106FD00001A90648FEF762FE06B010BD004C004055
:106FE0000010024000440040003801400004004806
:106FF000FFB583B004460D461746606F202875D153
:10700000002D01D0002F02D1012007B0F0BD0121D9
:107010000903A068884208D12069002805D1E80743
:10702000C00F002801D00120EFE700BF7020005DF5
:10703000012801D10220E8E701217020015500BF9D
:107040000020E06721206067FEF72AFF01905020B2
:1070500007535220075301210903A068884205D134
:107060002069002802D10026029502E02E46002069
:10707000029021E006980090002280212046019B8A
:1070800001F038FD002801D00320BEE7002E09D111
:1070900002980088C005C00D216808850298801CF0
:1070A000029003E0307821680885761C5220005B4E
:1070B000401E81B2522001535220005B0028D9D1DA
:1070C00006980090002240212046019B01F012FD0D
:1070D000002801D0032098E72020606700BF00212E
:1070E0007020015500BF00208FE7FFE702208CE7EA
:1070F0007047000017E000BF00BF00BF00BF00BF27
:10710000BFF34F8F00BF00BF00BF07480749C860EB
:1071100000BF00BF00BFBFF34F8F00BF00BF00BF65
:1071200000BF00BFFDE7E6E70400FA0500ED00E060
:107130007047000010B5044612A001F095FD002C28
:1071400016D01348007801280AD100201049087091
:10715000104800F0F7FDFF21012000F0EDFC0FE0EA
:107160000B480078401C0A49087001F0F7F807E066
:1071700000200749087001221146104603F0C2FBA7
:1071800010BD000063616420646F6E650D0A00002D
:1071900085010020B80B0000F8B505460E461746DD
:1071A000002405E0295D16A001F05EFD601CC4B25C
:1071B000B442F7DB314613A001F056FD14480088B5
:1071C000001214490978884213D1114800781149F6
:1071D000497888420DD101200F49087001221146DB
:1071E000104603F08FFB01220A21022003F08AFBE4
:1071F00004E001221146022003F084FBF8BD0000E8
:107200002578200073697A65203D2025640D0A00E9
:1072100014010020141C00204F01002010B507A00D
:1072200001F022FD01221146104603F06BFB012202
:107230000A21022003F066FB10BD00007278206571
:1072400072726F720D0A000010B507A001F00CFDFC
:1072500001221146104603F055FB01220A210220AB
:1072600003F050FB10BD000072782074696D656FEB
:1072700075740D0A0000000010B5FF21012000F018
:107280005BFC002000F05EFD10BD000010B507A003
:1072900001F0EAFC01221146104603F033FB012203
:1072A0000A21022003F02EFB10BD00007478207428
:1072B000696D656F75740D0A000000000A7812028E
:1072C0004B781A430280704730B503460C460021C4
:1072D00008E0585C655CA84202D0481CC0B230BDD2
:1072E000481CC1B29142F4DB0020F8E70248008854
:1072F000401C0149088070470001002002120A70FA
:107300004870704770B505460E461446002C03D1F0
:107310000748007A012801D0012C04D131462846C3
:10732000FDF798FB03E031462846FDF71DFD70BDD3
:10733000D806002070470000F0B585B0092000F0A5
:1073400011FB0390062000F00DFB0704072000F05E
:1073500009FB00020743082000F004FB07433C46FA
:107360002046FDF73BF800221F4B01910090FCF7EF
:1073700055FF0546FDF740F802900021092001F075
:1073800049F83B2000F0EEFABF21084004464034A3
:1073900021463B2001F03EF800BF3B2000F0E2FA1E
:1073A000202108402028F8D0104800F0A1FB3B2005
:1073B00000F0D8FABF2108400446403421463B2063
:1073C00001F028F800BF3B2000F0CCFA2021084053
:1073D0002028F8D00920039901F01CF8029800F049
:1073E00087FB05B0F0BD000080844E4000A1BC3397
:1073F000F8B504460E461546334600220321C9025D
:107400002046009500F029F8002805D0206E2021A4
:10741000084320660320F8BD334600228021204621
:10742000009500F071F8002805D0206E2021084357
:1074300020660320EFE7334600220321490220465D
:10744000009500F00AF8002805D0206E202108439E
:1074500020660320DFE70020DDE7F8B504460E468E
:1074600017461D4649E003204002864203D1002F03
:1074700001D12068007B681C00283ED0FEF710FD7B
:107480000699401AA84201D2002D36D120684068E2
:10749000E021884321684860FF2105316068884207
:1074A0000ED10121C903A068884203D04911A06808
:1074B000884205D12068006840218843216808601F
:1074C00001214903A06A88420DD100BF20680068ED
:1074D0008843216808602068006801214903084347
:1074E0002168086000BF01215D20015500BF002117
:1074F0005C20015500BF0320F8BD20688068304043
:10750000B842B0D10020F7E7F8B504460E4617465A
:107510001D4641E0681C00283ED0FEF7C1FC0699DC
:10752000401AA84201D2002D36D120684068E021DF
:10753000884321684860FF210531606888420ED188
:107540000121C903A068884203D04911A06888427C
:1075500005D1206800684021884321680860012126
:107560004903A06A88420DD100BF206800688843A3
:1075700021680860206800680121490308432168E8
:10758000086000BF01215D20015500BF00215C2083
:10759000015500BF0320F8BD206880683040B0422C
:1075A00001D1012000E00020B842B3D10020F2E771
:1075B000704710B50020FFF79BFD10BD10B50120EE
:1075C000FFF796FD10BD000000B58BB000F052F83B
:1075D0001D4881781DA001F047FB1B498878FDF705
:1075E0009BF9012000F0B4FA562000F0B7FD1B48CB
:1075F000002105910691079108900120FA2201903F
:10760000029203910490072000900F4803214156F5
:1076100002230022012000F0E3FD01200021069159
:1076200007914303089103910990029304910590F7
:10763000FA2001230722009101900221184600F050
:107640007FFC0BB000BD0000140100204C6F726184
:10765000206E657463683A256400000028230000EA
:1076600001460348814201D2802070470020FCE798
:1076700040DD4A1F10B5184B01221849104601F091
:1076800037F8154B01221549022001F031F800F0BE
:1076900095F9FFF751FE002000F0A6FA002412E051
:1076A000610061180E4A505C00F052FA6200A218A4
:1076B0000B4BD21891786200A218D218507800F0C3
:1076C000A9FE601CC4B2102CEAD3012000F040FADD
:1076D00000200449087510BDAD9E0008B80B0000DD
:1076E000DCAB0008141D0020F8B500200090002538
:1076F0006848007D012804D002286ED003286DD18F
:10770000ADE04021122000F085FE122000F02AF9A1
:1077100000906946087820210840202815D11220C1
:1077200000F078FE5B485030807D002801D1594937
:107730000875022001F00DF857A001F095FAFFF747
:107740006DFD5EA001F090FAA1E0192000F00AF9A9
:1077500041B250485430017701461C200856802120
:107760000840002808D04B485430007FC043401CDC
:107770000006850E6D4203E046485430007F8510B8
:107780001A2000F0EFF80446002D18DA414880690D
:107790005349884209D920469D3821114018401983
:1077A00001B23C487030418021E02046A4382111CC
:1077B0004018401901B237487030418017E0354811
:1077C0008069474988420AD920469D3821114018CE
:1077D00001B230487030418009E033E056E0204685
:1077E000A4382111401801B22A487030418013207A
:1077F00000F0B8F80146274870300171102000F001
:10780000B1F8064631460D2000F004FE21487030E4
:107810000179344800F0C9F81E485030807D0028B6
:1078200001D11C490875022000F093FF194854301B
:107830001C23C3561C300222825E01792948FFF7BF
:10784000ABFC24E0012000F084FF0821122000F0AE
:10785000E1FD00200F490875FFF70EFD17E012202B
:1078600000F080F8C007C00F002807D005211220C3
:1078700000F0D0FD0120FFF75DFC06E0042112209E
:1078800000F0C8FD0020FFF755FC00E000BF00BF7E
:10789000F8BD0000141D0020766F69642053583134
:1078A0003237364F6E44696F304576656E74287690
:1078B0006F6964292069660D0A000000766F6964AB
:1078C000205358313237364F6E44696F30457665F4
:1078D0006E7428766F69642920656E640D0A000055
:1078E00040DD4A1F141C002010B51C48007D0128F3
:1078F00002D002282FD102E0FFF7A6FC2CE000F016
:107900005DF8FFF719FD002000F06EF9002412E089
:1079100061006118124A505C00F01AF96200A21866
:107920000F4BD21891786200A218D218507800F04C
:1079300071FD601CC4B2102CEAD3012000F008F9DC
:1079400006495031087F00F069F9002003490875A5
:10795000FFF79CFC00E000BF00BF10BD141D00201D
:10796000DCAB000838B5044601226946204600F029
:1079700003F86846007838BDF8B505460E46174648
:10798000002000F091FD6806400E00F097FD0024F5
:1079900005E0002000F092FD3055601CC4B2BC42EE
:1079A000F7DB012000F080FDF8BD70B504460D4600
:1079B0002A4621460020FFF7DFFF70BD10B500F01A
:1079C00043F910BDF8B506460C46002000902AA0E9
:1079D00001F04AF9002505E0715D2DA001F044F9A0
:1079E000681CC5B2A542F7DB2B48407D01280ED1AB
:1079F0003320FFF7B7FFBE21084007463946332042
:107A000000F008FD19213B2000F004FD0DE03320BB
:107A1000FFF7A8FFBE210840471C3946332000F07D
:107A2000F9FC1D213B2000F0F5FC1B4820300471BF
:107A30002146222000F0EEFC00210E2000F0EAFC9E
:107A400000210D2000F0E6FC0120FFF78BFFF8215C
:107A50008843002804D100F071FB012002F0DCFD16
:107A60002146304600F0F7FC0B485038806E0090FD
:107A7000009800F07BFBF8BD5F5F4C6F726153654F
:107A80006E6450726F446174613A0D0A0000000028
:107A90002025303278000000641D002010B5044617
:107AA000032C06D0052C09D0062C08D0072C04D1B5
:107AB00006E00020FFF71CFB06E000BF00BF00BF90
:107AC0000120FFF715FB00BF00BF10BD10B5044635
:107AD00006480078A04208D004480470002C02D167
:107AE000FFF76CFD01E0FFF764FD10BD860100208B
:107AF0007CB506460E4886613046FCF76FFC0446AE
:107B000000220C4BFCF7F2FB01910090FCF774FC97
:107B100006463002010E062000F07CFC3004010E07
:107B2000072000F077FCF1B2082000F073FC7CBD68
:107B3000141D002080844E4070B504460D4620463A
:107B400000F006F82946232000F064FC70BD000018
:107B500070B504460120FFF705FF8021084000288A
:107B600003D001211F48417502E000211D484175E5
:107B70001C48407DA04200D170BD1A484475407D2C
:107B8000002802D0012814D000BF00F0C7FA01205D
:107B9000FFF7E8FE45066D0E2946012000F03AFC8D
:107BA0000021402000F036FC3021412000F032FC62
:107BB00015E000F0B3FA0120FFF7D4FE4006400EB6
:107BC000054680352946012000F024FC0021402094
:107BD00000F020FC0021412000F01CFC00BF00BF91
:107BE00000BFC9E7141D002070B50446002C03D166
:107BF0000120FFF76BFF05E00020FFF767FF20463D
:107C0000FFF74CFF0120FFF7ADFEF82108402043AD
:107C100005462946012000F0FDFB70BD10B5044665
:107C20000120FFF795FF07480477012C04D1342188
:107C3000392000F0EFFB03E01221392000F0EAFBCD
:107C400010BD0000641D002010B500220121890232
:107C50000920C006FEF71EF9012002F0DDFC01221A
:107C600091020920C006FEF715F9062002F0D4FCA7
:107C700010BD000070B50446002500260920FFF75E
:107C800071FE05464D20FFF76DFE06462C498869BA
:107C9000FFF7E6FC6906490E0843054628468F2192
:107CA0000840054670358020284080282CD1112CB2
:107CB00004DD3046F8210840C61D03E03046F821B7
:107CC0000840061D7007400F07280ED1052C00DA6A
:107CD0000524142C00DD14242846F0210840611FDF
:107CE0000907090F084305461EE0022C00DA0224AA
:107CF000112C00DD11242846F0210840A11E09079F
:107D0000090F084305460FE00020C043844200DA13
:107D100004460E2C00DD0E242846F0210840611C8C
:107D20000907090F084305462946092000F072FBA0
:107D300031464D2000F06EFB01483430047770BDB1
:107D4000141D002070B5044600257548407D0128AB
:107D50000FD13320FFF706FEBE210840064641360C
:107D60003146332000F056FB19213B2000F052FB36
:107D70000DE03320FFF7F6FDBE210840461C3146DA
:107D8000332000F047FB1D213B2000F043FB6448FB
:107D90005038406D092871D23120FFF7E3FD4606C7
:107DA000760E3146312000F035FB0021302000F006
:107DB00031FB5B485038406D030000F0A8FF090616
:107DC000121E2A36424E53585D0048212F2000F0E3
:107DD00021FB534950398969524A8818FFF788FEB8
:107DE0004AE044212F2000F015FB4D4950398969A4
:107DF0004D4A8818FFF77CFE3EE044212F2000F01A
:107E000009FB474950398969484A8818FFF770FECD
:107E100032E044212F2000F0FDFA414950398969B0
:107E2000434A8818FFF764FE26E044212F2000F023
:107E3000F1FA3B49503989693E4A8818FFF758FEE4
:107E40001AE044212F2000F0E5FA354950398969BC
:107E5000394A8818FFF74CFE0EE040212F2000F031
:107E6000D9FA09E040212F2000F0D4FA04E04021A3
:107E70002F2000F0CFFA00BF0AE0FFE73120FFF724
:107E800071FD8021084306463146312000F0C2FAD8
:107E90002348857DC07C012810D11D21112000F0D0
:107EA000B9FA4020FFF75EFD8006800EF3210840FE
:107EB00006463146402000F0ADFA0CE01F211120AB
:107EC00000F0A8FA4020FFF74DFD8606B60E3146B9
:107ED000402000F09FFA00210F2000F09BFA0021C3
:107EE0000D2000F097FAFF2101311448FCF770F9DA
:107EF00001200B4950390875002C06D0214602207C
:107F000000F03FFB022000F01BFC012D03D10520F7
:107F1000FFF76AFE02E00620FFF766FE70BD000074
:107F2000641D0020821E0000B4280000043D0000F3
:107F30005E510000127A0000C6A20000141C00204E
:107F4000FFB581B00C4615461E460B9F0198FFF702
:107F5000FFFD032C01D900BFFEE7032C01D106244D
:107F600000E0E41D6B484465856550304673C78169
:107F70000D9901740E9941740F9981741099C1740F
:107F80001199017512994175139981750C2D01D9BB
:107F90000C2502E0062D00D20625072C01D0062C68
:107FA00003D10B2D05D00C2D03D0082C06D10C2DA0
:107FB00004D1012157485030017303E00021554896
:107FC000503001731D20FFF7CDFC0007000FF0219A
:107FD000084021010843710008430D990843C0B2CD
:107FE000014600901D2000F015FA1E20FFF7BAFC94
:107FF0000007000FF8210840290108430F99890064
:1080000008430C990912FC2291430843C0B201466F
:1080100000901E2000F0FEF92620FFF7A3FCF721B8
:1080200008403C495031097BC9000843C0B20146B1
:108030000090262000F0EEF90C98C1B21F2000F04D
:10804000E9F93804010E202000F0E4F9F9B221200A
:1080500000F0E0F90D98012803D122200E9900F0DC
:10806000D9F92C485030C07C012810D14420FFF7AA
:1080700079FC4006400E803001460090442000F01C
:10808000C9F924485030017D242000F0C3F9092C9F
:108090000DD1204880692049884208D90221362024
:1080A00000F0B8F964213A2000F0B4F90EE0092C90
:1080B00008D10221362000F0ADF97F213A2000F0EE
:1080C000A9F903E00321362000F0A4F9062D0FD111
:1080D0003120FFF747FCF8210840401D0146009081
:1080E000312000F097F90C21372000F093F90EE0D1
:1080F0003120FFF737FCF8210840C01C01460090F2
:10810000312000F087F90A21372000F083F905B00B
:10811000F0BD0000141D002040DD4A1F10B50220F4
:1081200000F017FB012000F014FB0020FFF75CFDBE
:1081300000200149087510BD141D002010B5022053
:1081400000F007FB012000F004FB0120FFF74CFDCD
:1081500000200149087510BD141D002010B504460B
:108160002146392000F056F910BD000070B50446D4
:108170002146012000F005FA1848C07C012811D1E1
:10818000F521112000F046F94020FFF7EBFB8006B7
:10819000800EF3210840054640352946402000F076
:1081A00039F90EE0F721112000F034F94020FFF7F3
:1081B000D9FB8006800E054640352946402000F058
:1081C00029F9022005495039087500F0C2FA01204A
:1081D00000F0B6FA0320FFF707FD70BD641D002014
:1081E000FFB581B01C460B9F0C9E0A9D0198FFF7BE
:1081F000AFFC0298FFF73EFD032C01D900BFFEE75C
:10820000032C01D1062400E0E41D53484465856534
:1082100050304773C6810D9901740F99C17410993C
:1082200001750E99817411994175503812998166C2
:108230000C2D01D90C2502E0062D00D20625072CB5
:1082400001D0062C03D10B2D05D00C2D03D0082C0A
:1082500006D10C2D04D101213F485030017303E0B9
:1082600000213D48503001733B485030C07C01280C
:1082700010D14420FFF776FB4006400E80300146C7
:108280000090442000F0C6F833485030017D24208F
:1082900000F0C0F81D20FFF765FB0007000FF0217C
:1082A000084021010843790008430D990843C0B2F2
:1082B000014600901D2000F0ADF81E20FFF752FB94
:1082C0000007000FFB210840290108430E9989008F
:1082D0000843C0B2014600901E2000F09BF8262003
:1082E000FFF740FBF72108401B495031097BC900CB
:1082F0000843C0B201460090262000F08BF83004FD
:10830000010E202000F086F8F1B2212000F082F862
:10831000062D0FD13120FFF725FBF8210840401D25
:1083200001460090312000F075F80C21372000F054
:1083300071F80EE03120FFF715FBF8210840C01C52
:1083400001460090312000F065F80A21372000F046
:1083500061F805B0F0BD0000141D002010B5FA2131
:10836000112000F057F84020FFF7FCFA8006800E3D
:10837000044680342146402000F04CF80320034995
:1083800008750720FFF730FC10BD0000141D002009
:1083900010B515480078002804D000201249087054
:1083A000FFF7A2F910484078002802D000200E49BB
:1083B00048700D488078002802D000200A49887053
:1083C0000948C078002802D000200749C870064834
:1083D0008079002807D0002003498871FFF784FACC
:1083E00002A000F041FC10BD76010020535831324C
:1083F00037364576656E74497271466C61675B45C8
:1084000056454E545F54494D455F4952515D0D0AE2
:108410000000000013B50446012201A9204600F027
:1084200001F81CBDF8B505460E461746002000F0C1
:108430003BF880212943084600F040F8002404E07E
:10844000305D00F03BF8601CC4B2BC42F8DB012098
:1084500000F02AF8F8BD70B504460D462A462146BC
:108460000020FFF7DFFF70BD10B50121054800F0C7
:108470005FF8012800D110BD02F038FA00F034F99D
:1084800000BFF8E70402002001B582B07D20C000E3
:10849000012301AA02A900900248FEF7EBFA684600
:1084A00000790EBDF003002010B504462246FF21DE
:1084B00001310920C006FDF7EDFC10BD10B50446E2
:1084C0002046FFF7E1FF10BD10B5FDF7EFFCFEF70A
:1084D0000DFF10BD00B591B0342104A8FBF778FE64
:1084E00000200090019002900390012004900590DC
:1084F00002200D90C1030E91C1040F910021109133
:1085000004A8FDF7AFFE002801D0FDF71DFA0720F3
:108510000090022001900020029003900121684603
:10852000FDF742FD002801D0FDF70EFA11B000BDA5
:1085300002461088002804D11048008810800120CD
:10854000704710880D4B1B88984208DD10880B4B34
:108550001B88C01A01231B04181A508004E01088DD
:10856000064B1B88181A50805088884204DB034849
:10857000008810800020E3E70120E1E700010020EF
:10858000704770B504460D462946204600F014F8A1
:1085900070BD0000024607480068416906E008789F
:1085A0001378984201D10120704749690029F6D11A
:1085B0000020F9E7800100200246064B1B6858693D
:1085C00004E00378934200D1416040690028F8D16B
:1085D000704700008001002010B5182002F004F957
:1085E0000649086008460068002800D110BD002038
:1085F00002490968486100BFF8E7000080010020D7
:1086000070B504460D48066800684569002C04D022
:108610002046FFF7BFFF002800D070BD002D03D11A
:1086200074610020606106E000E06D6968690028FF
:10863000FBD16C61606100BFEFE7000080010020AA
:1086400070B5104805680068446915E0607A002834
:1086500011D0E068401CE060616888420BD30020C4
:10866000E0602069002801D020698047207A002836
:1086700001D0002060726469002C01D0002DE5D18A
:1086800070BD0000800100200146064A1268506952
:1086900005E002788A4201D10022C26040690028C8
:1086A000F7D17047800100200146064A12685069E0
:1086B00005E002788A4201D1012242724069002815
:1086C000F7D17047800100200146064A12685069C0
:1086D00005E002788A4201D10022427240690028F6
:1086E000F7D170478001002010B5FFF7A9FF10BD3A
:1086F000FFB581B005460E461746104800780028A1
:1087000004D101200D490870FFF766FF182002F020
:108710006BF80446002C01D105B0F0BD25706660F1
:10872000277200206072E060049820610020606180
:108730002046FFF765FF00BFEEE700008401002040
:1087400010B504462046FFF79FFF2046FFF7ACFF19
:1087500010BD10B504462046FFF7B6FF10BD818C52
:10876000C907C90F002908D00168496801225204CD
:108770009143826A1143026851600222416A1140AA
:10878000022907D101684968D2039143C26A1143A3
:10879000026851600422416A1140042907D101682E
:1087A000496812049143026B114302685160082228
:1087B000416A1140082907D10168496812039143B1
:1087C000426B1143026851601022416A1140102926
:1087D00007D10168896812029143826B11430268D4
:1087E00091602022416A1140202907D101688968DF
:1087F00012029143C26B1143026891604022416AA8
:108800001140402915D10168496892039143026CD7
:1088100011430268516001221205016C914208D196
:1088200001684968032252059143426C1143026872
:1088300051608022416A1140802907D1016849684E
:1088400012039143826C114302685160704700002B
:1088500038B504460020E067FDF722FB0546206896
:1088600000680821084008280BD114482B46002234
:1088700089040090204600F03DF9002801D0032033
:1088800038BD206800680421084004280BD10B483B
:108890002B46002209050090204600F02BF9002805
:1088A00001D00320ECE720206067A06700BF002113
:1088B0007020015500BF0020E2E70000FFFFFF012C
:1088C000FEB504460027002000902169A0680843F7
:1088D00061690843E16908430290206800687C49A7
:1088E0000840029908432168086020684068032115
:1088F00009038843E168084321684860A069029041
:10890000206A029908430290206880680B210902BE
:108910008843029908432168886000BF6D49206838
:10892000884217D16C48006B8007800F002806D062
:10893000012808D0022808D0032808D101E000252A
:1089400007E0022505E0042503E0082501E01025E5
:1089500000BF2BE06149206888421AD15E48006B55
:10896000032109040840002808D001210904401A05
:1089700008D0401A08D0401A08D101E0002507E0CD
:10898000022505E0042503E0082501E0102500BFCD
:108990000CE053492068884201D1002506E0514986
:1089A0002068884201D1002500E0102500BF012188
:1089B000C903E06988424AD1002D06D0022D10D0AB
:1089C000042D16D0082D29D11FE0FDF7B5FB064672
:1089D000720063685B08D0186168FBF789FB87B297
:1089E0001FE061684A08404BD018FBF781FB87B253
:1089F00017E0FDF7B3FB0646720063685B08D0180A
:108A00006168FBF775FB87B20BE061684A080123D8
:108A10001B04D018FBF76CFB87B202E0012000902A
:108A200000BF00BF102F0FD3304887420CD82F480B
:108A30000F38384001903807400F019908430190E2
:108A400001982168C8603EE0012000903BE0002DC5
:108A500006D0022D0ED0042D14D0082D25D11BE0F8
:108A6000FDF76AFB064661684A089019FBF740FB70
:108A700087B21DE061684A081D4BD018FBF738FB30
:108A800087B215E0FDF76AFB064661684A0890194F
:108A9000FBF72EFB87B20BE061684A080123DB037A
:108AA000D018FBF725FB87B202E00120009000BF41
:108AB00000BF102F05D30D48874202D82068C76039
:108AC00001E0012000900020206660660098FEBD55
:108AD000F369FFEF003801400010024000440040FD
:108AE00000480040004C00400024F400FFFF00005C
:108AF00000127A00FFB581B004460D4617460A9E63
:108B00004AE0701C002847D0FDF7CAF90499401AC2
:108B1000B04201D8002E17D120680068FF21A13192
:108B20008843216808602068806840084000216808
:108B3000886020206067A06700BF00217020015579
:108B400000BF032005B0F0BD206800680421084084
:108B5000002821D02068C06949020840C00A0028C6
:108B60001AD008462168086220680068FF21A131F8
:108B700088432168086020688068400840002168B8
:108B8000886020206067A067E06700BF0021702038
:108B9000015500BF0320D5E72068C0692840A842DE
:108BA00001D1012000E00020B842AAD00020C9E78E
:108BB00010B513480068C06920210840400900280A
:108BC0001CD010488088C1B20F4802880088401C21
:108BD00083B20D480380FF38013881540A48008869
:108BE000FF2802D900210848018000210648C180E1
:108BF00032231A4602210320FBF748FE10BD000075
:108C0000E4060020203801406408002010B5134815
:108C10000068C06920210840400900281CD0104885
:108C20008088C1B20F4802880088401C83B20D487A
:108C30000380FF38013881540A480088FF2802D990
:108C400000210848018000210648C18032231A46CD
:108C500002210120FBF71AFE10BD0000580500207C
:108C600020440040D80600200FB410B503A9044BDF
:108C7000044A029801F074FA10BC08BC04B018470A
:108C800071A70008A40200200FB410B504A9074B77
:108C900002AA039801F064FA044602A9002001F038
:108CA00099FC204610BC08BC04B01847D5A50008A4
:108CB0002021020C01D010211046020A01D01046DA
:108CC0000839020901D01046091F820801D0104658
:108CD000891E420801D0881E7047081A7047F8B5EF
:108CE00082B28BB2040C0D0C10465843002126466C
:108CF0005E43370C36048019794116466E43370CB3
:108D000036048019794126466E438919F8BD30B47E
:108D10007446641E2578641CAB4204D3635D5B001B
:108D2000E31830BC18471D46F8E7000070B504464C
:108D30000D4608A0FFF798FF00F084FA2678F12E80
:108D400005D1681E81B2601C00F0A0F800E000BFF1
:108D500000BF70BD4765742041636B2046726F6D24
:108D6000205043210D0A000070B504460D462A46E6
:108D70002146322000F0FAFF70BD70B504460D4662
:108D80002A462146312000F0F1FF70BD70B504463F
:108D90000D462A462146352000F0E8FF70BD38B563
:108DA00004460D46EA1EE11C6846FBF7F8F96846E2
:108DB0000078032802D009280CD105E02A46214674
:108DC000012000F0D3FF06E02A462146012000F0F2
:108DD000CDFF00E000BF00BF38BD0000F0B5C1B05E
:108DE0000546FF21013101A8FBF7F2F92E78032E89
:108DF00026D0042E02D0092E3DD112E000240020FE
:108E000001A90855641C1E49088801A90131FEF713
:108E100075FAA41C0023224601A9184601F074F833
:108E20002AE00024002001A90855641C1548007F91
:108E30000855641C00232246184601F065F81BE023
:108E40000024002001A90855641C0F48FBF7DFF936
:108E5000074601A908193A460B49FBF7A0F90A4849
:108E6000FBF7D5F90019C4B20023224601A9184620
:108E700001F04AF800E000BF00BF41B0F0BD0000C3
:108E800014010020481D0020D6AA000870B5C0B00B
:108E900005460C46FF2101316846FBF799F900228F
:108EA0000221F12001F022F8002168460170102112
:108EB00041701020FCF7DCFD0146684681706A2194
:108EC000C17001210171601C0004010E68464171EE
:108ED000601CC1B268468171F021C171F12101723B
:108EE000224629460930FBF75AF9A01D81B200A895
:108EF000033000F0CFF9064631126A4620460930A9
:108F00001154401C1654401C81B26846FCF780F88E
:108F100040B070BD30B5C5B004460D46002003908A
:108F2000EA1EE11C04A8FBF73AF96846007C001F22
:108F30000300FFF7ECFE061E4F040506364F4AE01D
:108F400049E004A9013102A8FEF7B8F96846008992
:108F5000052808DA802003900023012203A91120AC
:108F600000F0D2FF04E02A462146112000F0FEFE68
:108F700031E004A9013101A8FEF7A0F96846808814
:108F80000F2808DC802003900023012203A9112070
:108F900000F0BAFF04E02A462146112000F0E6FE68
:108FA00019E06846407C40B2012804DB6846407CFA
:108FB00040B2142808DD802003900023012203A979
:108FC000112000F0A1FF04E02A462146112000F004
:108FD000CDFE00E000BF00BF45B030BD30B5C3B02E
:108FE00004460D46002000902A46214602A8FBF7C1
:108FF000D6F802A9013101A8FEF760F96846007AA7
:10900000042806D0062826D0072825D0092849D1CB
:1090100023E068468088012803DB68468088FF28B3
:1090200008DD01200090002301226946102000F095
:109030006BFF0FE0694688881C490880694689886B
:10904000C8B2FCF715FD194988700022114610209E
:1090500000F04CFF27E026E025E06846407A40B269
:10906000012804DB6846407A40B2142808DD01205C
:109070000090002301226946102000F045FF10E017
:109080006846407A40B20949C87003200856FEF786
:10909000F1FD00210091002301226946102000F01B
:1090A00033FF00E000BF00BF43B030BD140100201B
:1090B00070B504460E4620480078012808D10022E9
:1090C0000221702000F012FF1CA0FFF7CDFD70BD43
:1090D00021461F48FEF7F2F82078FCF7C9FC1D492D
:1090E00008701B4800881C49884205D1A07819499E
:1090F000087002201949087019A0FFF7B5FD002576
:1091000005E0615D1AA0FFF7AFFD681C85B2B542AE
:10911000F7DB19A0FFF7A8FDE078012805D132465A
:109120002146702000F022FE04E0E078002801D102
:10913000FCF70BFC00BFCAE74D0100206E657420F0
:109140006C6F72612069732077616974210D0A0068
:109150007201002074010020FFFF00004C0100207C
:1091600041636B2050632069733A0D0A00000000D0
:1091700020253032780000000D0A000070B504464A
:109180000D46207801282CD11649086004230A4690
:1091900000211548FBF7CCFC00221146202000F0EE
:1091A000A5FEFF20F530FCF76DFC012080F3108850
:1091B00000BF00BF00BF00BF00BF00BFBFF34F8FA5
:1091C00000BF00BF00BF09480949C86000BF00BF19
:1091D00000BFBFF34F8F00BF00BF00BF00BF00BF85
:1091E000FDE770BDD0020020003800080400FA0539
:1091F00000ED00E070B5052500241BE0621CFF2394
:109200001D335A430E4BD118FF221D326243D01832
:10921000FF221D32FAF7C3FF601CFF211D314843B6
:1092200007494018FF3001304069002800D104E0B0
:10923000601CC4B2681EA042E0DC00BF70BD00002C
:109240007008002070B5052500241BE0621CFF2378
:109250001D335A430E4BD118FF221D326243D018E2
:10926000FF221D32FAF79BFF601CFF211D3148438E
:1092700007494018FF3001304069002800D104E060
:10928000601CC4B2681EA042E0DC00BF70BD0000DC
:10929000FC10002030B502460B46002015E0157882
:1092A000521C2C02604000210DE00124E403044024
:1092B000002C04D04400084D6C40A0B201E04404EE
:1092C000200C4C1CE1B20829EFDB1C465D1EABB242
:1092D000002CE4D130BD00002110000070B5C2B0F8
:1092E00005460E46721C294601A8FAF758FF0024CD
:1092F00011E068460079E100094A515C884208D1D2
:10930000E000114640183146426801A801309047FC
:1093100003E0601CC4B20B2CEBD300BF42B070BDA5
:1093200084AB000810B5002105480180C18005A06C
:1093300001F00CFA08488078401C0749887010BD7D
:109340006408002041542B43574155544F434F4E1E
:109350004E3D300D0A0000000A02002010B5FF2229
:10936000F532002101A001F05DF910BD4F4B000066
:1093700010B501210E48FFF7DBF8012800D110BD20
:109380000C480088401C0B490880084600887D2155
:10939000C900884209DB08A001F0D8F905488078A7
:1093A000401C044988700020088000BFE7E70000E7
:1093B0009A0200200A0200202B2B2B0010B501215D
:1093C0000C48FFF7B5F8012800D110BD0A48008805
:1093D000401C0949088008460088FF21F531884271
:1093E00006DB05488078401C03498870002008800F
:1093F00000BFEAE79E0200200A02002010B500210B
:1094000005480180C18005A001F0A0F907488078D7
:10941000401C0649887010BD6408002041542B434D
:1094200049505354415455530D0A00000A0200207C
:1094300010B5FF22F532002109A001F0F3F8002851
:109440000CD008A10A48FAF7CEFE002803D0162057
:109450000849887002E01A200649887010BD000093
:109460004F4B00005354415455533A340D0A0000F9
:10947000640700200A02002000B59FB000210948BF
:109480000180C180084B094A09A101A8FFF7FCFB34
:1094900001A801F05BF90C488078401C0A498870EB
:1094A0001FB000BD64080020C3AC0008BCAC0008BD
:1094B00041542B43574A41503D222573222C2225EB
:1094C00073220D0A000000000A02002010B5034AB2
:1094D000002103A001F0A6F810BD00001027000035
:1094E0004F4B000010B5A0B00024FF2101310C4803
:1094F000FAF76EFE00210B480180C1800A480B4B31
:109500000BA20CA1009002A8FFF7BEFB02A801F07D
:109510001DF90F488078401C0D49887020B010BD9F
:109520006407002064080020DCAC0008CEAC000812
:109530005443500041542B43495053544152543DDD
:10954000222573222C222573222C25730D0A00005C
:109550000A02002010B57D22520102A105A001F0EF
:1095600061F810BD414C5245415920434F4E4E4584
:10957000435400004F4B000010B501210C48FEF78A
:10958000D7FF012800D110BD0A480088401C0949B6
:109590000880084600887D21C900884206DB05480E
:1095A0008078401C034988700020088000BFEAE7EB
:1095B000960200200A02002010B501210F48FEF794
:1095C000B7FF012800D110BD0D480088401C0C4990
:1095D000088008460088FF21F53188420CDB012213
:1095E000D1030920C006FCF755FC05488078401CD3
:1095F000034988700020088000BFE4E79202002041
:109600000A02002010B500220121C9030920C0066A
:10961000FCF740FC02488078401C0149887010BD6E
:109620000A02002010B5002105480180C18005A074
:1096300001F08CF807488078401C0649887010BDFE
:109640006408002041542B4349504D55583D300D7E
:109650000A0000000A02002010B5FF22F5320021A6
:1096600001A000F0DFFF10BD4F4B000010B500213E
:1096700005480180C18005A001F068F8074880789E
:10968000401C0649887010BD6408002041542B43DB
:10969000574D4F44453D310D0A0000000A0200209D
:1096A00010B5034A03A106A000F0BCFF10BD0000E6
:1096B000C40900006E6F206368616E67650000007A
:1096C0004F4B000010B5002105480180C18005A066
:1096D00001F03CF807488078401C0649887010BDAE
:1096E0006408002041542B43495053454E440D0A11
:1096F000000000000A02002010B50021054801808A
:10970000C18005A001F022F807488078401C064976
:10971000887010BD6408002041542B4349504D4FC0
:1097200044453D310D0A00000A02002010B5FF2219
:10973000F532002101A000F075FF10BD4F4B000075
:1097400010B57D22D200002101A000F06BFF10BDFA
:109750003E00000008B500BF0748406901218904A8
:1097600008430549486108464069012189040840C9
:10977000009000BF00BF08BD0010024010B50022DD
:10978000012189020148FCF785FB10BD0004004857
:1097900010B5012291020248FCF77CFB10BD0000CD
:1097A0000004004808B500BF07484069012189044A
:1097B0000843054948610846406901218904084079
:1097C000009000BF00BF08BD0010024010B500228D
:1097D00004210248FCF75EFB10BD000000040048B5
:1097E00010B5012204210248FCF754FB10BD000013
:1097F0000004004808B500BF0748406901218904FA
:109800000843054948610846406901218904084028
:10981000009000BF00BF08BD0010024010B500223C
:1098200002210248FCF736FB10BD0000000400488E
:1098300010B5012202210248FCF72CFB10BD0000EC
:109840000004004808B500BF0748406901218904A9
:1098500008430549486108464069012189040840D8
:10986000009000BF00BF08BD0010024010B50022EC
:1098700001210248FCF70EFB10BD00000004004867
:1098800010B5012211460248FCF704FB10BD000090
:109890000004004810B586B000241AE00C21614392
:1098A0000E4A505880470C2060430C4940180089EC
:1098B00001900120029000200390032004900C21CD
:1098C0006143064A8918486801A9FCF7E7F9601C5A
:1098D000C4B2062CE2DB06B010BD0000FCAA0008F2
:1098E00008B500BF074840690121890408430549BC
:1098F000486108464069012189040840009000BF82
:1099000000BF08BD0010024010B500220121C902AD
:109910000148FCF7BFFA10BD0004004810B5012251
:10992000D1020248FCF7B6FA10BD0000000400485E
:1099300008B500BF0748406901218904084305496B
:10994000486108464069012189040840009000BF31
:1099500000BF08BD0010024010B50022012109031C
:109960000148FCF797FA10BD0004004810B5012229
:1099700011030248FCF78EFA10BD000000040048F5
:1099800000B587B0142102A8FAF722FC00BF3648C0
:109990004069012149040843334948610846406948
:1099A000012149040840019000BF00BF0122C911F4
:1099B0000920C006FCF76EFA012080020290012007
:1099C0000390002004900320059002A90920C006FE
:1099D000FCF764F900BF24484069012149040843A9
:1099E0002149486108464069012149040840019025
:1099F00000BF00BF012249120920C006FCF74AFA45
:109A0000FF200130029001200390002004900320E9
:109A1000059002A90920C006FCF740F900BF1248D2
:109A200040690121C90408430F494861084640695B
:109A30000121C9040840019000BF00BF88110290B5
:109A40000A480390022004900320059002A90848C8
:109A5000FCF724F9002211460720FCF79BFA0720A7
:109A6000FCF78AFA07B000BD001002400000111098
:109A70000008004870B504460D4600221146322009
:109A800000F034FA70BD000070B504460D46FFF7D3
:109A9000B1FB2678702E03D102200649087000E041
:109AA00000BF00BF681E82B20023611C304600F078
:109AB0002BFA70BD4C01002070B504460D46002203
:109AC0001146312000F012FA70BD000038B504468E
:109AD0000D46217800916846017802A0FFF7C4F88E
