:020000040800F2
:10400000082E0020D5400008596B0008396B0008C5
:1040100000000000000000000000000000000000A0
:104020000000000000000000000000002B700008ED
:104030000000000000000000656D0008D783000844
:10404000E7400008E7400008E7400008E7400008B4
:10405000E7400008E7400008E740000885580008EE
:10406000E7400008E7400008E7400008E740000894
:10407000E7400008E7400008E7400008E740000884
:10408000E7400008E7400008E7400008E740000874
:10409000E7400008E7400008E7400008E740000864
:1040A000E7400008E7400008E74000085D89000895
:1040B000A9890008E7400008E7400008E740000839
:1040C0000348854600F038FA0048004759A5000823
:1040D000082E00200448804704480047FEE7FEE71A
:1040E000FEE7FEE7FEE7FEE70D840008C14000089A
:1040F00010B5202A04DB0846203AD040002110BD2C
:104100000B46D340D0402024A21A914008431946C0
:1041100010BD03460B439B0703D009E008C9121FDB
:1041200008C0042AFAD203E00B780370401C491C33
:10413000521EF9D27047D2B201E00270401C491EF3
:10414000FBD270470022F6E710B513460A46044634
:104150001946FFF7F0FF204610BD30B505462A4648
:104160000B4610781C78521C5B1C002801D0A04222
:10417000F7D0002C03D0002802D06D1CEFE72846B2
:1041800030BDCAB2401E4178401C8A4202D000298C
:10419000F9D100207047421C0178401C0029FBD156
:1041A000801A7047F0B51FB488B00B9909980024A5
:1041B00048400999C00F490049080991C0070B9967
:1041C0000090490049080B9109990898A6460843B0
:1041D0001CD00B990A98084318D009980124400074
:1041E000420D4800410D099824050003000B2043AF
:1041F00009900B980003000B20430B9050181C49AA
:104200004018002201901446104605E000200146A7
:104210000DB0F0BD032801DA034600E003239C46FD
:10422000C11A0AAE0AE05F0008ADED5B4F00F75B14
:104230007D430027AA187C41491C5B1E6145F2DDC5
:10424000410004AB5A522104120C0A43240C401CB6
:104250000828DFDB019802900099704601910090D8
:10426000059B049A0799069800F014F9D0E700001E
:104270000DFCFFFFF0B50C465C4085B0E40FE40791
:1042800003944C00002664085900944649080246ED
:104290000296224321D062460A431ED06200570D87
:1042A0004A000E032303550D012402462C49240520
:1042B000781B1B0B360B40182343264361460090A6
:1042C0001C46501AB44103D30098401C009002E0F1
:1042D000921800985B41002803DA0020014605B0DF
:1042E000F0BD0020012109050746864611E064461D
:1042F0001D46141BB54106D36546521BB341744697
:1043000007430C43A646CD074008490828439218A6
:104310005B4105460D43EAD11046184313D0604671
:10432000194650407140084306D06046101AB34108
:1043300006D20122002306E000220123DB0702E06F
:104340000122D2435310009874460105381C614184
:10435000029C039D0019694100F08FF8BFE700003F
:10436000FD0300000EB505490291002100910A46A7
:104370000B46019100F08EF803B000BD330400003D
:104380004A0009030123090B1B051943094B10B50A
:10439000520D9A4201DA002010BD064B34339A4286
:1043A00003DC9A1AFFF7A4FE10BD03495118884098
:1043B00010BD0000FF030000CDFBFFFF70B50446F9
:1043C000002903D000202022012310E0002801D082
:1043D0000020C043C046C0460DE02546D5408D4272
:1043E00005D30D469540641B1D4695404019154662
:1043F000521E002DF1DC214670BDF0B51FB40646FB
:10440000002082B005464024019100901BE00199F4
:1044100022460F463046FFF76BFE049A059B801A32
:10442000994110D310461946224600F016F8361A64
:104430008F410197224601200021009F00F00DF8D6
:1044400038184D4100902046641E0028DFDC019B97
:1044500000982946324607B0F0BD10B5202A04DB8B
:104460000146203A9140002010BD914020239C1A23
:104470000346E3401943904010BD10B5002B08DA05
:104480000024401C614192185B411A4301D140084D
:10449000400010BDF0B51FB482B005460C0003D03B
:1044A000084606F0C3F902E006F0C0F920300246E3
:1044B000009021462846FFF7D0FF049B059A04464A
:1044C0000F4618431143084314D0184610431BD01D
:1044D000009840210A1A18460599FFF709FE05467B
:1044E0000E46009A05990498FFF7B7FF084305D0D8
:1044F000012004E02046394607B0F0BD0020C11776
:1045000005430E432C43374300990E986305401A28
:104510007905E40A00220C43FD0A0A3002D5002086
:104520000146E9E70105101969410C9C0D9D001930
:104530006941FFF7A2FFDFE7064C0125064E05E0C3
:10454000E36807CC2B430C3C98471034B442F7D3B4
:10455000FFF7BAFDB4AF0008D4AF0008F0B54F4F75
:10456000BD441448144D0422294602F0A5FB00283E
:104570001DD00120C60201AF38463146FFF7E2FDEB
:104580000E4C20463946324600F0F0F8286801907B
:104590000B49204600F0B0F820463946324600F07C
:1045A00008F928680349086006A006F0DBFB3C4FC9
:1045B000BD44F0BDB81C0020E809002000E001085F
:1045C00000E8010853415645206E6574206164641B
:1045D00072657373210D0000F0B5304FBD440120AA
:1045E000C40201AE30462146FFF7ACFD204D2846FF
:1045F0003146224600F0BAF81E4F01983860010E8D
:1046000082B21D4B9A4207D1002038801320C0434C
:104610001539814205D306E01422D243153991425F
:1046200019D81320F87001AE30462146FFF78AFDF5
:1046300028463146224600F099F8386801900F4923
:10464000284600F059F828463146224600F0B1F8D5
:1046500038680B490860C0B201F074F90246B870BE
:10466000398808A006F0BEF80D4FBD44F0BDC04625
:1046700000E00108E8090020FFFF000000E8010851
:10468000B81C002061646472203A6368206973205A
:10469000253034783A25640D0A000000FCF7FFFF4E
:1046A0000408000010B50B4C00200B490822E12340
:1046B0005B020AC420606060A060E2602061083C88
:1046C000204602F099F82068016840229143016079
:1046D000026210BD50060020004C004080B5FFF77C
:1046E000E1FFFFF779FF00F0B9F900F035FB00F0CA
:1046F00057FA00F0A3F880BD70B584B005460026D7
:104700000396400504D00EA006F02CFB012413E014
:104710000C4601F0DDF900960195601BC00A02907D
:10472000684603A901F022F90446002802D009A036
:1047300006F018FB01F07AF9204604B070BDC046BF
:1047400061646472657373206973206572722120DD
:104750000D000000657261736520736563746F728C
:10476000206661696C6564210D000000F0B50346A8
:10477000900701D00120F0BD0020002A18D0044687
:104780001D590D51251D954212D21E190D1977681C
:104790006F602746083797420AD2B768AF6027464E
:1047A0000C37974204D2F668EE6010349442E7D397
:1047B000F0BDF0B581B00646900701D0012416E0A7
:1047C00014460D4601F084F9002C0BD00027F11996
:1047D000EA59D317022001F031F9002804D13F1D16
:1047E000A742F4D3002400E0012401F01FF9204681
:1047F00001B0F0BD10B5834C204600F075FA20469C
:10480000183000F071FA2046303000F06DFA204682
:10481000483000F069FA2046603000F065FA7834DC
:10482000204600F061FA10BD10B5052805D81824FF
:1048300044437448001900F03FFA10BDF0B58BB046
:104840000127BD04C54908682843086008680C466C
:1048500028400A90032004900890002607960296AC
:10486000069705970A98664805A9019101F05AF93B
:10487000206828432060206828400A90049C0894FF
:10488000079606970220039005900A985C48019EBF
:10489000314601F047F9B1490868284308600868C3
:1048A00028400A90089402980790069704200590E3
:1048B0000A985348314601F035F9A8490868284359
:1048C0000860086828400A9004980890029E07969D
:1048D0000697B80205900A984948019C214601F0C4
:1048E00021F99E49086828430860086828400A9012
:1048F0000498089007960697380305900A98404850
:10490000214601F00FF995490868284308600868B6
:1049100028400A900498089007960697F802059098
:104920000A983748214601F0FDF8364D3648374998
:10493000296168610A20E88007460490284600F053
:10494000CBF97D2086002846039C2146324633461B
:1049500000F0B2F92E482F49A962E862EF832F4692
:104960001837384600F0B8F9384621463246334603
:1049700000F0A2F92848294929646864049CEC865F
:104980002F463037384600F0A7F9384603993246AB
:10499000334600F091F922482249A965E8652F467F
:1049A0004837FC80384600F097F93846039C21468A
:1049B0003246334600F080F91B481C492967686776
:1049C0002F4660370498F880384600F085F938465D
:1049D00021463246334600F06FF9783514481549C0
:1049E000296168610498E880284600F075F9284636
:1049F00021463246334600F05FF90BB0F0BDC046A9
:104A000000040048F4090020999C0008899C0008D3
:104A1000799C0008699C0008599C0008499C000882
:104A2000399C0008299C0008D99C0008C99C0008F2
:104A3000B99C0008A99C000880B506494143064876
:104A4000081802F0F1FD80BD0249414302480818F0
:104A50007047C04640420F0080FFB817F0B58BB0DA
:104A600000250A9501246604DD4908683043086082
:104A700008683040059005980920C0060490A702F8
:104A80003946224601F006F9032002900990089564
:104A90000794069706A90191049F384601F042F851
:104AA000CF49086830430860086830400590059891
:104AB0002602039638463146224601F0EBF8029F63
:104AC00007A8B0C006960498019E314601F02AF866
:104AD000E004C34A11680143116011680140059167
:104AE0000997022008901E480790600306900598D9
:104AF0001C48314601F016F80727384629462A4651
:104B000001F030F9384601F021F9174E356275622F
:104B1000B562F762282061023A02039B1B1D134F06
:104B200037607360B560F26035617561B161F061E5
:104B3000304601F069FC002801D000F0A9FE0C48C5
:104B400004703068016840220A43026009480A493B
:104B5000FFF7F8FA02F06AFA0BB0F0BD1410024049
:104B60000000111000080048181100200038004013
:104B7000E6090020880A00208C050000B0B50C462C
:104B80000146064D28462246FFF7C3FA01200002DF
:104B90002C52052005F04EFDB0BDC046141000207B
:104BA000F0B581B01B4C002513480C21E1225202C4
:104BB00025C425606560A160E5600C3C204601F0DD
:104BC0001BFE206801684027B9430160016820226C
:104BD0000A4302601C26304601F0B8F830462946E8
:104BE0002A4601F0BFF82120C00004490D54206876
:104BF000076201B0F0BDC0460044004050070020ED
:104C000080B50A4601467D20C300024801F0CCFE73
:104C100080BDC046D0060020F0B5254FBD441C46DF
:104C200006920F4605460120C60207A83146FFF747
:104C300089FA3246731E3B401819711C884205944C
:104C400000D3D41A04947D19069F039306E0069FAF
:104C50007F18029DAD18002103910490029513481E
:104C6000054007AE284631461446FFF77FFD0398FE
:104C7000301806973946049F3A46FFF74AFA291931
:104C80002846FFF739FD284631462246FFF791FDB9
:104C90000598C01B06D03946A04205902246D6D3BF
:104CA0001046D4E7034FBD44F0BDC04600F8FFFFF7
:104CB000E4F7FFFF1C08000010B50478002C00D0BA
:104CC00010BD00244481838042804170012404701F
:104CD0009A184A43028110BD80B50021016001810C
:104CE00081804069804780BD70B50446C1880A3024
:104CF00003F078FB012800D170BD6178FF2901D154
:104D0000206915E0A2892389981A00D20020208109
:104D100000290CD093420AD96188A688751880B200
:104D20002946FFF74BFBB14206D8142005E0606925
:104D300080470020207070BD102020588047607888
:104D4000FE28D9D1FD20684321898842D4D1FE2094
:104D50006843208170BD0000F0B587B0284D002465
:104D60001E480C21E122520215C52C606C60A9601E
:104D7000EC600C3D284601F03FFD286801684027A3
:104D8000B9430160016820220A4302601B263046B5
:104D900000F0DCFF30462146224600F0E3FF2868A1
:104DA00007620120039041040D4A13680B4313600E
:104DB00012680A40019205940494C003029001987D
:104DC0000920C00602A900F0ADFE2120C00005495F
:104DD0000C540548C47007B0F0BDC046003801400F
:104DE00014100240DC080020001D002080B50A4697
:104DF00001467D20C300024801F0D6FD80BDC046BB
:104E00005C080020F0B5C9B0002900D13CE10C4697
:104E1000054608A8401C0290281D03900026059610
:104E200037463146049403E0761CA64200D12BE1BC
:104E3000AA5D8BB2EA54042B1BD805217B441B7955
:104E40005B009F440A0E13030200EDE7380AC0B26C
:104E50004142414189001743E6E76A3A51425141D4
:104E6000E2E7501E414241414900DDE717020321BC
:104E7000DAE70797B8B2471D9F4202D9491C079F3E
:104E8000D2E7069004D1491C10020590079FCBE79A
:104E90000698841D9C4246D1059911430591390419
:104EA00044D001223A407A4906988842019260D162
:104EB00000232A46079F01980028049C39D01078C7
:104EC00001025940480009B2002901D56F49484004
:104ED000410000B2002801D56C484140480009B2A9
:104EE000002901D569494840410000B2002801D598
:104EF00066484140480009B2002901D5634948404D
:104F0000410000B2002801D560484140480009B284
:104F1000002901D55D494840430000B2002808D56A
:104F20005A48434005E0049C079F7DE70023049C0A
:104F3000079F98B2059989B2814216D1781C82B236
:104F400008A807900399FFF7E4F8079800786F28FE
:104F500000DC82E0702800D185E0F02800D184E0F8
:104F6000F12800D08EE0032082E04BA005F0FAFE8D
:104F700088E048490F4000232A461946384605E094
:104F8000079F921C891C8CB2844294D0147824020E
:104F90005C40630024B2002C01D53C4C63405F00B0
:104FA0001BB2002B01D5394B5F407B003CB2002C7B
:104FB00001D5364C63405F001BB2002B01D5334B4B
:104FC0005F407B003CB2002C01D5304C63405F0059
:104FD0001BB2002B01D52D4B5F407C003BB2002B58
:104FE00001D52A4B5C40630024B2002C01D5274C2C
:104FF0006340547824025C40630024B2002C01D545
:10500000224C63405C001BB2002B01D51F4B5C405F
:10501000630024B2002C01D51C4C63405C001BB221
:10502000002B01D5194B5C40630024B2002C01D544
:10503000164C63405C001BB2002B01D5134B5C4047
:10504000670023B2002B01D5104B5F407B003CB2C0
:10505000002C95D50D4C634092E7012807D03128EC
:1050600010D1012004E0022002E0042000E0002032
:10507000C00011A10818446803F040FF0298069987
:10508000A047049C0021CFE649B0F0BD21100000EC
:10509000FCFF0000FEFF00004C6F726150726F5207
:1050A0006563204461746120434353206973206524
:1050B00072726F72210D000001000000259D000832
:1050C00031000000159D000870000000619D00087F
:1050D000F1000000459D0008F0000000ED9C000874
:1050E00070B51E48012103F07DF9012821D045202B
:1050F00086001B4CA559002D1BD011200001215802
:105100002846FFF75BF9002910D12320C000205862
:1051100085420BD82120C000255CA07AFFF78CFCCB
:10512000204608302946FFF729FDA559681EA051E1
:1051300000D070BD0BA005F015FE65480078002872
:1051400001D0402100E00821E07B002204F030FF84
:1051500093492046FEF7F6FF70BDC046900100203F
:10516000880A002053454E44206973206E6F7420D6
:10517000726563657665206973200D0080B51348FC
:105180000178002921D0002101700520022164222C
:105190001346FFF749FBFA48007802280BD0012894
:1051A00013D174200A49085CC01E81B20948C01C92
:1051B000FFF728FE80BD74200549085CC01E81B23F
:1051C0000448C01C002201F0B5FD80BD840A002007
:1051D000B8050020B8040020F0B585B0049101782E
:1051E000FF29039002D14178FF294DD00020384992
:1051F00008704724A600374FBD1938462946324665
:10520000FEF787FF23200290000101903858002804
:105210001ED0E000391828460D463246FEF779FFC9
:10522000D32080003858002812D0D52080003918AB
:1052300028460D463246FEF76CFF8D20C0003858D8
:10524000002805D02001391828463246FEF761FFB4
:10525000452081007A580020002A024619D0019A80
:10526000BA58002A0ED0D3229200BA58002A0DD084
:105270008D22D200BA58002A0AD017A005F072FD7C
:1052800005B0F0BD012204E00120B0E7022200E0F9
:1052900003225643B855BC19029AD2007D231B0144
:1052A000A3506350112109016350432189006050CC
:1052B000FF200A3001212154204608300399049D23
:1052C0002A46FEF726FF2120C000255405B0F0BD78
:1052D000F3090020880A0020B7A2CBCDBBBAB4E600
:1052E000D2D1C2FA210D0000F0B5C1B00C4606467D
:1052F00001ADEF1CFD213846FEF724FFFF20A8700A
:105300000A4800886870000A2870384631462246EC
:10531000FEF7FFFE06480078FFF78EFBE01C81B227
:105320002846FFF72BFC41B0F0BDC046BC1C002056
:10533000BE1C002070B51848012103F053F8012865
:1053400021D045208500154E7459002C1BD011200A
:10535000000131582046FFF731F8002910D12320F1
:10536000C000305884420BD82120C000315C307816
:10537000C000A24A1018426830460830904774595D
:10538000601E705100D070BD9D4805F0EBFC0348D5
:105390009C49FEF7D7FE70BD9401002080110020CB
:1053A0008C050000F0B585B081204000714E03905F
:1053B000315A012004900002305A0290884209D1EB
:1053C00072480124214603F00DF8012800D089E03D
:1053D00005B0F0BD684A128807E003997452A1B283
:1053E000029883B28B422146EAD083235B000024DB
:1053F000F4522123DB00049DF5548BB2F35C97B289
:105400005E4DEB555E4D2D78022D07D1521C5A4B47
:105410001A8093B21B0A37D0002233E0042F0CD835
:105420007F443F797F00BF44021319222C00534A66
:1054300012786A2A2ED1049A24E0524D2D88681DD4
:10544000B842E3D801902BD11B024F4D2B80DDE7F2
:105450004A4A5278012ADFD1022213E00322464B46
:105460001A80464B9B781B02464D2B800CE0434A2A
:10547000D278444D2B881A432A80FF2B0CD8042263
:1054800000E005223C4B1A80491C8BB2FF2BA4D8AC
:105490000C46A2E72246F7E7374A14802246F3E794
:1054A000AD1DBD42B5D1384805881D430580019822
:1054B00081B2324F384603F055FD854205D131485F
:1054C0000188381D03F0ECFD02E0E54805F04AFCD8
:1054D00000222948028001200002305A02900399DC
:1054E000715AD1E783204000325AE0498A4203D002
:1054F000521C32528A4205D12120C0000021315471
:1055000005B0F0BD142A00D062E71B4E3188002997
:1055100000D15DE7CF480278022A23D1174D0B292D
:1055200015D12A786A2A12D16A78012A0FD1AA786D
:10553000002A0CD1EA78042A09D12A79702A06D1E6
:105540002A7A002A03D1047000F0A3F90AE0284661
:10555000FFF7CAFE3088012804D12878042801D139
:10556000C348047021020548FEF7ECFD002030809E
:1055700005B0F0BD500700209A02002098010020DD
:10558000E6090020A0020020980200209C020020D2
:1055900070B51848012102F025FF012821D04520CF
:1055A0008500154E7459002C1BD011200001315874
:1055B0002046FEF703FF002910D12320C0003058F9
:1055C00084420BD82120C000315C3078C0000B4AE7
:1055D000101842683046083090477459601E705168
:1055E00000D070BD064805F0BDFB03480549FEF735
:1055F000A9FD70BDA20200200C170020ACAF00086E
:10560000FDAE00088C050000F0B585B0812040009B
:105610008A4E0290305A012100910902715A01917B
:1056200081422CD190480124214602F0DBFE012862
:1056300000D101E183204100705A8C4A904200D190
:10564000FAE0401C70527E4E3188142800D0C0E031
:105650007C4F3A88002A00D1BBE0002900D0B8E096
:10566000794D84A12846FEF778FD411E8841844982
:10567000087021022846FEF765FD3E46DAE0704AD2
:10568000158802466F4F06E0029BF25293B20199D1
:105690008CB29C42C6D083235B000020F05204925F
:1056A00093B23246F35C39463F88674CE355039525
:1056B000ACB2664E3355FF2F00D8781C0F460880D9
:1056C0006349CD78002D10D062490D78022D164621
:1056D000049A0FD1039D6D1C594B1D80ABB21B0A60
:1056E00040D00025564B1D803CE00025544B1D80CA
:1056F000164636E0042C0CD87C4424796400A74478
:10570000021218212B0051490A786A2A30D1009DD3
:1057100025E051490D88691DA142DBD82AD11B0221
:105720004E490B80D6E749494A78012A16D102250D
:1057300015E00325424B1D8044498B781B024649E6
:105740000B800EE04149CA7843490B881A430A800E
:10575000FF2B03D8042502E0052500E00025384B87
:105760001D80049A521C93B2FF2B8DD900228BE727
:105770000025F6E7AD1DA542039DAFD1374804884B
:105780001C43048089B2314803F0ECFB84420CD105
:105790002120C0003349085C01280AD12B48007938
:1057A000FF21022204F004FC09E02D4805F0DAFA9A
:1057B00005E0294801882548001D03F071FC0025FB
:1057C0001F48058001200002305A01900298325A89
:1057D000C8E7142830D100292ED01E480278022AAA
:1057E00024D11A4D0B2915D12A786A2A12D16A7848
:1057F000012A0FD1AA78002A0CD1EA78042A09D10B
:105800002A79702A06D12A7A002A03D1047000F07E
:1058100040F80BE02846FFF767FD0948008801289B
:1058200004D12878042801D11148047021020748C6
:10583000FEF788FC0020308005B0F0BDDC080020B9
:10584000AA040020AC040020A8030020A802002025
:10585000001D0020E6090020B2040020A80400205A
:1058600015AF000850070020AE040020FFFF000025
:10587000F1090020434C4F5345440D0A000000003D
:105880003C06002080B50120400300F03FF980BDB8
:1058900070477047F0B581B0044600F003FA014646
:1058A000274F3868C00712D13868800601D52020FC
:1058B00038603868C00605D43868400702D4002034
:1058C00001B0F0BD3868C0060AD400200EE0032005
:1058D0000090661C18D0002C2AD1009801B0F0BDB1
:1058E0007848C16902220A43C26110203968490719
:1058F00006D57449CA6901231343CB6104210843C7
:105900003860012001B0F0BD3868C007CCD0002E4F
:105910000ED13868C007C7D0002E09D13868C0073B
:10592000C2D0002E04D13868C007BDD0002EEBD005
:105930000D4600F0B7F92946401BA042E4D9CCE758
:105940000C2002407F21084070470000B0B504469B
:1059500000F0A8F90546601C02D0EF480078041951
:1059600000F0A0F9401BA042FAD3B0BDF0B583B05F
:105970000D460146534E307E012801D1022752E0E8
:10598000012737760C6850480291FFF783FF012CFE
:1059900014D1002845D10020F0614C4C206804252A
:1059A0002843206020684021014321604648FFF7DA
:1059B00071FF07462068A843206032E0002830D1FC
:1059C00000200190C04300952860029845688068D7
:1059D000C0024019854224D23C4C0198F0612068F5
:1059E0000226304320606560206840210143216029
:1059F0003548FFF74FFF07462068B0432060002F6F
:105A00000CD10120C0022D18029948688968C9028A
:105A1000081885422B4EE0D3019F02E000980560F4
:105A2000284E00203076384603B0F0BD2748016884
:105A300080220A43026000207047C046F0B585B05E
:105A40000493039207461F4C207E012802D10220B6
:105A500005B0F0BD0E46012525761B48FFF71AFF5D
:105A600000282AD10295022F03D13D46012F03D0F1
:105A700003E00425012F00D13D4600270197029C39
:105A800010480199C16111490868204308600398D2
:105A900004993A46FEF72CFB30800B48FFF7FAFEDC
:105AA0000A4A1168A1431160002805D16D1EB61C79
:105AB0001037002DE4D10020024C0021217605B0E2
:105AC000F0BDC046981C002050C3000010200240CA
:105AD0000648C168090601D40020704704490160E6
:105AE00004490160C068C0B2C00970470420024088
:105AF00023016745AB89EFCD01214A03904201D1D3
:105B0000014801707047C0463006002080B5044946
:105B10000A68024202D00860FFF7EEFF80BDC0466F
:105B200014040140F0B589B00B68002B00D1A7E048
:105B300004465448844201D0052000E00420172286
:105B4000D206A5180A22D5410095042D00D3009055
:105B5000002707973D4603910DE032434A48C26053
:105B60006D1C0B681846E8403F1D079A921C07926F
:105B7000002800D184E001260596AE403340EFD0E6
:105B80000695049702934B6810201843122810D1F1
:105B90000F461C20049908400F218140069AD50821
:105BA000AD0065192A6A8A43396981401143296227
:105BB0007B68032218461040079FB8400192BA4004
:105BC0002568954305432560D043122B12D8059ACA
:105BD0009A402E490A420DD0A26802400399CD682E
:105BE000BD401543A5601A0906998A406568B5430A
:105BF00015436560E268024003998868B840104325
:105C0000E060D800029E049F069DA9D54E49086811
:105C1000059A104308600868104008900C2038402E
:105C20000F2181402A46019B9A43089D184BD55865
:105C30008D43009B83402B43039915481350124812
:105C400003684868C20301D5334300E0B343069DAF
:105C50000D4A13605368820301D5334300E0B34318
:105C6000094A53609368C20201D5334300E0B3434D
:105C7000054A9360D268800200D56EE7B2436DE7B3
:105C800009B0F0BD00100048000401400600060005
:105C900008000140002A02D01822815070472822B3
:105CA00081507047054800687047C0461A48007820
:105CB00002490A68101808607047C046FC1C0020A2
:105CC00010B58C48016810220A4302600024204667
:105CD00000F004F800F024F8204610BDB0B50446EA
:105CE0007D20C0000C490978FEF768FB0146894811
:105CF0000068FEF763FB00F065FD0125032C09D861
:105D0000002807D10025E84321462A4600F02AF85A
:105D1000024804602846B0BD7C01002080010020BC
:105D200082B00948016801221143016001681140F5
:105D300001910199110742680A4342604068084096
:105D40000090009802B0704718100240002805D457
:105D50001F21084001218140014801607047C04671
:105D600000E100E0002805D40322034693430A4AD9
:105D70009A1803E00C220240064BD2188007C00E8E
:105D80008901C9B28140FF238340106898430843CA
:105D90001060704714ED00E000E400E0F0B581B061
:105DA000002848D00446534A1368012003408B4220
:105DB00009D213680126B3430B43136012683240C3
:105DC0008A4200D092E0009121688A07664B11D583
:105DD0004A0707D507221202634B1B681343624A26
:105DE0001360614B1A68F0239A43A36813435E4A19
:105DF00013605D4BC90720D13E4908680126304039
:105E0000009A904205D90868B04308600868C00746
:105E10006CD12078400706D507200002196881431D
:105E2000E068084318601A681007810F4F4802297C
:105E300010D204464EE0012658E0616803290DD0D7
:105E40001A1F02290FD0012912D1126892030646A7
:105E50004CD511E0032926D1454C3BE01A6BD20307
:105E6000064643D508E01268920106463ED503E097
:105E700012689207064639D518680326B0430843CE
:105E80001860FFF70FFF07461B4D374B18680C21B2
:105E90000140606880008142AED0FFF703FFC01B65
:105EA000A842F2D922E00321CB032F49896A0F24AB
:105EB0000C403049095D94021A40240F2E4D2C5D90
:105EC0009A4202D033049A4200E02948FEF776FA5B
:105ED0004443254B18680006000F0849085CC4407D
:105EE0000C48046000263046FFF7F8FE304601B04B
:105EF000F0BDC046002002408813000084AD0008B9
:105F000004480068184909684905490F024A515C6C
:105F1000C84070470C01002094AD0008B0B512498C
:105F20000A681007830F1148022B00D2B0BD032B63
:105F300001D10F48B0BD0323DB03896A0F240C4055
:105F40000C49095D94021A40240F0B4D2C5D9A42B6
:105F500003D001231B049A4200E00548FEF72EFA05
:105F600044432046B0BDC0460410024000127A00EF
:105F7000006CDC0280AE000870AE0008F0B587B09F
:105F800004460120002C00D138E204902078C0079C
:105F9000F34E05940CD071680C200140042900D008
:105FA0008BE03068800303D56068002800D117E1DA
:105FB0002078800721D570680007800F0ED07068A8
:105FC0000C210140082900D098E00320C00371682B
:105FD00001400120C003814200D08FE0306880077B
:105FE000059C03D5E068012800D0F9E03068F8216D
:105FF00088432169C90001433160059C207800076E
:1060000024D42078400734D42078C00600D4CAE0D5
:1060100005984069411D00D1B9E0012800D026E172
:10602000706B042101437163706B01210143716343
:10603000FFF738FE0546706B800700D5ABE0FFF731
:1060400031FE411B03200229F5D9D7E1706AE169CD
:1060500000297BD0012108437062FFF723FE05462B
:10606000706A8007CDD4FFF71DFE401B0228F7D9C8
:1060700072E1012003900107F0690840029006D107
:10608000F0690843F061F0690840069006980191B4
:10609000DB4F3868C00546D40398040238682043B3
:1060A0003860FFF7FFFD0546386820423BD1FFF717
:1060B000F9FD401B6428F7D94EE1716801400829B9
:1060C00008D10320C003716801400120000481420F
:1060D00000D166E7616801204704002900D110E182
:1060E000052900D124E1012900D125E1010432680C
:1060F0008A43326081043068884320E13068059C1F
:10610000E168002932D0012108433060FFF7CAFD61
:1061100005463068800700D568E7FFF7C3FD401BE0
:106120000228F6D918E105988068002800D1B3E06C
:10613000052800D1C6E0012800D1C7E0306A0399E4
:1061400088433062306A04218843C2E001218843D9
:106150007062FFF7A7FD0546706A800700D450E71C
:10616000FFF7A0FD401B0228F6D9F5E00121884386
:106170003060FFF797FD05463068800700D43CE7A4
:10618000FFF790FD411B03200229F5D936E1706B22
:10619000042188437063706BF821884305998969ED
:1061A000C900014371630598007880060BD57168BA
:1061B0000C2001400C2939D1706BC00303D5059820
:1061C000006A01280CD10598446A002C00D1DEE059
:1061D00070680C210140082905D1012C00D0C1E0D4
:1061E000049807B0F0BD0120020631680492914383
:1061F00031604706FFF756FD0546022C0BD1049C83
:106200003068384200D1DAE0FFF74CFD411B032033
:106210000229F5D9F2E03068384200D1B7E0FFF743
:1062200041FD411B03200229F5D9E7E071680140D7
:10623000082905D10320C003716801408142BBD009
:10624000706B0599096A002900D1A6E001210C04B0
:1062500020437063FFF726FD0546706B2042B2D1E4
:10626000FFF720FD411B03200229F6D9C6E0706B21
:10627000042101437163706B012188437063FFF750
:1062800011FD0546706B80078DD5FFF70BFD411B97
:1062900003200229F6D9B1E0306A039988433062BD
:1062A000306A042188433062564CFFF7FBFC0546F8
:1062B000306A80071BD5FFF7F5FC411B0320A14284
:1062C000F6D99BE0306A042101433162306A0399B8
:1062D000084330624B4CFFF7E5FC0546306A800707
:1062E00005D4FFF7DFFC401BA042F7D934E0029849
:1062F0000028059C00D087E6F06901998843F06189
:1063000082E6010432688A43326080043168814346
:106310003160FFF7C7FC0546059C3068384200D164
:1063200046E6FFF7BFFC411B03206429F5D965E071
:10633000810432680A4332600104306808433060E7
:10634000FFF7B0FC05463068384200D030E6FFF772
:10635000A9FC401B6428F6D9032007B0F0BDC04655
:10636000001002400320C20370680240F16A059CDD
:10637000A36A9A42049D0DD10F221140236B9942CA
:1063800008D191040840E16A8842284636D10020AD
:1063900007B0F0BD284607B0F0BD01210C04A043B2
:1063A0007063FFF77FFC0546706B204200D10AE75F
:1063B000FFF778FC411B03200229F5D91EE0F06AA3
:1063C0000F218843059A116B0143F1627B20C003C2
:1063D00071688143D06A0843916A014371603068F3
:1063E00020433060FFF75EFC044630683842CED16F
:1063F000FFF758FC011B03200229F6D907B0F0BDB6
:106400000070004088130000F0B583B0002856D01B
:10641000044605465C35002686626878002804D16B
:1064200000202870204600F04DF802236B70206891
:106430000168402291430160E168E04A01279142EE
:106440003A4600D33246FE020E430F273F02BE42B9
:1064500001D00026A66202951203266B002E05D1FC
:1064600007263602B14200D80123236301235F02CD
:10647000A669374001916168A5680D4321692943E8
:1064800065690D433D43E1692943256A0D43A16ACE
:1064900029430160310C04250D402A43616A1143F0
:1064A000626B0A4301990A434260D902C2698A4376
:1064B000C2610020206602994B7003B0F0BD01203C
:1064C00003B0F0BDF0B58BB000682849884201D018
:1064D0000BB0F0BD0126B1030291254FB868084307
:1064E000B860B868084006900698B404386820433D
:1064F000386038682040059000250A9503200490F4
:106500000990089502200390079070030690059863
:10651000184806A90191FFF705FB38682043386049
:106520003868204005900A950498099008950398CA
:106530000790F003069005980E48019E3146FFF73C
:10654000F1FA3868204338603868204005900A9591
:10655000049809900895039807900298069005986A
:1065600004483146FFF7DEFA0BB0F0BD00380040BA
:106570001410024000040048F0B587B004460746F6
:106580004437387E012802D1022007B0F0BD1D46F5
:106590000492059101263E76FFF784FB0690797EF2
:1065A000012900D081E005980028304600D1F3E0B1
:1065B00004980028304600D1EEE0002D304600D18E
:1065C000EAE0787E042801D005207876039600233F
:1065D00023667D80E587E168784A01200291914237
:1065E000014600D31946012D1A4600D80A030603B6
:1065F000206841680196B14389184160049921647B
:106600003D800599A163E3642365A5870168490678
:1066100003D4016840220A4302600C9E61684B4229
:106620004B41691E4A424A411A430299634B9942BF
:1066300049D3002A07D0059A1188C160901CA06335
:10664000E08F401EE0870125E08F002803D1788885
:10665000002800D1A5E02068816889070DD5E18F69
:1066600000290AD0012D08D1A16B0A88C260891CBB
:10667000A163E18F491EE18700258168C9070BD01E
:106680007988002908D0216CC0680880881C2064A3
:106690007888401E78800125FFF704FB711CD3D059
:1066A0000699401AB042CFD374E00396412082008D
:1066B0006368022093426ED1A268002A6BD104293C
:1066C000039E69D16FE7002A12D0E28F3C49022A6B
:1066D00004D3059B1A88C260981C05E0059A1278BD
:1066E0000273491CA06B401CA063E08F4018E08738
:1066F0000125E08F002802D17888002851D0206839
:10670000816889071AD5E18F002917D0012D15D18D
:10671000A16BE28F022A07D30A88C260891CA16399
:10672000E18F891EE18708E009780173A06B401CA6
:10673000A063E08F401EE087206800258168C907BC
:1067400020D0798800291DD07988022910D3216CA6
:10675000C2680A807A88921E7A80891C21647988AE
:10676000012501290ED84168019A1143416009E0D1
:10677000007B216C0870206C401C20647888401ECF
:1067800078800125FFF78EFA711CB2D00699401A65
:10679000B042AED30320039E002139767E7607B047
:1067A000F0BD20463146069A00F0A0FB002803D039
:1067B000202020660120EEE70020ECE70107000022
:1067C000FEFF0000401E010E01D001207047074966
:1067D000074A5060074803680B400321890759188E
:1067E000016000209060072111607047FFFFFF00EB
:1067F00010E000E020ED00E0B0B500282FD0044606
:10680000406F002805D1702000212154204600F05F
:1068100029F824206067206801680125A9430160E8
:10682000204601F0FBFF012817D0606A002802D043
:10683000204601F0F5FE0920C00221684A68824323
:106840004A6088682A2290438860086801220243CF
:106850000A60204601F04EFF05462846B0BD0120E3
:10686000B0BD0000F0B589B00025089507950695E4
:106870000595049500684749884223D046498842D7
:1068800052D04649884200D082E0454881680122C2
:106890000492D304194381608168194003910399DC
:1068A000510402680A430260006808400390042013
:1068B0000890032007900695022005900398092070
:1068C000C40661E00120470401460290344EB068DE
:1068D0003843B060B068384003900398306838435C
:1068E0003060306838400390089103200190079091
:1068F000069502200090059004200490039809203A
:10690000C40604A92046FFF70DF93068384330600B
:1069100030683840039002980890019807900695D7
:106920000098059008202DE0012081031C4E72681C
:106930000A43726072680A400392039987043068C0
:106940003843306030683840039008950320029047
:10695000079006950220019005904020049003982E
:10696000104C04A92046FFF7DDF83068384330604A
:106970003068384003900895029807900695019872
:10698000059080200490039804A92046FFF7CAF8D8
:1069900009B0F0BD0044004000380140004C004008
:1069A0001410024000040048F0B587B014460E46AB
:1069B000416F0222202912D10127002E10D0002C75
:1069C0000ED01D46012104910B03816899420AD122
:1069D000F10708D00169002905D1049F00E017469E
:1069E000384607B0F0BD0393034670331978012988
:1069F0001746F5D00746503700210291C167019331
:106A000004991970212141670690FFF74BF9069B05
:106A100005907C803C8098680399884202D118696F
:106A200000286BD0039619467C31788800280091A5
:106A300031D019680498C602C869000612D4681CCF
:106A4000FAD0FFF72FF9069B19680A68002D46D087
:106A5000059C001BA84242D85007EDD5C8693042BA
:106A6000EAD04FE00398002805D002460078088558
:106A7000521C039208E0029A10882D4C2040088591
:106A8000921C0292002003907888401E78807888BB
:106A90000028D1D100E019681C467434C869002769
:106AA000400629D40498C0020390059E02E0C869FC
:106AB000400621D4681CFAD0FFF7F4F8069B196849
:106AC0000A68002D0BD0801BA84208D85007EED5CD
:106AD000C869039A1042EAD00398086213E00D20B7
:106AE000400182430A608868049A904388602020AD
:106AF00058677833032714E0234612E00020039000
:106B0000029690E70E620D2040010A6882430A60F7
:106B10008868049A90438860202058679867032704
:106B2000009B0020019908702020186058E7C0469B
:106B3000FF01000070470000BFF34F8F0448054974
:106B40000160BFF34F8F00BF00BF00BF00BFFAE777
:106B50000CED00E00400FA057047000010B5044693
:106B600010A004F0FFF81248002C0CD00178012985
:106B700011D1002101700F4800F058FE0120FF21C3
:106B800000F08CFD10BD002101700120014602467D
:106B900003F072FD10BD0178491C017001F050FB3B
:106BA00010BDC04663616420646F6E650D00000017
:106BB000F2090020B80B000010B50D4803782E49EB
:106BC0000A88140A0121A3420CD14078D2B2904223
:106BD00008D10849012008700146024603F04CFD27
:106BE000192041010220012203F046FD10BDC046DC
:106BF000B8040020840A002010B508A004F0B2F800
:106C0000012420462146224603F036FD1920410189
:106C10000220224603F030FD10BDC0467278206588
:106C200072726F720D00000010B508A004F09AF89F
:106C3000012420462146224603F01EFD1920410171
:106C40000220224603F018FD10BDC0467278207461
:106C5000696D656F75740D0080B507488078FDF724
:106C6000F3FE00F0E1FC0120FF2100F017FD7D2084
:106C7000000100F0DBFD80BDE809002010B508A090
:106C800004F070F8012420462146224603F0F4FC6B
:106C9000192041010220224603F0EEFC10BDC0463F
:106CA00074782074696D656F75740D004A78097881
:106CB0000902891801807047F0B5002A27D0002406
:106CC00001232343E5B24E5D455DB5421DD1DEB2E1
:106CD0000023964219D2022525438F5D865DBE4270
:106CE00018D1EEB2964210D2032525438F5D865D02
:106CF000BE420FD1EDB2954207D24E5D455D241DD7
:106D0000B54209D1E5B29542DAD3D8B2F0BD00233D
:106D1000D8B2F0BDE8B2F0BDE0B2F0BD02480188E3
:106D2000491C01807047C046C81C00204870000AFA
:106D30000870704710B52123DB00094CE35C012487
:106D40005C401443E4B263426341012A04D0002B47
:106D500002D1FEF74BF810BDFDF752FF10BDC04643
:106D60005007002070470000F0B585B00025284688
:106D700001F024FB092001F02AFB284601F027FB43
:106D800004900124204601F019FB284601F016FB6F
:106D9000062001F01CFB284601F019FB0390204659
:106DA00001F00CFB284601F009FB072001F00FFB66
:106DB000284601F00CFB0290204601F0FFFA28461D
:106DC00001F0FCFA082001F002FB284601F0FFFA6E
:106DD0000190204601F0F2FA284601F0EFFA8920EE
:106DE00001F0F5FA284601F0F2FA204601F0E6FA41
:106DF000284601F0E3FA3B2001F0E9FA284601F0C9
:106E0000E6FA0646204601F0D9FA284601F0D6FAFD
:106E1000BB2001F0DCFA40273E43304601F0D7FAB0
:106E2000204601F0CBFA0024204601F0C7FA3B20AF
:106E300001F0CDFA204601F0CAFA0446012001F023
:106E4000BDFAA006EFD4274800F0EEFB0024204650
:106E500001F0B4FA3B2001F0BAFA204601F0B7FA8B
:106E600006460125284601F0A9FA204601F0A6FAB7
:106E7000BB2001F0ACFA3E43304601F0A8FA2846A8
:106E800001F09CFA0024204601F098FA3B2001F022
:106E90009EFA204601F09BFA0446012001F08EFA8A
:106EA000A006EFD40024204601F088FA892001F0E2
:106EB0008EFA049801F08BFA012001F07FFA039812
:106EC000000402990902081801994018FDF74AFACE
:106ED000054B2246FDF766F9FDF752FA00F0A4FBD8
:106EE00005B0F0BD00A1BC3380844E40F0B583B046
:106EF00002920F460646032200688168C904890F82
:106F0000019217D0D40202E08168214212D0791C8C
:106F1000FAD0FEF7C7FE0299411A3068B942F3D39E
:106F20004168E022914341604121890072688A42B0
:106F300054D05FE08168090619D4816849050022B0
:106F4000890F3DD003214C0202E08168214239D0F3
:106F5000017B791CF9D01546FEF7A4FE0299411A6F
:106F600033463068B9422FD22A461E46EDE7019CCF
:106F700002E081680906E0D5791CFAD0FEF792FE9E
:106F80000299411A3068B942F3D34168E022914333
:106F900041604121890072688A420BD1B1680122A7
:106FA000D303994202D09202914203D10168402258
:106FB0009143016001214903B26A8A4220D027E04F
:106FC00014462FE014462DE04168E02291434160D1
:106FD000412189001E465A688A420BD1B1680122BC
:106FE000D303994202D09202914203D10168402218
:106FF0009143016001214903B26A8A42019C07D191
:107000000121490302688A43026002680A43026060
:1070100030465C300121417000210170306E20212A
:1070200001433166204603B0F0BD7047F0B58BB028
:1070300000F03CF81A4DA878FDF706FD00F0F4FAD0
:107040000124204600F03CFB562000F051FF0320B5
:10705000295614480890002507950695059504942F
:1070600003951148029001940726009602272046B6
:107070002A463B4600F0B4FF08950994600300954A
:107080000949019102900395049505940695079589
:10709000204639463246234600F052FD0BB0F0BD83
:1070A000E80900202823000064080000F0B581B042
:1070B000274C0125274E284621462A46334601F013
:1070C000E9F9022021462A46334601F0E3F900F0AF
:1070D00051FBFFF749FE284600F098FA00242046AD
:1070E00001F06CF9284601F072F9204601F06FF9C1
:1070F0000646284601F062F9204601F05FF981203A
:1071000001F065F9F820304001F061F9284601F0FE
:1071100055F9E94E305D00F0D3FA0025284601F01C
:107120004DF9371979788020084301F050F9B87883
:1071300001F04DF9012001F041F9E41C302CE9D1B6
:10714000012000F0BDFADB48057501B0F0BDC04676
:10715000B80B0000759F0008F0B583B002A80024AA
:1071600004708A4F387D032847D0022866D0012852
:1071700062D10024204601F021F9922001F027F984
:10718000402001F024F90125284601F017F9204696
:1071900001F014F9122001F01AF9204601F017F954
:1071A0000646284601F00AF902A80670057820462E
:1071B00001F004F9A80656D4192001F008F90024BA
:1071C000204601F004F905460126304601F0F6F8A4
:1071D000702001903D54204601F0F0F81A2001F093
:1071E000F6F8204601F0F3F80446304601F0E6F8E0
:1071F00068B200285ED4A90860E00024204601F0AF
:10720000DDF8122001F0E3F8204601F0E0F8054631
:10721000012001F0D3F8204601F0D0F8922001F0CF
:10722000D6F8E8073AD1042001F0D1F8012001F0A6
:10723000C5F80020FFF792FC03B0F0BD01252846F9
:1072400001F0C8F9204601F0B9F8922001F0BFF82A
:10725000082001F0BCF8284601F0B0F83C75FFF7B3
:10726000FBFC03B0F0BD922001F0B1F8202001F04A
:10727000AEF8012001F0A2F86620385C002800D1A9
:107280003C75022001F0A6F941A003F06BFDFFF769
:10729000B3FC48A003F066FD03B0F0BD052001F08B
:1072A00096F80124204601F089F82046FFF756FCA5
:1072B00003B0F0BD6842C0B2800841422009BA69FB
:1072C000002905D44449454B9A4206D2611809E089
:1072D000414B424DAA4203D359180919C91D01E077
:1072E000C91809190818703778800024204601F061
:1072F00065F8132001F06BF8204601F068F80646A7
:107300000125284601F05AF83E71204601F056F852
:10731000102001F05CF8204601F059F80646284696
:1073200001F04CF8204601F049F88D2001F04FF8AB
:10733000304601F04CF8284601F040F83D792046EF
:1073400001F03CF8204601F042F8002D07D0244E11
:10735000002001F03CF83070761C6D1EF8D1012041
:1073600001F02CF86620094D285C002800D12C750E
:107370000224204601F02EF901982B563A5F397904
:107380001748FFF719FC03B0F0BDC046B805002050
:10739000766F6964205358313237364F6E44696FC7
:1073A000304576656E7428766F6964292069660DAC
:1073B00000000000766F6964205358313237364F31
:1073C0006E44696F304576656E7428766F696429FE
:1073D00020656E640D0000005CFF000041DD4A1F67
:1073E000B8040020F0B581B0E148007D022805D046
:1073F000012801D1FFF718FC01B0F0BD00F0BAF987
:10740000FFF7B2FC0125284600F000F900242046D1
:1074100000F0D4FF284600F0DAFF204600F0D7FF46
:107420000646284600F0CAFF204600F0C7FF81202C
:1074300000F0CDFFF820304000F0C9FF284600F0F2
:10744000BDFF1D4E305D00F03BF90025284600F0E1
:10745000B5FF371979788020084300F0B8FFB87875
:1074600000F0B5FF012000F0A9FFE41C302CE9D1A9
:107470000124204600F024F96C26EA48875D204666
:1074800000F01EF9E74887550646284600F096FFAB
:10749000B92000F09CFF002F01D0342000E0122022
:1074A00000F095FF204600F089FF3575FFF7E6FBF9
:1074B00001B0F0BDB805002040AE0008B0B50446EC
:1074C0000025284600F07AFF7F20204000F07FFF53
:1074D000284600F07CFF0446012000F06FFF2046A4
:1074E000B0BD0000F0B583B00C4605466520CD491F
:1074F000085C02900026304600F060FF332000F068
:1075000066FF304600F063FF01900127384600F027
:1075100055FF304600F052FFB32000F058FFBE2068
:107520000199084002990843784000F050FF38461E
:1075300000F044FF304600F041FFBB2000F047FF61
:107540000298002801D0192000E01D2000F03FFF24
:10755000384600F033FF7420B2490C54304600F036
:107560002DFFA22000F033FF204600F030FF384608
:1075700000F024FF304600F021FF8E2000F027FFAE
:10758000304600F024FF384600F018FF304600F087
:1075900015FF8D2000F01BFF304600F018FF384625
:1075A00000F00CFF304600F009FF384600F00FFFF6
:1075B000304600F00CFF0646384600F0FFFE70072C
:1075C00004D100F065FC012002F088FF002000F0EB
:1075D000F5FE802000F0FBFE002C05D0287800F09E
:1075E000F6FE6D1C641EF9D1012000F0E7FE8D4807
:1075F000806E00F08DFC03B0F0BDC04680B5C01EAB
:10760000411E8841FFF796FA80BD000080B505490C
:107610000A78824205D00870012141400846FFF7F0
:1076200089FA80BDB404002070B505467D488561A7
:107630000024204600F0C2FE862000F0C8FE284646
:10764000FCF790FE144B2246FCF714FEFCF798FE64
:107650000546000CC0B200F0BAFE0126304600F02C
:10766000ADFE204600F0AAFE872000F0B0FE280AFA
:10767000C0B200F0ACFE304600F0A0FE204600F0A4
:107680009DFE882000F0A3FEE8B200F0A0FE304688
:1076900000F094FE70BDC04680844E4010B50C468C
:1076A00000F00EF8002000F089FEA32000F08FFE0D
:1076B000204600F08CFE012000F080FE10BD00008E
:1076C000F0B581B005460024204600F077FE012683
:1076D000304600F07CFE204600F079FE074630463A
:1076E00000F06CFEF9094F4841758D423DD045755B
:1076F00000F0A2FB204600F061FE0126304600F0BB
:1077000066FE204600F063FE0746304600F056FE57
:10771000204600F053FE812000F059FE681E4142D1
:107720004141C8017F213940081800F050FE304621
:1077300000F044FE204600F041FEC02000F047FE6D
:10774000204600F044FE304600F038FE204600F0AF
:1077500035FEC12000F03BFE012D00D03024204634
:1077600000F035FE304600F029FE01B0F0BDC04605
:10777000B805002070B50920C4060125AE0200221C
:1077800020463146FEF786FA284602F0A7FE20463C
:1077900031462A46FEF77EFA062002F09FFE70BDB3
:1077A00070B505460920FFF789FE4D20FFF786FEDC
:1077B0000446DB4EB0691C49884206D80720112DCB
:1077C0000CDCF8210C40241D09E0EA172A430E2A9C
:1077D00000DB0E22501C7021154616E004432040A9
:1077E000072809D1052D00DC0525142D00D314250B
:1077F00028460B30F02108E0022D00DC0225112D77
:1078000000D3112528460E30F0210143C9B20920CA
:1078100000F0A2FD4D20214600F09EFD5020355481
:1078200070BDC046B80500203FDD4A1FF0B585B0E9
:1078300003906520BA490E5C0027384600F0BEFD73
:107840003320019000F0C3FD384600F0C0FD04462F
:107850000125284600F0B2FD384600F0AFFDB32008
:1078600000F0B5FD002E02D04120044302E0BE200E
:107870000440641C204600F0AAFD284600F09EFD4E
:10788000384600F09BFDBB2000F0A1FD002E02D089
:107890002E46192001E02E461D20A14D00F097FD37
:1078A000304600F08BFD686D0490384600F086FD90
:1078B000312000F08CFD384600F089FD0446029628
:1078C000304600F07BFD384600F078FDB12000F036
:1078D0007EFD0498082831D87F200440204600F01F
:1078E00076FD0124204600F069FD0027384600F0AF
:1078F00065FDB02000F06BFD384600F068FD2046C5
:1079000000F05CFD686D08282C46029D00D97CE0E3
:1079100078440079400087441C2B3A495867040496
:107920000400002000F04AFDAF2000F050FD402090
:1079300000F04DFD012000F041FD66E08020044391
:10794000204600F044FD012000F038FD2C46029D49
:107950005BE0002000F032FDAF2000F038FD482051
:1079600000F035FD012000F029FDA069724949E0D1
:10797000002000F023FDAF2000F029FD442000F09E
:1079800026FD012000F01AFDA0696A493AE00020B6
:1079900000F014FDAF2000F01AFD442000F017FDA8
:1079A000012000F00BFDA06961492BE0002000F0F0
:1079B00005FDAF2000F00BFD442000F008FD012084
:1079C00000F0FCFCA06959491CE0002000F0F6FC26
:1079D000AF2000F0FCFC442000F0F9FC012000F096
:1079E000EDFCA06950490DE0002000F0E7FCAF205D
:1079F00000F0EDFC442000F0EAFC012000F0DEFC89
:107A0000A06948494018FFF70FFE20465030847D9A
:107A1000C67C0027384600F0D1FC912000F0D7FC4E
:107A2000002E049401D01D2000E01F2000F0CFFCA8
:107A3000284600F0C3FC384600F0C0FC402000F0AF
:107A4000C6FC384600F0C3FC0446284600F0B6FCED
:107A5000384600F0B3FCC02000F0B9FC002E02D084
:107A6000039E019801E03F20039E0440204600F061
:107A7000AEFC284600F0A2FC384600F09FFC8F20A8
:107A800000F0A5FC384600F0A2FC284600F096FC69
:107A9000384600F093FC8D2000F099FC384600F049
:107AA00096FC284600F08AFC29022448FCF74AFB91
:107AB000F6480575002E07D002242046314600F016
:107AC000A7FC204600F03CFD00252846FFF79EFD60
:107AD0000498002801D0052400E006242046FFF782
:107AE0008DFD284600F06AFC0126304600F06FFC50
:107AF000284600F06CFC0746304600F05FFC284644
:107B000000F05CFC812000F062FCF8203840001995
:107B100000F05DFC304600F051FC05B0F0BDC04601
:107B2000B8050020C6A20000127A00005E510000D5
:107B3000043D0000B4280000821E0000B8040020AC
:107B4000F0B589B01C4617460E46FFF7B9FD042E66
:107B500000D3FEE7179804901698059015980690A4
:107B600014980790139A129D11980F99DF4B08975C
:107B70009F655033049F9F75059F5F75069F1F7516
:107B8000079FDF7403929A7401955D7406901874D0
:107B90000491D98102945C731C460621032E0B4686
:107BA00000D0F31DD14843651A46083A504250416F
:107BB000089A062A00D80A460126114600271546CB
:107BC0000B2A324600D83A4607931946B1438B1F19
:107BD000594259412B460C2D00D30C23109D05957D
:107BE000104008931A460B3A022A324600D33A460E
:107BF000114001432173384600F0E0FB1D2000F0E6
:107C0000E6FB384600F0E3FB304600F0D7FB384691
:107C100000F0D4FB9D2000F0DAFB079800010299E8
:107C20004900014306980818C0B200F0D0FB304666
:107C300000F0C4FB384600F0C1FB1E2000F0C7FB7B
:107C4000384600F0C4FB0546304600F0B7FB384626
:107C500000F0B4FB9E2000F0BAFB082028400899F1
:107C600009010818039A511E8A41910001430598A1
:107C70008005800F081800F0AAFB304600F09EFB3C
:107C8000384600F09BFB262000F0A1FB384600F0B0
:107C90009EFB0546304600F091FB247B384600F001
:107CA0008DFBA62000F093FBF7202840E100014364
:107CB000C8B200F08CFB304600F080FB384600F084
:107CC0007DFB9F2000F083FB0598C0B200F07FFB96
:107CD000304600F073FB384600F070FBA02000F047
:107CE00076FB049C200A00F072FB304600F066FB35
:107CF000384600F063FBA12000F069FBE0B200F021
:107D000066FB304600F05AFB069800280BD0002096
:107D100000F054FBA22000F05AFB019800F057FB42
:107D2000012000F04BFB6320AC4C205C002829D0E4
:107D30000025284600F042FB442000F048FB28467E
:107D400000F045FB07460126304600F037FB284689
:107D500000F034FBC42000F03AFB8020384300F0F0
:107D600036FB304600F02AFB6420275C284600F0F2
:107D700025FBA42000F02BFB384600F028FB304602
:107D800000F01CFBA569002000F018FBB62000F0F5
:107D90001EFB032407980928204611D1022000F079
:107DA00016FB012000F00AFB002000F007FBBA20C0
:107DB00000F00DFB1F48854201D87F2000E06420C1
:107DC00000F005FB0125284600F0F8FA00263046B1
:107DD00000F0F4FA312000F0FAFA304600F0F7FA39
:107DE0000746284600F0EAFA304600F0E7FAB120EC
:107DF00000F0EDFA0898062800D10524F820074085
:107E0000381900F0E4FA284600F0D8FA304600F0BD
:107E1000D5FAB72000F0DBFA0898062801D00A202E
:107E200000E00C2000F0D3FA284600F0C7FA09B0B1
:107E3000F0BDC04640DD4A1F70B5022000F0CAFB0D
:107E40000124204600F0C6FB2046FFF7DFFB00259B
:107E5000284600F0B3FA204600F0B9FA284600F0B0
:107E6000B6FA0646204600F0A9FA284600F0A6FA1F
:107E7000812000F0ACFAF820304000F0A8FA20464B
:107E800000F09CFAED48057570BDC046B8050020AD
:107E900070B5022000F09EFB0124204600F09AFB02
:107EA00000252846FFF7B2FB2046FFF7A7FB284630
:107EB00000F084FA204600F08AFA284600F087FA9B
:107EC0000646204600F07AFA284600F077FA81202C
:107ED00000F07DFAF8203040401C00F078FA20468F
:107EE00000F06CFAD548057570BDC046B805002095
:107EF00010B50446002000F061FAB92000F067FADE
:107F0000204600F064FA012000F058FA10BD00008D
:107F1000F0B581B001460124204600F079FA6320D3
:107F2000F0490F5C0025284600F048FA912000F047
:107F30004EFA002F01D0F52000E0F72000F047FABC
:107F4000204600F03BFA284600F038FA402000F0C6
:107F50003EFA284600F03BFA0646204600F02EFA8C
:107F6000284600F02BFAC02000F031FA002F01D093
:107F7000332000E03F2006404036304600F027FA2C
:107F8000204600F01BFA0220D649087500F022FBBB
:107F9000204600F0D5FA2846FFF738FB0320FFF70C
:107FA0002DFB284600F00AFA204600F010FA284679
:107FB00000F00DFA0646204600F000FA284600F0D0
:107FC000FDF9812000F003FAF8203040C01C00F0D9
:107FD000FEF9204600F0F2F901B0F0BDB80500202E
:107FE000F0B587B01C460D46FFF76AFB2846FFF741
:107FF000D7FB042C00D3FEE7149F13980690129829
:108000000490119E109805900F9A0CAD29CDB5499A
:1080100088658F665031049F0F750096CE74039269
:108020000A740495CD8102934B73069A4A75059A9A
:108030008A740623032C1D4600D0E51DA94A556508
:108040002C46083C62426241062800D818460123AB
:10805000002407460B281E4600D8264601959D435E
:10806000A81F454245410C2F00D30C2732400697EC
:108070000B3F022F00D323461D4015430D7300987C
:108080000028984F29D00024204600F097F944207A
:1080900000F09DF9204600F09AF906460125284691
:1080A00000F08CF9204600F089F9C42000F08FF927
:1080B0008020304300F08BF9284600F07FF96420DF
:1080C0003E5C204600F07AF9A42000F080F93046AA
:1080D00000F07DF9284600F071F90025284600F0EF
:1080E0006DF91D2000F073F9284600F070F90124A5
:1080F000204600F063F9284600F060F99D2000F06A
:1081000066F9019800010299490001430398081893
:10811000C0B200F05CF9204600F050F9284600F0AB
:108120004DF91E2000F053F9284600F050F906469C
:10813000204600F043F9284600F040F99E2000F068
:1081400046F90599481E814188000B213140069A65
:10815000120151180143C8B200F039F9204600F06D
:108160002DF9284600F02AF9262000F030F928469B
:1081700000F02DF90646204600F020F95C203F5C17
:10818000284600F01BF9A62000F021F9F720304026
:10819000F9000143C8B200F01AF9204600F00EF9C8
:1081A000284600F00BF9A02000F011F9049E300AD7
:1081B00000F00DF9204600F001F9284600F0FEF825
:1081C000A12000F004F9F0B200F001F9204600F01F
:1081D000F5F8284600F0F2F8312000F0F8F82846CB
:1081E00000F0F5F80646204600F0E8F8284600F0D2
:1081F000E5F8B12000F0EBF80698062801D003203E
:1082000000E00520F8210E40301800F0E0F820468C
:1082100000F0D4F8284600F0D1F8B72000F0D7F8E5
:108220000698062801D00A2000E00C2000F0CFF8C4
:10823000204600F0C3F807B0F0BDC046B8050020E6
:10824000F0B581B00024204600F0B8F8912000F08D
:10825000BEF8FA2000F0BBF80125284600F0AEF881
:10826000204600F0ABF8402000F0B1F8204600F0C6
:10827000AEF80646284600F0A1F8204600F09EF829
:10828000C02000F0A4F880213143BF20084000F056
:108290009EF8284600F092F8124803210175204606
:1082A000FFF7B4F907263046FFF7A8F9204600F09B
:1082B00085F8284600F08BF8204600F088F807463D
:1082C000284600F07BF8204600F078F8812000F086
:1082D0007EF83743384600F07AF8284600F06EF80A
:1082E00001B0F0BDB805002010B5114C2078002871
:1082F00003D000202070FEF72FFF6078002801D007
:1083000000206070A078002801D00020A070E078E4
:10831000002801D00020E070A079002806D00020BD
:10832000A071FFF75FF803A002F01CFD10BDC0466E
:10833000300600205358313237364576656E744921
:108340007271466C61675B4556454E545F54494DAA
:10835000455F4952515D0D00B0B50C460546002001
:1083600000F02CF88020284300F031F8204600F07F
:108370002EF8012000F022F8B0BD000080B50548BD
:10838000012100F02FF8012803D002F06BF900F072
:108390005FF880BD3806002010B584B003A90870CE
:1083A0007D20C0000090044802AC01232246FEF765
:1083B000E3F8207804B010BD1811002080B5024603
:1083C0000920C00601210902FDF764FC80BD80B5CB
:1083D000FFF7E2FF80BD80B5FDF768FCFEF79EFC6D
:1083E00080BD0000084A12880388002B06D0D31AEB
:1083F00043809BB28B4203D201207047012100E0F1
:108400000021028008467047C81C00207047000009
:10841000824A5269002A19D01378834200D15160F0
:108420005269002A12D01378834200D151605269F8
:10843000002A0BD01378834200D151605269002A80
:1084400004D013788342E4D15160E2E77047C0461C
:10845000B0B572484469002C03D038480078002831
:1084600003D1B0BD6469002CFBD0607A0028F9D03C
:10847000E068401CE06061688842F3D30025E56055
:108480002069002800D08047207A0028EAD0657251
:10849000E8E7C046F0B581B01F4615460E460446D3
:1084A00025480178002906D1244901220A7002706A
:1084B0005A4800214161182002F01EFC002838D0E3
:1084C0000021C1600761416141720572466004701C
:1084D000524B5A69002A29D013461D78A54228D04C
:1084E0005B69002B1ED01D78A54222D05B69002B52
:1084F00018D01D78A5421CD05B69002B12D01D78C6
:10850000A54216D05B69002BE7D10BE06269002A17
:1085100023460BD05469002C134607D06269002A09
:10852000234603D05469002C1346EFD1143318604E
:10853000416101B0F0BDC046E91C0020E81C0020EC
:1085400036494969002943D00A4602E05269002AA7
:1085500020D01378834201D10023D3605269002ACE
:1085600018D01378834201D10023D3605269002AC6
:1085700010D01378834201D10023D3605269002ABE
:1085800008D013788342E1D10023D360DEE7496944
:1085900000291DD00A78824201D101224A7249691C
:1085A000002915D00A78824201D101224A72496914
:1085B00000290DD00A78824201D101224A7249690C
:1085C000002905D00A788242E1D101224A72DEE711
:1085D0007047C0461149496900291DD00A78824276
:1085E00001D100224A724969002915D00A788242D5
:1085F00001D100224A72496900290DD00A788242CD
:1086000001D100224A724969002905D00A788242C4
:10861000E1D100224A72DEE77047C046D01C00203C
:10862000B0B5416ACA070CD18A0714D44A071CD4D2
:108630000A0724D4CA062CD48A0634D44A063CD469
:108640004CE00122520403685C689443826A22432E
:108650005A608A07EAD50122120403685C689443D1
:10866000C26A22435A604A07E2D501229204036893
:108670005C689443026B22435A600A07DAD50122F0
:10868000D20303685C689443426B22435A60CA0673
:10869000D2D50122120303689C689443826B224363
:1086A0009A608A06CAD50122520303689C689443E3
:1086B000C26B22439A604A0610D501221305026854
:1086C00054689C43056C2C4354609D4206D103239F
:1086D0005B0554689C43436C23435360090607D5EC
:1086E0000121C904026853688B43806C18435060B1
:1086F000B0BD0000F0B583B004460026C66707464B
:108700007C37FDF7CFFA0546206801680907029615
:108710002AD5C169890227D4012046050090C002EC
:10872000019002E0C16931421ED1FDF7BBFA421B44
:1087300020680168384B9A4250D84907F2D5C16980
:10874000019A1142EED0019901620D21490102689E
:108750008A4302608168009A9143816020206067AB
:10876000A0670320029A33E0016849072AD5C0694F
:10877000400227D4012086050090C002019002E04B
:10878000C06930421ED1FDF78DFA421B2068016896
:10879000214B9A4231D84907F2D5C169019A114259
:1087A000EED0019901620D21490102688A430260FD
:1087B0008168009A9143816020206067A067032050
:1087C000029A05E02020606727467837029A104613
:1087D000702162542021396003B0F0BD0D22520196
:1087E000914301608168009A914381602020606715
:1087F000274678370320029AEAE70D225201914377
:1088000001608168009A914381602020606727465B
:1088100078370320029ADBE7FFFFFF0170B50446BB
:1088200001680868424A0240A068236903436569F9
:108830001D431543E06905430D60032212034B6895
:108840009343E2681A434A60A269236A13430B22E6
:1088500012028D6895431D438D600022354B99426D
:1088600006DC374B994212D0364B994216D00CE0B9
:10887000314B994212D0314A914206D132490968AE
:108880008907090F314A525808E0102206E02E49A4
:108890000968890B0C220A402C498A580125E903F2
:1088A000884210D1082A3DD82A482B4E7A441279A2
:1088B0005200974404371D37173737371B00FDF731
:1088C0001FFB400014E0082A2CD821487A44127972
:1088D0005200974404271C27182727271B00FDF761
:1088E0000FFB14E0FDF71AFB400001E030461030AA
:1088F00061684A081018FBF761FD064012D00007B6
:10890000400F30430BE0FDF709FB00E008466168CB
:108910004A081018FBF752FD80B2102802D32168D4
:10892000C8600025002020666066284670BDC046ED
:10893000F369FFEFFF4B0040004C0040003801405E
:1089400000440040004800403010024090AE000853
:1089500000127A000024F400F0FF000080B50F48F8
:108960000068C069800618D5012001020C48425AEF
:10897000531C43520B4B1B88835442185278002AD5
:1089800001D000224252832149000022425203209A
:10899000022132221346FBF747FF80BD5C0800200E
:1089A000DC0800202438014080B50F480068C06909
:1089B000800618D5012001020C48425A531C43522C
:1089C0000B4B1B88835442185278002A01D0002296
:1089D00042528321490000224252012002213222C8
:1089E0001346FBF721FF80BDD00600205007002072
:1089F00024440040F0B583B0019102901DA002F024
:108A0000B1F94724A600204FBD1938462946324601
:108A1000FBF77FFB23200001385800281ED0E00020
:108A2000391828460D463246FBF773FBD3208000E9
:108A30003858002812D0D5208000391828460D4615
:108A40003246FBF766FB8D20C0003858002805D061
:108A50002001391828463246FBF75BFB029908785B
:108A6000F12805D1481C0199491E89B200F068F827
:108A700003B0F0BD4765742041636B2046726F6D93
:108A8000205043210D0000008011002080B50A46CF
:108A90000146312001F06CF980BD80B50A460146DF
:108AA000352001F065F980BD70B582B00C460546F1
:108AB000C11CE21E01AE3046FBF72BFB30780928C3
:108AC00001D0032804D101202946224601F050F9A3
:108AD00002B070BDB0B5C0B00446012001026846C6
:108AE000FBF730FB207803280BD0092817D0042887
:108AF00020D1C84800886946491CFEF717F90322AF
:108B000013E00D4C2046FBF746FB05466846401C2B
:108B100021462A46FBF7FDFA681CC2B205E0502048
:108B20000649085C694648700222694600200346EF
:108B300001F04AFA40B0B0BDF0AE0008B805002020
:108B4000F0B5C5B00191039004AD284609300290FC
:108B5000F721FBF7F7FA44A902200870F124012756
:108B6000002620463A46334601F02EFA2C723C4647
:108B7000F020E871019F781CA871000A68712C71BF
:108B80006A20E8701020A87068702E70029803990F
:108B90003A46FBF7BEFABA1D1004334600D19EE0F8
:108BA000E91C3C405348544B9F4204D100231E46CD
:108BB000002C67D193E00394504B1A4000263346B3
:108BC00004E0891C9B1C9CB2944256D00C78250270
:108BD00075406C002DB2002D00D54440650024B2D4
:108BE000002C00D545406C002DB2002D00D544402E
:108BF000650024B2002C00D545406C002DB2002D3C
:108C000000D54440650024B2002C00D545406E00DC
:108C10002CB2002C00D54640740035B2002D00D592
:108C200044404D782D0265406C002DB2002D00D5DA
:108C30004440650024B2002C00D545406C002DB2A4
:108C4000002D00D54440650024B2002C00D54540DD
:108C50006C002DB2002D00D54440650024B2002CDC
:108C600000D545406C002DB2002D00D54440660073
:108C700024B2002CA5D54640A3E7B2B2130A039C48
:108C8000002C2CD009780A027240510012B2002A3E
:108C900000D541404A0009B2002900D542405100A8
:108CA00012B2002A00D541404A0009B2002900D57D
:108CB0004240510012B2002A00D541404A0009B298
:108CC000002900D54240510012B2002A00D541408F
:108CD0004E0009B2002900D54640B0B2030A04A8EC
:108CE00039188E724B720B37B9B2FCF775FA45B072
:108CF000F0BDC04621100000FBFF0000FEFF000099
:108D000070B5C4B00C460546C11CE21E03AE304629
:108D1000FBF7FFF9307804280DD009281BD008286C
:108D20002FD103A8411C01AE3046FDF7BFFF3088AC
:108D3000042809D816E003A8411C01AE3046FDF70F
:108D4000B5FF30880F280DD911202946224601F0A1
:108D50000FF844B070BD1420C04303A949781539F9
:108D6000814209D802A98020087011200122002325
:108D700001F02AF944B070BD11202946224600F0C6
:108D8000F7FF44B070BD000010B5C4B00A460146FC
:108D900002AC2046FBF7BDF9611C01A8FDF786FF78
:108DA0002078092817D0042832D1FF20C24301A916
:108DB00009888A1892B20002824214D9154A118099
:108DC0007F2008409070FBF737FE43A900230B700B
:108DD000102001220CE002A8407801461539C9B2E2
:108DE00089083A2908D843A901220A7010200023D3
:108DF00001F0EAF844B010BD0649C87040B2FEF771
:108E0000CFFC43A900230B701020012201F0DCF8F5
:108E100044B010BDE809002070B582B005461A487C
:108E2000007801280CD101A90220087070200122CD
:108E3000002301F0C9F8194801F094FF02B070BD99
:108E40000C46124E30462946FDF730FF28787F2128
:108E500001400F48017031880E4A914204D10E49F9
:108E600002220A70A9780170E878002808D0012849
:108E700008D170202946224600F07AFF02B070BD6A
:108E8000FCF707FD02B070BD7C110020BC1C002067
:108E9000BE1C0020FFFF0000E609002029AF0008EB
:108EA000B0B5007801281FD1104A0125156010487F
:108EB000002404232146FBF7AFFE20202146224652
:108EC00001F076F87D208000FCF740FD85F31088E6
:108ED000BFF34F8F074808490160BFF34F8F00BFB2
:108EE00000BF00BF00BFFAE7B0BDC046EC1C0020C9
:108EF000003800080CED00E00400FA05F0B581B080
:108F00004726B400164D2F19284639462246FBF74E
:108F100000F923200001285800281ED0F00029184D
:108F200038460F462246FBF7F4F8D3208000285835
:108F3000002812D0D5208000291838460F46224636
:108F4000FBF7E7F88D20C0002858002805D0300135
:108F5000291838462246FBF7DCF801B0F0BDC046C0
:108F6000880A0020F0B5002935D001240B462340A3
:108F70004A4A012932D10025002B2AD0007801026B
:108F80006940480009B2002900D55040410000B2B4
:108F9000002800D55140480009B2002900D55040B2
:108FA000410000B2002800D55140480009B2002914
:108FB00000D55040410000B2002800D55140480083
:108FC00009B2002900D55040450000B2002800D564
:108FD0005540A8B2F0BD0025A8B2F0BDA1430025C0
:108FE0002C4604E0801CA41CA6B28E42C4D0067895
:108FF00036026E40750036B2002E00D555406E0028
:109000002DB2002D00D55640750036B2002E00D589
:1090100055406E002DB2002D00D55640750036B279
:10902000002E00D555406E002DB2002D00D55640C3
:10903000770035B2002D00D557407D003EB2002E9E
:1090400000D55540467836026E40750036B2002E87
:1090500000D555406E002DB2002D00D5564075004C
:1090600036B2002E00D555406E002DB2002D00D531
:109070005640750036B2002E00D555406E002DB218
:10908000002D00D55640770035B2002D00D5574051
:109090007D003EB2002EA5D55540A3E7211000006B
:1090A000B0B5C2B00C460146621C01AD2846FBF7C4
:1090B00030F828786F2875DC352800D98FE08100DA
:1090C00001A251588F46C046CF910008A1910008D7
:1090D000DF910008DF910008DF910008DF910008B0
:1090E000DF910008DF910008DF910008DF910008A0
:1090F000DF910008DF910008DF910008DF91000890
:10910000DF910008DF910008B5910008B9910008CF
:10911000DF910008DF910008DF910008DF9100086F
:10912000DF910008DF910008DF910008DF9100085F
:10913000DF910008DF910008DF910008DF9100084F
:10914000DF910008DF910008BD910008DF91000861
:10915000DF910008DF910008DF910008DF9100082F
:10916000DF910008DF910008DF910008DF9100081F
:10917000DF910008DF910008DF910008DF9100080F
:10918000DF910008DF910008DF910008C19100081D
:10919000DF910008DF910008DF910008C591000809
:1091A000012014E070280FD0F0280FD0F12816D13C
:1091B00008200CE002200AE0032008E0042006E07A
:1091C000052004E0062002E0072000E00920C0009E
:1091D00004490818426801A8401C2146904742B043
:1091E000B0BDC046A0AE0008F0B581B083204000FD
:1091F000DF4900220A52012420020A527D20C500C4
:10920000E44E3B4F3046394622462B46FDF7CCFB19
:10921000791C304622462B46FDF7C6FBB91C30466A
:1092200022462B46FDF7C0FBF91C304622462B4652
:10923000FDF7BAFB391D304622462B46FDF7B4FB3D
:10924000791D304622462B46FDF7AEFBB91D304650
:1092500022462B46FDF7A8FBF91D304622462B4639
:10926000FDF7A2FB39460831304622462B46FDF772
:109270009BFB39460931304622462B46FDF794FBCD
:1092800039460A31304622462B46FDF78DFB3946DA
:109290000B31304622462B46FDF786FB39460C3112
:1092A000304622462B46FDF77FFB39460D313046CE
:1092B00022462B46FDF778FB39460E3130462246D2
:1092C0002B46FDF771FB39460F31304622462B46BF
:1092D000FDF76AFB10373046394622462B46FDF72C
:1092E00063FBE0488178491C817001B0F0BDC04645
:1092F0004BAF000870B5F04801242146FFF772F823
:10930000012816D0ED4D2888401C288080B28008A6
:109310007D280ED32102EA48415A00264654E949E5
:10932000FAF71BFF2E80002800D1F443A8782018FC
:10933000A87070BDF0B581B015480121FFF752F853
:10934000012822D0F04D2888401C288080B2C00817
:109350007D281AD37D20C400C1480E4F012639460E
:1093600032462346FDF720FB791CBD483246234692
:10937000FDF71AFBB91CBA4832462346FDF714FB29
:1093800000202880A878401CA87001B0F0BDC0461D
:109390003E060020A4AF000880B50A480121FFF76F
:1093A00021F801280CD0EF480188491C018089B2BE
:1093B00089087D2904D3002101808178491C8170AE
:1093C00080BDC04642060020F0B581B08320400039
:1093D000BB4900220A52012420020A527D20C50006
:1093E0009F4E304F3046394622462B46FDF7DCFA79
:1093F000791C304622462B46FDF7D6FAB91C30467A
:1094000022462B46FDF7D0FAF91C304622462B4661
:10941000FDF7CAFA391D304622462B46FDF7C4FA3D
:10942000791D304622462B46FDF7BEFAB91D30465F
:1094300022462B46FDF7B8FAF91D304622462B4648
:10944000FDF7B2FA39460831304622462B46FDF781
:10945000ABFA39460931304622462B46FDF7A4FACD
:1094600039460A31304622462B46FDF79DFA3946E9
:109470000B31304622462B46FDF796FA39460C3121
:10948000304622462B46FDF78FFA0D3730463946D7
:1094900022462B46FDF788FAE9488178491C8170FD
:1094A00001B0F0BD95AF0008B0B5164801242146C3
:1094B000FEF798FF012807D0134D2888401C28800C
:1094C00080B280087D2800D2B0BD21020F48415AE9
:1094D000002444540E49FAF740FE002809D02C809D
:1094E0000A480CA1FAF739FE002807D01620A87008
:1094F000B0BD2C80A878401EA870B0BD1A20A870FE
:10950000B0BDC046EC090020001D0020DC08002092
:10951000A8AF00085354415455533A340D0A000083
:10952000B0B59EB083204000114900220A520120AC
:1095300000020A526C460FA1144A154B204601F056
:1095400061F9207800280DD06D46BB4C7D20C3000A
:10955000012220462946FDF727FA681C6978002970
:109560000546F3D1C8488178491C81701EB0B0BD52
:10957000DC08002041542B43574A41503D222573BB
:10958000222C222573220D0A00000000BAAD00082B
:10959000AAAD00085C08002070B5BA480124214635
:1095A000FEF720FF012816D0F04D2888401C2880A7
:1095B00080B2094988420ED32102E948415A002667
:1095C0004654B249FAF7C9FD2E80002800D1F44371
:1095D000A8782018A87070BD10270000B0B5A0B002
:1095E0008320410013480022425281214900FAF7AA
:1095F000A9FD1148009002AC10A117A2174B2046FC
:1096000001F000F9207800280DD002ADD54C7D2066
:10961000C300012220462946FDF7C6F9681C697877
:1096200000290546F3D1E7488178491C817020B0B4
:10963000B0BDC046DC080020B5AD000841542B4346
:10964000495053544152543D222573222C222573F4
:10965000222C25730D0A0000544350009CAD0008D5
:109660005C080020001D002070B51348012421462D
:10967000FEF7B8FE01281ED0104D2888401C288017
:1096800080B240097D2816D321020D48415A002698
:1096900046540C49FAF761FD002808D108480AA190
:1096A000FAF75BFD002801D0012400E0F4432E808E
:1096B000A8780019A87070BDEC090020001D0020DA
:1096C000DC080020A8AF0008414C52454159204316
:1096D0004F4E4E454354000080B50A480121FEF725
:1096E00081FE01280CD0F1480188491C018089B213
:1096F000C9087D2904D3002101808178491C81702B
:1097000080BDC04646060020001D0020B0B50D48B3
:1097100001242146FEF766FE012812D0E34D288879
:10972000401C288080B280087D280AD30920C0060A
:10973000E1032246FCF7AEFA00202880A878401CFE
:10974000A870B0BD4A06002080B50920C0060121DE
:10975000C9030022FCF79EFAD4488178491C817025
:1097600080BDC046001D0020F0B581B083204000C0
:10977000CB4900220A52012420020A527D20C50052
:10978000C84E2E4F3046394622462B46FDF70CF97F
:10979000791C304622462B46FDF706F9B91C3046A7
:1097A00022462B46FDF700F9F91C304622462B468F
:1097B000FDF7FAF8391D304622462B46FDF7F4F83E
:1097C000791D304622462B46FDF7EEF8B91D30468E
:1097D00022462B46FDF7E8F8F91D304622462B4677
:1097E000FDF7E2F839460831304622462B46FDF7B0
:1097F000DBF839460931304622462B46FDF7D4F8CE
:1098000039460A31304622462B46FDF7CDF8394617
:109810000B31304622462B46FDF7C6F80C37304652
:10982000394622462B46FDF7BFF8EA488178491CA5
:10983000817001B0F0BDC0465C0800205DAF00083B
:10984000001D002070B5F54801242146FEF7CAFD31
:10985000012816D0F24D2888401C288080B280084C
:109860007D280ED32102EF48415A00264654DA499A
:10987000FAF773FC2E80002800D1F443A878201852
:10988000A87070BDEC090020001D0020A8AF0008E2
:10989000F0B581B083204000E24900220A52012441
:1098A00020020A527D20C500B84E2F4F304639465F
:1098B00022462B46FDF778F8791C304622462B4687
:1098C000FDF772F8B91C304622462B46FDF76CF8BE
:1098D000F91C304622462B46FDF766F8391D304606
:1098E00022462B46FDF760F8791D304622462B466E
:1098F000FDF75AF8B91D304622462B46FDF754F8BD
:10990000F91D304622462B46FDF74EF83946083100
:10991000304622462B46FDF747F839460931304696
:1099200022462B46FDF740F839460A31304622469A
:109930002B46FDF739F839460B31304622462B4687
:10994000FDF732F80C373046394622462B46FDF7F4
:109950002BF8B3488178491C817001B0F0BDC04636
:10996000DC0800205C0800207AAF0008001D002001
:1099700070B5134801242146FEF734FD01281ED09E
:10998000104D2888401C288080B20F49884216D389
:1099900021020E48415A002646540D49FAF7DDFBD4
:1099A000002808D109480BA1FAF7D7FB002801D0FD
:1099B000012400E0F4432E80A8780019A87070BD3F
:1099C000EC090020001D0020C4090000DC08002074
:1099D000A8AF00086E6F206368616E6765000000C5
:1099E000F0B581B0832040008E4900220A52012444
:1099F00020020A527D20C500644E2B4F3046394666
:109A000022462B46FCF7D0FF791C304622462B46D7
:109A1000FCF7CAFFB91C304622462B46FCF7C4FFB0
:109A2000F91C304622462B46FCF7BEFF391D304656
:109A300022462B46FCF7B8FF791D304622462B46BE
:109A4000FCF7B2FFB91D304622462B46FCF7ACFFAF
:109A5000F91D304622462B46FCF7A6FF3946083151
:109A6000304622462B46FCF79FFF394609313046E7
:109A700022462B46FCF798FF39460A3130462246EB
:109A80002B46FCF791FF0B373046394622462B46D2
:109A9000FCF78AFF62488178491C817001B0F0BDF3
:109AA000DC0800205C08002088AF0008001D0020B2
:109AB000F0B581B0832040005A4900220A520124A7
:109AC00020020A527D20C500304E314F30463946C3
:109AD00022462B46FCF768FF791C304622462B466F
