:020000040800F2
:10000000A8180020D5000008511A0008311A00086D
:1000100000000000000000000000000000000000E0
:10002000000000000000000000000000631A00084B
:100030000000000000000000611A0008651A0008B6
:10004000E7000008E7000008E7000008E7000008F4
:10005000E7000008E7000008E7000008E7000008E4
:10006000E7000008E7000008E7000008E7000008D4
:10007000E7000008E7000008E7000008E7000008C4
:10008000E7000008E7000008E7000008E7000008B4
:10009000E7000008E7000008E7000008E7000008A4
:1000A000E7000008E7000008E7000008E11E00087C
:1000B000251F0008E7000008E7000008E700000827
:1000C0000348854600F0B6F8004800473D2C00087C
:1000D000A81800200448804704480047FEE7FEE7D0
:1000E000FEE7FEE7FEE7FEE79D1A0008C1000008F4
:1000F00010B5202A04DB0846203AD040002110BD6C
:100100000B46D340D0402024A21A91400843194600
:1001100010BD03460B439B0703D009E008C9121F1B
:1001200008C0042AFAD203E00B780370401C491C73
:10013000521EF9D27047D2B201E00270401C491E33
:10014000FBD270470022F6E710B513460A46044674
:100150001946FFF7F0FF204610BD30B505462A4688
:100160000B4610781C78521C5B1C002801D0A04262
:10017000F7D0002C03D0002802D06D1CEFE72846F2
:1001800030BDCAB2401E4178401C8A4202D00029CC
:10019000F9D10020704770B50446002903D0002033
:1001A0002022012310E0002801D00020C043C046D7
:1001B000C0460DE02546D5408D4205D30D469540FD
:1001C000641B1D46954040191546521E002DF1DC5A
:1001D000214670BDF0B51FB40646002082B005462A
:1001E0004024019100901BE0019922460F463046C1
:1001F000FFF77EFF049A059B801A994110D31046A1
:100200001946224600F028F8361A8F4101972246F7
:1002100001200021009F00F01FF838184D41009088
:100220002046641E0028DFDC019B009829463246E8
:1002300007B0F0BD064C0125064E05E0E36807CC8B
:100240002B430C3C98471034B442F7D3FFF73CFFE4
:10025000B4330008D433000810B5202A04DB01466B
:10026000203A9140002010BD914020239C1A034663
:10027000E3401943904010BD10B50B4C00200B49D2
:100280000822E1235B020AC420606060A060E26093
:100290002061083C204601F075FA20680168402280
:1002A00091430160026210BD40040020004C0040F8
:1002B00080B5FFF7E1FF00F08BFA00F0ADF900F038
:1002C000ABF880BD70B584B00546002603964005A6
:1002D00006D00FA002F0B8FF0124204604B070BD84
:1002E0000C4600F0A3FD00960195601BC00A029029
:1002F000684603A900F084FC0446002802D009A047
:1003000002F0A2FF00F0DEFC204604B070BDC04643
:100310006164647265737320697320657272212051
:100320000D000000657261736520736563746F7200
:10033000206661696C6564210D000000F0B503461C
:10034000900701D00120F0BD0020002A18D00446FB
:100350001D590D51251D954212D21E190D19776890
:100360006F602746083797420AD2B768AF602746C2
:100370000C37974204D2F668EE6010349442E7D30B
:10038000F0BDF0B581B00646900703D001242046A9
:1003900001B0F0BD14460D4600F048FD002C0BD016
:1003A0000027F119EA59D317022000F095FC002824
:1003B00008D13F1DA742F4D3002400F083FC20465F
:1003C00001B0F0BD012400F07DFC204601B0F0BD7D
:1003D00010B5844C204600F0C1F92046183000F0DA
:1003E000BDF92046303000F0B9F92046483000F021
:1003F000B5F92046603000F0B1F97834204600F0BD
:10040000ADF910BD10B5052805D81824444375482A
:10041000001900F08BF910BDF0B58BB00127BD04B9
:100420006E4908682843086008680C4628400A900E
:1004300003200490089000260796029606970597D9
:100440000A98674805A9019100F004FD2068284337
:100450002060206828400A90049C0894079606971C
:100460000220039005900A985D48019E314600F0F5
:10047000F1FCF949086828430860086828400A9098
:100480000894029807900697042005900A9854480B
:10049000314600F0DFFCF04908682843086008682E
:1004A00028400A9004980890029E07960697B80282
:1004B00005900A984A48019C214600F0CBFCE64989
:1004C000086828430860086828400A900498089043
:1004D00007960697380305900A984148214600F090
:1004E000B9FCDD49086828430860086828400A907C
:1004F0000498089007960697F80205900A983848DD
:10050000214600F0A7FC374D37483849296168611A
:100510000A20E88007460490284600F017F97D205D
:1005200086002846039C21463246334600F0FEF8FA
:100530002F483049A962E862EF832F4618373846C2
:1005400000F004F9384621463246334600F0EEF812
:1005500029482A4929646864049CEC862F46303770
:10056000384600F0F3F8384603993246334600F037
:10057000DDF823482349A965E8652F464837FC8004
:10058000384600F0E3F83846039C214632463346AD
:1005900000F0CCF81C481D49296768672F46603772
:1005A0000498F880384600F0D1F8384621463246A3
:1005B000334600F0BBF87835154816492961686163
:1005C0000498E880284600F0C1F8284621463246C3
:1005D000334600F0ABF80BB0F0BDC046141002403B
:1005E00000040048DC070020692B0008592B000894
:1005F000492B0008392B0008292B0008192B00086B
:10060000092B0008F92A0008A92B0008992B0008DB
:10061000892B0008792B0008F0B581B01A4C002511
:1006200013480C21E122520225C425606560A160B7
:10063000E5600C3C204601F0A5F8206801684027E1
:10064000B9430160016820220A4302601C2630463B
:1006500000F012FD304629462A4600F019FD2120FF
:10066000C000B3490D542068076201B0F0BDC04618
:100670000044004080B50A4601467D20C300024880
:1006800001F058F980BDC046C0040020F0B5254FE8
:10069000BD441C4606920F4605460120C60207A827
:1006A0003146FFF74FFD3246731E3B401819711C4F
:1006B0008842059400D3D41A04947D19069F0393AD
:1006C00006E0069F7F18029DAD180021039104905B
:1006D00002951348054007AE284631461446FFF7F9
:1006E0002DFE0398301806973946049F3A46FFF7C7
:1006F00010FD29192846FFF7E5FD28463146224618
:10070000FFF73FFE0598C01B06D03946A042059072
:100710002246D6D31046D4E7034FBD44F0BDC046B1
:1007200000F8FFFFE4F7FFFF1C08000010B5047895
:10073000002C00D010BD0024448183804280417091
:10074000012404709A184A43028110BD80B500212B
:100750000160018181804069804780BD70B5044699
:10076000C1880A3001F084F9012800D170BD617898
:10077000FF2904D1206980470020207070BDA28924
:100780002389981A00D20020208100290CD093429E
:100790000AD96188A688751880B22946FFF7FBFC44
:1007A000B14206D8142005E060698047002020701F
:1007B00070BD1020205880476078FE28D6D1FD20DB
:1007C000684321898842D1D1FE206843208170BDD1
:1007D000F0B587B0264D00241E480C21E1225202BC
:1007E00015C52C606C60A960EC600C3D284600F0DB
:1007F000C9FF286801684027B943016001682022C9
:100800000A4302601B26304600F036FC3046214683
:10081000224600F03DFC2868076201200390410455
:100820000D4A13680B43136012680A400192059445
:100830000494C003029001980920C00602A900F0A8
:1008400009FB2120C000A2490C54A348C47007B082
:10085000F0BDC046003801401410024080B50A4681
:1008600001467D20C300024801F064F880BDC04607
:100870004C060020F0B583B0812040002C4D029042
:100880002C5A012001900202AA5AA24223D0914878
:100890000788284903E0A0B28242374619D0832353
:1008A0005B000026EE522123DB000198E854A3B23E
:1008B000EB5CB8B20B54631C98B2FF28344600D8E6
:1008C0001C4602982C527B1C98B2FF28E3D81E4687
:1008D000E1E7804806807F4EB01D0124214601F0EB
:1008E000C7F8012801D103B0F0BD832040002A5A87
:1008F0007D498A4203D0521C2A528A4205D12120C6
:10090000C0000021295403B0F0BD142AEBD1318876
:100910000029E8D0074D284601F028FB7148002740
:10092000076021022846FFF70DFC378003B0F0BDB9
:100930004005002040010020F0B583B08120440034
:10094000634F3A5B012000023E5A96427FD0614BD2
:100950009D8858886049C978002901942DD0009657
:1009600005E090B2009981423546184621D0832196
:10097000490000237B5291B2795C0295AEB2574C8C
:10098000A1553C4687B2564DE955511C8AB2FF2A03
:100990001A4600D80A4601996252FF2E1E46274683
:1009A00001D802994E1C401C81B2FF29D9D80346B8
:1009B000D7E748484380034648E0832149000027A1
:1009C00002910C4642490F534149895C00914349C9
:1009D000009C4C55424C00992154511C88B2FF2870
:1009E000384600D808463A49019A8852FF2D00D867
:1009F0006F1C81B28E4201D13E4622E03546344C16
:100A000003E082B29542374618D00026029966521A
:100A100081B2615CBBB2314AD154421C90B2FF2812
:100A2000304604D9019AA052FF2BEAD804E01046C0
:100A3000019AA052FF2BE4D87E1CE2E728480170FF
:100A4000244B2848002101605980214F9E80214E6F
:100A500030460A300124214601F00AF8012821D04D
:100A600083204100785A204A90421BD0401C785283
:100A70007588142818D1B188002915D0002D13D0FD
:100A800016481AA1FFF769FB0746401E3946814107
:100A90001948017021021148FFF754FB0020B08073
:100AA000002F05D003B0F0BD1428FBD1002DF9D0E4
:100AB0000B4F3846294601F059FA0A4800250560CF
:100AC00021023846FFF73EFB758003B0F0BDC046FB
:100AD000CC060020180100202C010020400300203B
:100AE0004002002014010020FFFF0000434C4F5340
:100AF00045440D0A0000000026010020F0B581B039
:100B0000054600F067FA0646C64F3868C00716D19A
:100B10003868800601D5202038603868C00606D4C1
:100B20003868400703D40024204601B0F0BD38687F
:100B3000C0061FD40020396849072BD523E00324C1
:100B4000002DF1D0681C0CD13868C007E0D038689F
:100B5000C007DDD03868C007DAD03868C007F3D1E5
:100B6000D6E700F037FA801BA842DDD83868C00706
:100B7000F7D1CDE7AA48C16902220A43C261102019
:100B80003968490706D5A649CA6901231343CB61D1
:100B90000421084338600124204601B0F0BDC0465E
:100BA00010B57D20C1000A4C204600F061FF0128ED
:100BB0000CD060681D2802D8401C606010BD054A3A
:100BC0000021116004481023FFF760FD10BDC046EE
:100BD000100100209408002000380008B0B5044639
:100BE00000F0F8F90546601C02D0044800780419AA
:100BF00000F0F0F9401BA042FAD3B0BD0401002080
:100C0000F0B583B00D460146854E307E012803D1F4
:100C10000227384603B0F0BD012737760C688248BA
:100C20000291FFF76BFF012C14D1002845D1002061
:100C3000F061284C2068042528432060206840216A
:100C4000014321607848FFF759FF07462068A84311
:100C5000206032E0002830D100200190C043009590
:100C60002860029845688068C0024019854224D2F5
:100C7000184C0198F06120680226304320606560BE
:100C800020684021014321606748FFF737FF07468E
:100C90002068B0432060002F0CD10120C0022D1825
:100CA000029948688968C902081885425C4EE0D3F9
:100CB000019F02E000980560594E002030763846CA
:100CC00003B0F0BD0348016880220A43026000209F
:100CD0007047C04610200240F0B585B0504C257ECC
:100CE000012D03D10227384605B0F0BD01AD0FC577
:100CF0000127277600F06EF905464A4E3068C00796
:100D000008D0494C00F066F9401BA0422CD830684E
:100D1000C007F7D13068800601D5202030603068E8
:100D2000C0063F4A09D43068400706D40199022919
:100D30001DD1009101291ED01EE03068C00604D4E8
:100D400000203168490708D40CE0D0690221014332
:100D5000D16110203168490704D5D1693943D16187
:100D600004210843306040E003272D4A3DE0042081
:100D70000090012900D10091002501950198D061D2
:100D800070680127384370602A0103980499FFF7BF
:100D9000AFF96900029A885200F01CF904463068E5
:100DA000C00706D000F016F9001B1F498842F6D98B
:100DB00015E03068800601D5202030603068C0061C
:100DC000174A17D43068400714D47068012188434B
:100DD00070606D1C002700988542CFD105E0394630
:100DE00003270F4A706888437060002010763846E9
:100DF00005B0F0BD3068C00601D4002004E0D06921
:100E000002210143D16110203168490704D5D1691D
:100E10003943D1610421084330603946E2E7C046D6
:100E2000700800200C20024050C300000648C16832
:100E3000090601D40020704704490160044901609B
:100E4000C068C0B2C0097047042002402301674552
:100E5000AB89EFCDF0B589B00B68002B00D1A7E0CE
:100E600004465448844201D0052000E004201722A3
:100E7000D206A5180A22D5410095042D00D3009072
:100E8000002707973D4603910DE032434A48C26070
:100E90006D1C0B681846E8403F1D079A921C07928C
:100EA000002800D184E001260596AE403340EFD003
:100EB0000695049702934B6810201843122810D10E
:100EC0000F461C20049908400F218140069AD5083E
:100ED000AD0065192A6A8A43396981401143296244
:100EE0007B68032218461040079FB8400192BA4021
:100EF0002568954305432560D043122B12D8059AE7
:100F00009A402E490A420DD0A26802400399CD684A
:100F1000BD401543A5601A0906998A406568B54326
:100F200015436560E268024003998868B840104341
:100F3000E060D800029E049F069DA9D54D4908682F
:100F4000059A104308600868104008900C2038404B
:100F50000F2181402A46019B9A43089D184BD55882
:100F60008D43009B83402B4303991548135012482F
:100F700003684868C20301D5334300E0B343069DCC
:100F80000D4A13605368820301D5334300E0B34335
:100F9000094A53609368C20201D5334300E0B3436A
:100FA000054A9360D268800200D56EE7B2436DE7D0
:100FB00009B0F0BD00100048000401400600060022
:100FC00008000140002A02D01822815070472822D0
:100FD00081507047054800687047C0461A4800783D
:100FE00002490A68101808607047C046A40800202B
:100FF00010B58B48016810220A4302600024204685
:1010000000F004F800F022F8204610BD70B5044648
:101010007D20C0000C4E3178FFF7BDF801468848AE
:101020000068FFF7B8F800F093FB0125032C08D8FF
:10103000002806D10025E84321462A4600F028F87A
:101040007460284670BDC0460401002082B0094883
:101050000168012211430160016811400191019969
:10106000110742680A4342604068084000900098B7
:1010700002B0704718100240002805D41F21084014
:1010800001218140014801607047C04600E100E055
:10109000002805D40322034693430A4A9A1803E022
:1010A0000C220240064BD2188007C00E8901C9B23B
:1010B0008140FF23834010689843084310607047C5
:1010C00014ED00E000E400E0F0B581B0002847D066
:1010D0000446534A1368012003408B4208D2136828
:1010E0000126B3430B431360126832408A4238D161
:1010F000009121688A07694B11D54A0707D5072255
:101100001202664B1B681343644A1360634B1A68F0
:10111000F0239A43A3681343604A13605F4BC907E7
:1011200022D13F49086801263040009A904205D9F3
:101130000868B04308600868C00712D120784007EB
:1011400006D50720000219688143E068084318604B
:101150001A681007810F5248022912D2044650E043
:101160000126304601B0F0BD616803290DD01A1F79
:1011700002290FD0012912D1126892030646F0D538
:1011800011E0032926D1474C3BE01A6BD2030646F7
:10119000E7D508E0126892010646E2D503E012683E
:1011A00092070646DDD518680326B0430843186049
:1011B000FFF710FF07461B4D384B18680C21014004
:1011C000606880008142ACD0FFF704FFC01BA842DA
:1011D000F2D9C6E70321CB033049896A0F240C40BA
:1011E0003149095D94021A40240F304D2C5D9A421A
:1011F00002D033049A4200E02A48FEF7CCFF444371
:10120000264B18680006000F0749085CC4400C48CC
:10121000046000263046FFF7F9FE304601B0F0BD0D
:10122000002002408813000068320008044800686B
:101230001A4909684905490F024A515CC84070477C
:101240000C01002078320008B0B514490A68100774
:10125000830F1348022B00D2B0BD032B01D11148DC
:10126000B0BD0323DB03896A0F240C400E49095DDE
:1012700094021A40240F0D4D2C5D9A4207D0012391
:101280001B049A42FEF787FF44432046B0BD054841
:10129000FEF781FF44432046B0BDC0460410024023
:1012A00000127A00006CDC0234330008243300089A
:1012B000F0B587B004460120002C00D142E2049032
:1012C0002078C007F84E05940CD071680C200140BE
:1012D000042900D090E03068800303D560680028BE
:1012E00000D120E12078800721D570680007800FA9
:1012F0000ED070680C210140082900D09DE0032029
:10130000C003716801400120C003814200D094E015
:1013100030688007059C03D5E068012800D002E111
:101320003068F82188432169C90001433160059C78
:101330002078000724D42078400737D42078C006CE
:1013400000D4D3E005984069411D00D1C2E00128D6
:1013500000D02FE1706B042101437163706B012198
:1013600001437163FFF736FE0546706B800700D5B9
:10137000B4E0FFF72FFE411B03200229F5D9E1E17C
:10138000706AE169002900D181E00121084370629F
:10139000FFF720FE0546706A8007CCD4FFF71AFEDF
:1013A000401B0228F7D9032007B0F0BD01200390AD
:1013B0000107F0690840029006D1F0690843F06126
:1013C000F0690840069006980191DF4F3868C00523
:1013D0004AD403980402386820433860FFF7FAFDC6
:1013E0000546386820423FD1FFF7F4FD401B6428D2
:1013F000F7D9032007B0F0BD71680140082908D172
:101400000320C0037168014001200004814200D123
:1014100061E7616801204704002900D116E1052930
:1014200000D12AE1012900D12BE1010432688A436D
:10143000326081043068884326E13068059CE168A9
:10144000002936D0012108433060FFF7C3FD05466F
:101450003068800700D563E7FFF7BCFD401B02281A
:10146000F6D9032007B0F0BD05988068002800D1A8
:10147000B5E0052800D1C8E0012800D1C9E0306AF4
:10148000039988433062306A04218843C4E0012113
:1014900088437062FFF79EFD0546706A800700D49E
:1014A00049E7FFF797FD401B0228F6D9032007B054
:1014B000F0BD012188433060FFF78CFD05463068A0
:1014C000800700D433E7FFF785FD411B0320022985
:1014D000F5D937E1706B042188437063706BF82194
:1014E000884305998969C9000143716305980078AB
:1014F00080060BD571680C2001400C2939D1706B26
:10150000C00303D50598006A01280CD10598446AE8
:10151000002C00D1DFE070680C210140082905D1C2
:10152000012C00D0C2E0049807B0F0BD01200206F3
:1015300031680492914331604706FFF74BFD054641
:10154000022C0BD1049C3068384200D1DBE0FFF75D
:1015500041FD411B03200229F5D9F3E030683842F0
:1015600000D1B8E0FFF736FD411B03200229F5D971
:10157000E8E071680140082905D10320C0037168C3
:1015800001408142BBD0706B0599096A002900D1E6
:10159000A7E001210C0420437063FFF71BFD054603
:1015A000706B2042B2D1FFF715FD411B03200229C9
:1015B000F6D9C7E0706B042101437163706B0121A0
:1015C00088437063FFF706FD0546706B80078DD575
:1015D000FFF700FD411B03200229F6D9B2E0306A73
:1015E000039988433062306A042188433062574C43
:1015F000FFF7F0FC0546306A80071DD5FFF7EAFCCF
:10160000411B0320A142F6D99CE0306A042101432A
:101610003162306A0399084330624C4CFFF7DAFCC0
:101620000546306A800707D4FFF7D4FC401BA04270
:10163000F7D9032007B0F0BD02980028059C00D020
:101640007CE6F06901998843F06177E6010432682D
:101650008A4332608004316881433160FFF7BAFC0D
:101660000546059C3068384200D13BE6FFF7B2FCE6
:10167000411B03206429F5D964E0810432680A43E0
:1016800032600104306808433060FFF7A3FC054670
:101690003068384200D025E6FFF79CFC401B6428E8
:1016A000F6D9032007B0F0BD001002400320C203AA
:1016B00070680240F16A059CA36A9A42049D0DD1AC
:1016C0000F221140236B994208D191040840E16A2E
:1016D0008842284636D1002007B0F0BD284607B022
:1016E000F0BD01210C04A0437063FFF773FC0546B5
:1016F000706B204200D109E7FFF76CFC411B03200F
:101700000229F5D91EE0F06A0F218843059A116B72
:101710000143F1627B20C00371688143D06A0843B2
:10172000916A01437160306820433060FFF752FCDA
:10173000044630683842CED1FFF74CFC011B032031
:101740000229F6D907B0F0BD0070004088130000F0
:10175000401E010E01D0012070470749074A506022
:10176000074803680B4003218907591801600020CE
:101770009060072111607047FFFFFF0010E000E05C
:1017800020ED00E0B0B500282FD00446406F0028BF
:1017900005D1702000212154204600F029F8242092
:1017A0006067206801680125A9430160204600F0B8
:1017B00073FA012817D0606A002802D0204600F092
:1017C0006EF90920C00221684A6882434A6088682D
:1017D0002A22904388600868012202430A6020465A
:1017E00000F0C6F905462846B0BD0120B0BD000096
:1017F000F0B589B0002508950795069505950495DF
:1018000000684749884223D04649884252D0464919
:10181000884200D082E04548816801220492D304C6
:10182000194381608168194003910399510402684A
:101830000A430260006808400390042008900320D7
:10184000079006950220059003980920C40661E0E0
:101850000120470401460290344EB0683843B0601E
:10186000B06838400390039830683843306030687F
:1018700038400390089103200190079006950220BC
:10188000009005900420049003980920C40604A940
:101890002046FFF7DFFA3068384330603068384060
:1018A000039002980890019807900695009805907B
:1018B00008202DE0012081031C4E72680A437260EB
:1018C00072680A4003920399870430683843306095
:1018D00030683840039008950320029007900695E1
:1018E000022001900590402004900398104C04A918
:1018F0002046FFF7AFFA3068384330603068384030
:10190000039008950298079006950198059080200D
:101910000490039804A92046FFF79CFA09B0F0BD93
:101920000044004000380140004C004014100240C8
:1019300000040048F0B587B016460746426F022003
:10194000202A12D1012500291AD00391002E17D088
:1019500001210C03BA68A2420BD1039AD20708D026
:101960003A69002A05D10D460AE00546284607B027
:10197000F0BD04943C4670342278012A054602D119
:10198000284607B0F0BD059320463C46503400255C
:10199000FD670290017021207867FFF71BFB06901E
:1019A00066802680B8680499884202D13869002888
:1019B00002D00495039E02E0002603980490059946
:1019C0000BE0049A1188194B19400185921C04926E
:1019D0002E4605996088401E60806088002810D0DF
:1019E00000918021002538462A46069B00F0FCF92C
:1019F000002810D13868002EE3D031780185761C9C
:101A0000E7E700914021002538462A46069B00F072
:101A1000EBF9002803D00325284607B0F0BD029853
:101A2000057020207867284607B0F0BDFF01000050
:101A3000BFF34F8F044805490160BFF34F8F00BFCC
:101A400000BF00BF00BFFAE70CED00E00400FA059C
:101A50007047000010480188491C01807047C0464B
:101A60007047704780B5FFF7B9FAFFF7F3FF80BD05
:101A7000094A12880388002B06D0D31A43809BB2F0
:101A80008B4205D201207047012102800846704731
:101A90000021028008467047900800207047B0B5CA
:101AA000416ACA070CD18A0714D44A071CD40A0712
:101AB00024D4CA062CD48A0634D44A063CD44CE03A
:101AC0000122520403685C689443826A22435A608C
:101AD0008A07EAD50122120403685C689443C26A4B
:101AE00022435A604A07E2D50122920403685C68E7
:101AF0009443026B22435A600A07DAD50122D203CB
:101B000003685C689443426B22435A60CA06D2D58C
:101B10000122120303689C689443826B22439A60FB
:101B20008A06CAD50122520303689C689443C26B9B
:101B300022439A604A0610D50122130502685468B0
:101B40009C43056C2C4354609D4206D103235B05E6
:101B500054689C43436C23435360090607D5012115
:101B6000C904026853688B43806C18435060B0BD51
:101B7000F0B583B004460026C66707467C37FFF7FA
:101B800029FA054620680168090702962AD5C16925
:101B9000890227D4012046050090C002019002E08E
:101BA000C16931421ED1FFF715FA421B2068016856
:101BB000384B9A4250D84907F2D5C169019A11426F
:101BC000EED0019901620D21490102688A43026049
:101BD0008168009A9143816020206067A06703209C
:101BE000029A33E0016849072AD5C069400227D428
:101BF000012086050090C002019002E0C0693042D9
:101C00001ED1FFF7E7F9421B20680168214B9A4279
:101C100031D84907F2D5C169019A1142EED0019934
:101C200001620D21490102688A4302608168009ABD
:101C30009143816020206067A0670320029A05E03D
:101C40002020606727467837029A10467021625438
:101C50002021396003B0F0BD0D2252019143016093
:101C60008168009A91438160202060672746783719
:101C70000320029AEAE70D22520191430160816834
:101C8000009A9143816020206067274678370320BF
:101C9000029ADBE7FFFFFF0170B5044601680868A0
:101CA000464A0240A0682369034365691D43154302
:101CB000E06905430D60032212034B689343E26819
:101CC0001A434A60A269236A13430B2212028D68E9
:101CD00095431D438D600022394B994206DC3B4BF6
:101CE00099422AD03A4B994212D010E0354B994292
:101CF0000ED0354A91420AD1364909688907090F41
:101D0000354A52580125E903884205D020E01022C7
:101D10000125E90388421BD1082A49D83048314EB1
:101D20007A4412795200974404432943234343439E
:101D30002700FFF77BFA400020E026490968890B5D
:101D40000C220A4024498A580125E9038842E3D03D
:101D5000082A2DD82148C0467A4412795200974467
:101D600004271C27182727271B00FFF75FFA14E01A
:101D7000FFF76AFA400001E03046103061684A0817
:101D80001018FEF708FA064012D00007400F304343
:101D90000BE0FFF759FA00E0084661684A0810189E
:101DA000FEF7F9F980B2102802D32168C860002537
:101DB000002020666066284670BDC046F369FFEFCC
:101DC000FF4B0040004C0040003801400044004000
:101DD00000480040301002404433000800127A00EE
:101DE0000024F400F0FF0000F0B585B016460F4661
:101DF00004460568E9693940C91B4A424A41002046
:101E0000B24222D1029404930A9C002C1FD0611C80
:101E100036D1E9693940C91B4A424A41B24214D11C
:101E2000E9693940C91B4A424A41B2420DD1E969C8
:101E30003940C91B4A424A41B24206D1E969394098
:101E4000C91B4A424A41B242E3D005B0F0BDFFF798
:101E5000C1F8029D0D20400129680A6882430A608A
:101E6000886801229043886020206867284678307F
:101E7000702100226A5420210160032005B0F0BDCA
:101E8000019001200090C0020390029D06E0C0690D
:101E90003840C01B41424141B1421ED1FFF79AF880
:101EA0000499401AA042D5D8286801684907EED5A0
:101EB000C169039A1142EAD0039901620D214901D7
:101EC00002688A4302608168009A91438160202001
:101ED0006867A86728467C30CAE7019805B0F0BD5E
:101EE00080B5E7480068C069800618D50120010266
:101EF000CB48425A531C4352094B1B888354421807
:101F00005278002A01D00022425283214900002247
:101F100042520320022132221346FEF773FA80BD9B
:101F20002438014080B50F480068C069800618D584
:101F3000012001026248425A531C43520A4B1B883B
:101F4000835442185278002A01D000224252832141
:101F50004900002242520120022132221346FEF79C
:101F600051FA80BDC004002024440040F0B5A1B067
:101F70000278022A0FD0042A10D168460621017087
:101F80002120C0004E49085C012867D16846012124
:101F9000FEF770FB66E0842904D050E084294ED11E
:101FA000012A4CD103230A461A4099430C1F831D72
:101FB0000021DD1E2D7869189D1E2D7869185D1E83
:101FC0002D7869181D786918241F1B1D002CF0D16D
:101FD000002A0CD0DC1E24786118012A07D09C1E30
:101FE00024786118022A02D05A1E127851188322CE
:101FF000825CC9B291424DD186784778C11C6C464B
:10200000802520462A46FEF784F8F801F1030818D7
:102010002C49C9680818803821462A46FEF7B1F9CC
:1020200020A8062101702120C0002549085C012854
:102030003FD120A80121FEF71DFB21B0F0BD68466D
:10204000152101702120C0001D49085C01282AD1FA
:1020500068460121FEF70EFB21B0F0BD6846012164
:10206000FEF7FCFB174A002111605068401C5060CD
:1020700093681548154CA342054600D02546956047
:10208000A34200D11846D06011481023FEF7FEFA93
:1020900021B0F0BD6846152101702120C00008491B
:1020A000085C0128D4D068460121FEF7D7FB21B097
:1020B000F0BD20A80121FEF7D1FB21B0F0BDC04644
:1020C000400500209408002000100108004000088E
:1020D00000380008F0B581B083204000DE490022BE
:1020E0000A52012420020A527D20C500E34E3B4FD4
:1020F0003046394622462B46FFF71CFC791C3046F9
:1021000022462B46FFF716FCB91C304622462B46CA
:10211000FFF710FCF91C304622462B46FFF70AFC5D
:10212000391D304622462B46FFF704FC791D304608
:1021300022462B46FFF7FEFBB91D304622462B46B2
:10214000FFF7F8FBF91D304622462B46FFF7F2FB5E
:1021500039460831304622462B46FFF7EBFB39461D
:102160000931304622462B46FFF7E4FB39460A3157
:10217000304622462B46FFF7DDFB39460B31304611
:1021800022462B46FFF7D6FB39460C313046224615
:102190002B46FFF7CFFB39460D31304622462B4602
:1021A000FFF7C8FB39460E31304622462B46FFF773
:1021B000C1FB39460F31304622462B46FFF7BAFBAA
:1021C00010373046394622462B46FFF7B3FBDF482F
:1021D000017A491C017201B0F0BDC04654330008B9
:1021E00070B5EF4DA81C01242146FFF741FC0128E2
:1021F00015D0E888401CE88080B280087D280ED386
:102200002102E848415A00264654E749FDF7A5FF58
:10221000EE80002800D1F443287A2018287270BD7F
:10222000CC060020F0B581B0EF4D284612300121D8
:10223000FFF71EFC012821D0E888401CE88080B20E
:10224000C0087D281AD37D20C400BF480D4F012649
:10225000394632462346FFF76DFB791CBA483246B1
:102260002346FFF767FBB91CB74832462346FFF702
:1022700061FB0020E880287A401C287201B0F0BD84
:102280004C060020AD33000810B5EE4C2046163049
:102290000121FFF7EDFB01280BD0E088401CE08016
:1022A00080B280087D2804D30020E080207A401C82
:1022B000207210BDF0B581B083204000B9490022E2
:1022C0000A52012420020A527D20C5009E4E304F42
:1022D0003046394622462B46FFF72CFB791C304608
:1022E00022462B46FFF726FBB91C304622462B46DA
:1022F000FFF720FBF91C304622462B46FFF71AFB5E
:10230000391D304622462B46FFF714FB791D304617
:1023100022462B46FFF70EFBB91D304622462B46C0
:10232000FFF708FBF91D304622462B46FFF702FB5C
:1023300039460831304622462B46FFF7FBFA39462C
:102340000931304622462B46FFF7F4FA39460A3166
:10235000304622462B46FFF7EDFA39460B31304620
:1023600022462B46FFF7E6FA39460C313046224624
:102370002B46FFF7DFFA0D373046394622462B460B
:10238000FFF7D8FAE648017A491C017201B0F0BDA6
:102390009E330008B0B5164DA81C01242146FFF756
:1023A00067FB012806D0E888401CE88080B28008DE
:1023B0007D2800D2B0BD21020E48415A0024445469
:1023C0000D49FDF7CAFE002809D0EC8009480BA191
:1023D000FDF7C3FE002807D016202872B0BDEC80A0
:1023E000287A401E2872B0BD1A202872B0BDC0469F
:1023F00026010020CC060020B1330008535441547C
:1024000055533A340D0A0000B0B59EB08320400009
:10241000114900220A52012000020A526C460FA103
:10242000144A154B204600F0ABFC207800280DD054
:102430006D46B94C7D20C300012220462946FFF796
:1024400079FA681C697800290546F3D1C548017AF4
:10245000491C01721EB0B0BDCC06002041542B4374
:10246000574A41503D222573222C222573220D0A02
:10247000000000009E3200088E3200084C0600204A
:1024800070B5F14DA81C01242146FFF7F1FA01288F
:1024900015D0E888401CE88080B2094988420ED3F4
:1024A0002102E648415A00264654AF49FDF755FE41
:1024B000EE80002800D1F443287A2018287270BDDD
:1024C00010270000B0B5A0B08320410013480022BF
:1024D000425281214900FDF735FE1148009002ACBF
:1024E00010A117A2174B204600F04AFC20780028C4
:1024F0000DD002ADD24C7D20C300012220462946DA
:10250000FFF718FA681C697800290546F3D1E348FB
:10251000017A491C017220B0B0BDC046CC06002033
:102520009932000841542B43495053544152543D71
:10253000222573222C222573222C25730D0A0000DC
:1025400054435000803200084C0600202601002031
:1025500070B5134DA81C01242146FFF789FA012804
:102560001DD0E888401CE88080B240097D2816D341
:1025700021020C48415A002646540B49FDF7EDFD57
:10258000002808D1074809A1FDF7E7FD002801D080
:10259000012400E0F443EE80287A0019287270BD0F
:1025A00026010020CC060020B1330008414C5245E2
:1025B000415920434F4E4E454354000010B5F14C55
:1025C00020460E300121FFF753FA01280BD0E08896
:1025D000401CE08080B2C0087D2804D30020E08049
:1025E000207A401C207210BD26010020B0B5E54DB8
:1025F00028460A3001242146FFF73AFA012811D073
:10260000E888401CE88080B280087D280AD3092031
:10261000C006E1032246FEF7D5FC0020E880287AB8
:10262000401C2872B0BDC04680B50920C0060121FB
:10263000C9030022FEF7C6FCD248017A491C017288
:1026400080BDC04626010020F0B581B08320400047
:10265000C94900220A52012420020A527D20C500E5
:10266000C64E2E4F3046394622462B46FFF762F9BA
:10267000791C304622462B46FFF75CF9B91C3046E0
:1026800022462B46FFF756F9F91C304622462B46C8
:10269000FFF750F9391D304622462B46FFF74AF91D
:1026A000791D304622462B46FFF744F9B91D3046C6
:1026B00022462B46FFF73EF9F91D304622462B46AF
:1026C000FFF738F939460831304622462B46FFF7E6
:1026D00031F939460931304622462B46FFF72AF9AF
:1026E00039460A31304622462B46FFF723F9394650
:1026F0000B31304622462B46FFF71CF90C3730468B
:10270000394622462B46FFF715F9F948017A491C4C
:10271000017201B0F0BDC0464C06002066330008CF
:102720002601002070B5F24DA81C01242146FFF7B8
:102730009FF9012815D0E888401CE88080B2800805
:102740007D280ED32102EB48415A00264654D74932
:10275000FDF703FDEE80002800D1F443287A20180D
:10276000287270BD26010020B1330008F0B581B099
:1027700083204000DF4900220A52012420020A522D
:102780007D20C500B74E2F4F3046394622462B4696
:10279000FFF7D0F8791C304622462B46FFF7CAF8DF
:1027A000B91C304622462B46FFF7C4F8F91C3046C8
:1027B00022462B46FFF7BEF8391D304622462B46EF
:1027C000FFF7B8F8791D304622462B46FFF7B2F8DE
:1027D000B91D304622462B46FFF7ACF8F91D3046AE
:1027E00022462B46FFF7A6F83946083130462246E6
:1027F0002B46FFF79FF839460931304622462B46D3
:10280000FFF798F839460A31304622462B46FFF743
:1028100091F839460B31304622462B46FFF78AF8AD
:102820000C373046394622462B46FFF783F8E848F6
:10283000017A491C017201B0F0BDC046CC060020EF
:102840004C060020833300082601002070B5134D8C
:10285000A81C01242146FFF70BF901281DD0E888A8
:10286000401CE88080B20E49884216D321020D48F0
:10287000415A002646540C49FDF76FFC002808D148
:1028800008480AA1FDF769FC002801D0012400E0F6
:10289000F443EE80287A0019287270BD26010020CA
:1028A000C4090000CC060020B13300086E6F20631D
:1028B00068616E6765000000F0B581B0832040005C
:1028C0008C4900220A52012420020A527D20C500B0
:1028D000644E2B4F3046394622462B46FFF72AF8E6
:1028E000791C304622462B46FFF724F8B91C3046A7
:1028F00022462B46FFF71EF8F91C304622462B468F
:10290000FFF718F8391D304622462B46FFF712F81C
:10291000791D304622462B46FFF70CF8B91D30468C
:1029200022462B46FFF706F8F91D304622462B4675
:10293000FFF700F839460831304622462B46FEF7AD
:10294000F9FF39460931304622462B46FEF7F2FFA1
:1029500039460A31304622462B46FEF7EBFF0B374D
:102960003046394622462B46FEF7E4FFA548017A59
:10297000491C017201B0F0BDCC0600204C060020BD
:102980009133000826010020F0B581B0832040007B
:10299000584900220A52012420020A527D20C50013
:1029A000304E314F3046394622462B46FEF7C2FFA5
:1029B000791C304622462B46FEF7BCFFB91C304638
:1029C00022462B46FEF7B6FFF91C304622462B4620
:1029D000FEF7B0FF391D304622462B46FEF7AAFF10
:1029E000791D304622462B46FEF7A4FFB91D30461E
:1029F00022462B46FEF79EFFF91D304622462B4607
:102A0000FEF798FF39460831304622462B46FEF73E
:102A100091FF39460931304622462B46FEF78AFFA0
:102A200039460A31304622462B46FEF783FF3946A7
:102A30000B31304622462B46FEF77CFF39460C31DF
:102A4000304622462B46FEF775FF0D373046394695
:102A500022462B46FEF76EFF6A48017A491C017236
:102A600001B0F0BD4C0600207433000870B5654D10
:102A7000A81C01242146FEF7FBFF012815D0E88899
:102A8000401CE88080B280087D280ED321021948BE
:102A9000415A002646540549FDF75FFBEE800028A9
:102AA00000D1F443287A2018287270BDB133000891
:102AB00070B5544DA81C01242146FEF7D9FF01280A
:102AC00015D0E888401CE88080B2C0087D280ED36D
:102AD00021020848415A002646543E21FDF751FB89
:102AE000EE80002800D1F443287A2018287270BDA7
:102AF00026010020CC06002080B5012081022E484E
:102B00000022FEF75FFA80BD80B5012291022A48BB
:102B1000FEF758FA80BDC04680B527480421002240
:102B2000FEF750FA80BDC04680B52348042101223B
:102B3000FEF748FA80BDC04680B51F48022100223A
:102B4000FEF740FA80BDC04680B51B480221012235
:102B5000FEF738FA80BDC04680B517480121002233
:102B6000FEF730FA80BDC04680B5134801210A4601
:102B7000FEF728FA80BDC04680B50120C1020E488C
:102B80000022FEF71FFA80BD80B50122D1020A485B
:102B9000FEF718FA80BDC04680B501200103064843
:102BA0000022FEF70FFA80BD80B501221103024812
:102BB000FEF708FA80BDC046000400481148012114
:102BC00041720178002901D0122101817047C0466D
:102BD0002601002010B50B4C607A002803D0207825
:102BE000002800D110BD207A80000749085880478E
:102BF000217A60788842F5D004A000F0B1F8207AFC
:102C0000607010BD26010020A832000853544550C2
:102C1000203D2025640D0A00074988810A68520674
:102C200008D40A68520605D40A68520602D40A6813
:102C30005206F3D57047C0461C4C004092B0FEF7D8
:102C4000D7F9FEF7F3F83F483421016000260D96CE
:102C50000C960B960A9609960896079611960124EB
:102C60002005109020040F9002250E9506940594DF
:102C700005A8FEF71DFB0496039602950720019018
:102C800001A82146FEF720FAFDF712FB2E482F4D32
:102C900010222946FDF752FB6868401C012804D821
:102CA0002B482C496E60A960E86028682A4E0128EC
:102CB00015D17D2082000120FF211346FDF7A2FBE4
:102CC0000D200703E868C119FDF7FCFA002803D0BE
:102CD0000120FDF783FFF5E72868012811D0A968D6
:102CE00060072202FDF715FA3068032101433160C5
:102CF000A8684168194A1160006880F30888106864
:102D00008047164F01E0FDF763FBFFF763FFFDF718
:102D1000B1FDFDF711FEFDF743FF28680128F2D051
:102D2000A96860072202FDF7F4F930680321014326
:102D30003160A86841683960006880F308883868A5
:102D40008047E0E70C20024000380008940800208B
:102D5000001001080040000800000140D8070020D2
:102D60000FB410B503A9044B044A029800F02CF8E4
:102D700010BC08BC04B01847192C00080001002042
:102D80000FB410B504A9074B02AA039800F01CF871
:102D9000044602A9002000F051FA204610BC08BCED
:102DA00004B018473D32000802E008C8121F08C1ED
:102DB000002AFAD170477047002001E001C1121FBC
:102DC000002AFBD170470000FFB591B00F460546C1
:102DD000002606E025280AD0149A139990476D1C06
:102DE000761C28780028F5D1304615B0F0BD0024B7
:102DF00000940121F34A029400E004436D1C2B78F7
:102E00000846203B98401042F7D128782A280ED057
:102E1000022128780246303A092A15D8009A0A2356
:102E20005A43303A80180C436D1C0090F1E701CFF3
:102E30000090002805DA0120400304430098404236
:102E40000090022004436D1C28782E2815D1042000
:102E5000044368786D1C2A280AD101CF6D1C0290AA
:102E60000BE002990A225143303940186D1C029040
:102E70002878014630390929F3D928786C2810D0F0
:102E800006DC4C281AD068280ED06A2817D104E036
:102E9000742813D07A2812D110E001204005044391
:102EA0000CE00121090501E0032109050C436978C3
:102EB000814203D10120000524186D1C6D1C287867
:102EC00003906E281ED00CDC632831D004DC00286F
:102ED0008AD0582811D1B2E064287BD069280CD15F
:102EE00078E073282DD004DC6F2870D0702804D1CE
:102EF000A7E075286CD078286BD0149A1399904766
:102F0000761C62E06002400F022807D003280AD036
:102F1000042838680AD006603F1D56E03868F1176B
:102F200006604160F8E738680680F5E70670F3E769
:102F30003878694608740020487404A8039001207A
:102F400003E0386803900020C0433F1D61070FD5A0
:102F5000002101E00199491C029A0191914213DA82
:102F60008142F7DB019A0399895C0029F2D10BE0D9
:102F7000002101E00199491C01918142FADB019A8B
:102F80000399895C0029F5D101990098139A401A98
:102F900000902146149B00F03BF9019980194618D6
:102FA00007E0039803990078491C0391149A139938
:102FB00090470198401E0190401CF2D12146149B7D
:102FC000139A009800F014F986196D1C09E741E086
:102FD00033E034E00A200021049005916002410FA3
:102FE000022905D001CFC2179446032905D007E076
:102FF000FF1DFF08FF0003CF06E000B2C217944692
:10300000042902D140B2C1178C4600226146944582
:1030100006DA0A460021404291418C462D2102E009
:10302000210504D52B216A461176012103E0E10731
:1030300001D02021F7E7019154E00A200BE0102095
:1030400009E0102004900021042004430820059189
:10305000029003E008200021059104906002410FD6
:10306000022905D001CF00229446032906D006E0AC
:10307000FF1DFF08FF0003CF8C4603E080B2042948
:1030800000D1C0B20021019121072BD503997029ED
:1030900006D0049A1021059B4A401A4305D00EE041
:1030A00040216A461176012108E06146014306D0BD
:1030B00030216A4611760399517602210191049AD2
:1030C0000821059B4A401A430CD16146014301D1B6
:1030D000610707D530216A461176012101910299D5
:1030E000491E02910399582904D037A103910FA9D1
:1030F0000F910DE039A1F9E76146059B049AFDF7B0
:1031000069F8039B8C469B5C0F9A521E0F921370BA
:1031100061460143F0D10F9807A9081A20300390A7
:10312000600704D5012000048443029801E00120D7
:1031300002900399884201DD401A00E00020411806
:103140000290019809180098401A0090E00306D4F4
:103150002146149B139A009800F05AF88619002013
:10316000049008E006A9085C149A13999047049803
:10317000401C761C049001998842F3DBE0030CD5D7
:103180002146149B139A009800F042F8861904E037
:10319000149A302013999047761C0299481E029089
:1031A0000029F5DC08E00F980F990078491C0F9171
:1031B000149A13999047761C0399481E039000298E
:1031C000F1DCFBE609280100303132333435363783
:1031D0003839616263646566000000003031323363
:1031E0003435363738394142434445460000000003
:1031F000F8B5044600251E461746880404D405E0A9
:1032000039462020B0476D1C641EF9D52846F8BD0C
:10321000FFB50446002581B01E46C80301D53027FE
:1032200000E02027880404D505E038460399B0471C
:103230006D1C641EF9D5284605B0F0BD0A68531C04
:103240000B6010707047000010B5044601E0FFF7F6
:10325000E3FC2078641C03490028F8D10A20FFF71A
:10326000DBFC10BD00010020000000000000000099
:10327000010203040607080900000000010203041C
:103280003139322E3136382E312E313033007777C6
:10329000772E3534323832310038323334004A4DEB
:1032A00055575A480000000029260008ED2500085F
:1032B000BD2500086D2700084D28000809240008D6
:1032C00081240008D5200008E121000849260008D3
:1032D00025270008C5240008512500088929000871
:1032E0006D2A0008B9280008B12A0008BD2B000883
:1032F0002522000889220008B5220008952300082D
:103300000924000881240008C5240008512500086C
:10331000892900086D2A0008B9280008B12A000888
:10332000BD2B000802030405060708090A0B0C0D53
:103330000E0F10100102030405060708090A0B0C02
:103340000D0E0F1000000000040000000800000037
:103350000200000041542B43574155544F434F4EF8
:103360004E3D300D0A0041542B4349504D55583DB8
:10337000300D0A0041542B4349504D4F44453D31D7
:103380000D0A0041542B43574D4F44453D310D0A22
:103390000041542B43495053454E440D0A004154BB
:1033A0002B4349505354415455530D0A002B2B2B9A
:1033B000004F4B00D833000800010020100000002F
:1033C000A82D0008E833000810010020981700001D
:1033D000B82D0008000000000000000001000000FF
:0833E0000400000000127A0055
:04000005080000C12E
:00000001FF
